:10000000008000100D060000150600001706000015
:10001000190600001B0600001D060000000000007D
:100020000000000000000000000000001F060000AB
:100030002106000000000000230600002506000045
:1000400027060000270600002706000027060000FC
:1000500027060000270600002706000027060000EC
:1000600027060000270600002706000027060000DC
:1000700027060000270600002706000027060000CC
:1000800027060000270600002706000027060000BC
:1000900027060000270600002706000027060000AC
:1000A000270600002706000027060000270600009C
:1000B000270600002706000027060000270600008C
:1000C0002706000039483A4970B5884223D0394C98
:1000D000A14220D2024652F8046B0B46CD4343F8AE
:1000E000046B6519A342C5F3800514D23DB11668AF
:1000F00000F108021E6001F10803A3420BD2104672
:1001000050F8045B194641F8045B5668021D5E60B6
:100110000B1DA342F3D328482849884224D0284CF9
:10012000A14221D2024652F8046B0B46CD4343F85C
:10013000046B04EB050CA342CCF3800514D23DB153
:10014000156800F108021D6001F10803A3420BD2FB
:10015000104650F8045B194641F8045B5668021DCE
:100160005E600B1DA342F3D3164A1748824216D293
:1001700000211346D64343F8041B84198342C4F379
:1001800080040CD224B1196002F10803834206D224
:100190001A4642F8041B5960131D8342F8D302F03B
:1001A00011F800F0D9F90CF0B7FC00BF0CD1000039
:1001B00000000010B0050010BCD60000440700107D
:1001C00044070010B0050010440700101B48202110
:1001D000C0F8A011D0F8A01111F0400FFAD0022100
:1001E000C0F804110121C0F80C110B22C0F88420C2
:1001F000C0F88010AA22C0F88C205523C0F88C309B
:10020000D0F8881011F0806FFAD00321C0F8801068
:10021000C0F88C20C0F88C300521C0F808110021EE
:10022000C0F8A811C0F8AC11054AC0F8C420C0F845
:10023000C81143F23A0101607047000000C00F404E
:10024000DE8728040000000000000000000000001D
:10025000000000000000000000000000000000009E
:10026000000000000000000000000000000000008E
:10027000000000000000000000000000000000007E
:10028000000000000000000000000000000000006E
:10029000000000000000000000000000000000005E
:1002A000000000000000000000000000000000004E
:1002B000000000000000000000000000000000003E
:1002C000000000000000000000000000000000002E
:1002D000000000000000000000000000000000001E
:1002E000000000000000000000000000000000000E
:1002F00000000000000000000000000000000000FE
:1003000040F2B053C1F200031A780AB90120187004
:10031000704700BF40F2B050C1F2000008B503685A
:100320002BB140F20003C0F2000303B1984708BDAF
:1003300008B5002107480CF0BDF8042106480CF070
:10034000B9F8064804210CF0B5F8054B01221A60F3
:1003500008BD00BF58BD000060BD000068BD0000C2
:10036000BC050010024B16221A604FF0FF30704798
:100370004006001008B50CF0CFFB00BF012070470D
:1003800070B5094D06462C684CB10CF00FFAA31954
:10039000834207D8296820468E192E6070BD034C11
:1003A0002C60F2E701F026FDB805001048070010A8
:1003B0000CF056B8022801DC012070470CF066B83A
:1003C00002282DE9F0476EDD404F3B68002B61D1DC
:1003D0003F4D404C25F0010C65460CF1280615F800
:1003E00001ABC3F34F0883EA0A0313F0010F1CBFEC
:1003F00088EA04081FFA88F84FEA5A0988EA090AC5
:100400004FEA58031AF0010F1CBF63409BB24FEA3A
:10041000590883EA08095B0819F0010F1CBF634003
:100420009BB24FEA580883EA08095B0819F0010FEC
:100430001CBF63409BB24FEA580883EA08095B0877
:1004400019F0010F1CBF63409BB24FEA580883EAC2
:1004500008095B0819F0010F1CBF63409BB24FEA0B
:10046000580883EA08095B0819F0010F1CBF6340B4
:100470009BB283EA58085B0818F0010F1CBF634069
:100480009BB2B542ABD142F23F04A34212D1DCF899
:1004900028303B60033853F8200038B103681B69EB
:1004A0009847BDE8F0870020BDE8F0874FF0FF30A7
:1004B000BDE8F087084909480C686B220121E36810
:1004C00001F070FE01200CF027FB00BFB405001006
:1004D00079C6000001A0FFFF0C01001070BD0000F4
:1004E00010B50B4C82B0236814460BB9022808DD06
:1004F000224600230CF0A0F820F00040201A02B0A1
:1005000010BD01900091FFF713FF00990198EFE7EC
:10051000BC05001010B50C4C82B0236814460BB912
:10052000022809DD002322460CF0BCF80028A8BFF1
:10053000C0EB040002B010BD01900091FFF7F8FE7F
:1005400000990198EEE700BFBC0500104FF400537E
:100550004B600020704700BF30B583B04FF0FF31D3
:1005600002AC1E4844F8041D02F0E8F81C4802F0F2
:10057000E5F81C4802F0E2F81B4802F0DFF81B48DF
:1005800002F08CF81A4D21461A4802F06DFA0199D2
:10059000194802F083F82B68012123229B68174831
:1005A00001F000FE28680121C3682322144801F0ED
:1005B000F9FD144802F0C2F80C4802F06FF82B68FD
:1005C0000C492246586801F049FC0B48019902F099
:1005D00065F80D4802F0B2F8FEE700BFDCBD000090
:1005E000F8BD000014BE00002CBE000044BE000098
:1005F0000C01001068BE00006CBE000088BE000048
:10060000ACBE0000D0BE0000F4BE0000064880472B
:1006100006480047FEE7FEE7FEE7FEE7FEE7FEE7E7
:10062000FEE7FEE7FEE7FEE7CD010000C5000000A3
:100630000098904214BF01200620704738B5144638
:100640001D4600F092F928B1012008232C60EB60D0
:10065000023B2B7138BD2DE9F0419846069F0446B8
:10066000089B1546099E9F420CD1079900F07DF921
:1006700040B1757103E0012337603571B37100201B
:10068000BDE8F0812046414600F06FF90028F2D124
:10069000F5E7F8B505460C4616461F4600F065F925
:1006A00040B9032F07D823682046294632465B69A4
:1006B0009847F8BD0120F8BD034B10B50446036010
:1006C00000F038F9204610BD10BF000010B50446F8
:1006D000FFF7F2FF204600F025F8204610BD00226B
:1006E000816002600271C2607047F0B5064685B055
:1006F0000F46684610211446FFF7F1FF3368304675
:10070000394622689D696B46A8479DF8043003F07E
:100710000603062B03D1009B0120236000E000208C
:1007200005B0F0BD08B101F079BD7047FFF7FABF21
:1007300000F00600A0F10603584240EB03007047AA
:10074000401870470022816002600271427182711C
:100750007047F7B50E1E089C07DB1046FFF7F0FF49
:10076000844214BF0120062008E016F1020F04D0D5
:10077000056800942C6AA04700E00120FEBD2DE929
:10078000F0471D46036888B088461646A3F108075F
:10079000044653F8081CFFF7D3FFD7F8049005AFC1
:1007A000102182463846FFF7CDFFD9F80030484681
:1007B000CDF800A0CDF804802946029406220397C4
:1007C000DF693346B847059F3FB39DF81A90484606
:1007D000FFF7AEFF08BB9DF819A09DF818000AEAC4
:1007E0000000FFF7A5FFC0B90AF0050ABAF1040F2F
:1007F00012D0B9F1000F08D1304629463A46434697
:100800000094FFF7A6FF8DF81A009DF81A00FFF775
:100810008FFF08B1059F00E00746384608B0BDE8E5
:10082000F087F8B504460F4616461D46FFF706FF4B
:1008300038B9A0683946324603689C692B46A04700
:10084000F8BD0120F8BD2DE9F04F85B00C461946E2
:10085000054616461F46DDF83890DDF840A0DDF865
:10086000448000F082F88346B0B1002CC8F80090B4
:1008700088F8046009DB4C44A24514BF4FF0010A1C
:100880004FF0060A88F806A011E014F1020F0ED10D
:10089000012388F806300AE0D1450CD128460F998B
:1008A00000F063F838B188F80560584600E0002091
:1008B00005B0BDE8F08FA86821460F9A0368019241
:1008C0003246CDF80090CDF808A0CDF80C80DD6957
:1008D0003B46A847ECE72DE9F3410446DDF82080CC
:1008E0000D4617461E46904506D1194600F03DF8C4
:1008F00010B10620BDE8FC81A06829463A4603688D
:10090000CDF800801C6A3346A047F3E7034B10B5CF
:1009100004460360FFF7D0FE204610BD70BF000004
:1009200010B50446FFF7F2FF2046FFF7FBFE204616
:1009300010BD0000014B0360704700BFF0BF000016
:1009400000207047002070470020704710B5044613
:10095000FFF7F0FF2046FFF7E5FE204610BD406898
:1009600003782A2B08BF01307047814238B50D4605
:1009700011D0FFF7F4FF037804462A2B0DD0284648
:10098000FFF7EDFF0146204602F061F9D0F10100CA
:1009900038BF002038BD012038BD002038BDFFF72A
:1009A000E4BF032894BF00200120704700F001003D
:1009B00070474018704709B103689A581146FFF70D
:1009C000F8BF0000034B10B504460360FFF774FE48
:1009D000204610BD48C0000010B50446FFF7F2FFE6
:1009E0002046FFF79FFE204610BD406800F0010042
:1009F00070474068C0F3400070474068001270477D
:100A00002DE9F74F8B460C990546924699468A4246
:100A10003BD11946FFF7A9FF002832D135E0013C50
:100A2000A61C05EBC6063046FFF7E3FF18B33046B9
:100A3000FFF7E3FF07463046FFF7D7FF064610B142
:100A40001BF1030F17D03A4631465046FFF7B3FF6C
:100A50000C99024658F8080C0368009159461F6A21
:100A60004B46B8470746FFF79CFF20B156B147F009
:100A70000107FFB206E0A8F10808002CCFD101273A
:100A800000E006273846BDE8FE8FEC6804F1020856
:100A900005EBC808F1E72DE9F04F89B0054692460D
:100AA00003911C46FFF7CAFD002840F08D80D4F862
:100AB0000890D5F80C8019F0100F08F1020618BF45
:100AC000D5F8089005EBC60676E0494608F1FF38F0
:100AD00004A8FFF704FE08F1020305EBC30301932A
:100AE0001846FFF78AFF019B07461846FFF77DFF70
:100AF000019B83461846FFF77CFF029010B919F05E
:100B0000010F58D0BAF1000F06D03A465046594668
:100B1000FFF751FF024600E0524656F8080C0399D1
:100B200003689F6904ABB847002844D0079B082B93
:100B300005D1BBF1000F02D056F8083C07939DF891
:100B400014703846FFF72DFF28B1029B1BB927F020
:100B500002078DF81470E168C9B904AB0FCB84E8C3
:100B60000F0027793846FFF71CFF00282CD017F01C
:100B7000020F03D0AB6813F0010F06E03846FFF711
:100B800015FF08B3AB6813F0020F14D11CE0236803
:100B9000049A934203D000232360023309E0BBB9D7
:100BA0000798082804D0082902D0FFF7DEFE78B99C
:100BB0000223237108E0083EB8F1000F85D12079A7
:100BC000003818BF012000E0012009B0BDE8F08F17
:100BD00023799DF8142042EA03032371EBE72DE902
:100BE000F04F91B0074689461D9C07930692A36873
:100BF0001A9A13F0100F1CBF8368A3601C9B9A42C3
:100C000040F03E811B99FFF7B0FE002800F03881CC
:100C1000069A62712EE11A9BB9F1000F069A2360C1
:100C200022710ADB18464946FFF7C3FE1C9B83422C
:100C300014BF01200620A0711CE119F1020F40F041
:100C400019810123A37115E1B9F1000F04DB1C9890
:100C5000C9F10001FFF7ADFE4FF000080122089036
:100C6000CDF82C80099201E0CDF824A0D7F80CA093
:100C70000AF1020307EBC3030A93F0E00AF1FF3A1B
:100C8000A1680AF102050DA8FFF75CFD07EBC50599
:100C90002846FFF7B2FE83462846FFF7A6FE014628
:100CA00018B1069B43F0010600E0069E5A461A98CA
:100CB000FFF781FE089A83463AB19042099A94BFA1
:100CC00000230123934200F0C5802846FFF791FEE0
:100CD00048B919F1020F04D1A36813F0030F00F013
:100CE000BB8006F0FD060A9B49461B9A53F8080C88
:100CF000036801921C9ACDF800B002920DAA0392EB
:100D00003246DD69079BA8479DF83A5063799DF804
:100D10003920062D42EA0303637101D0022D06D16A
:100D20000D9BA57123609DF838302371A5E0D4F8A0
:100D300000B0B8F1000F10D1BBF1000F0DD10D9A2A
:100D40009DF8381022602171002A7ED0002B7CD0C3
:100D5000BB6813F0010F78D18FE0BBF1000F0BD00F
:100D60000D9A934506D123799DF8382042EA030372
:100D700023716BE032B928B90D9A002A66D0B8F118
:100D8000000F63D01846A6790593FFF70AFE059B6E
:100D900000287DD01846FFF709FE18B1A36813F0AC
:100DA000020F75D1002E08BF0126002D08BF0125B6
:100DB0001EE02846FFF7F5FD00286CD02846FFF717
:100DC000F5FD18B1BB6813F0020F64D101267DB99F
:100DD0003046FFF7E6FD002867D03046FFF7E6FD16
:100DE00028B1BB6813F0020F5FD1013500E0012587
:100DF00086EA0500C0B2FFF7D4FD8346A0B12846BD
:100E0000FFF7CFFD38B10D9B2E464FF00008236051
:100E10009DF83830237116F0020FA6712AD13046A2
:100E2000FFF7C4FD90B928E006EA05054FF0010878
:100E3000E8B2FFF7B6FD20B10223C4F800B0A371F9
:100E40001AE0206084F8068000E080466379042B75
:100E500002D111E001230B930A9A083A0A92BAF1DF
:100E6000000F7FF40BAF0B9B33B1099A002A7FF47C
:100E7000FBAE01E0002000E0404611B0BDE8F08F7D
:100E800038460799FFF771FD00287FF4C4AEDBE612
:100E9000002E9CD18DE71C9B494607985A4600932B
:100EA0001B9BFFF756FC064691E71C9A494607989C
:100EB0001B9B00920D9AFFF74CFC054698E700003B
:100EC000F8B50446384B0D4616460F4601EA0303B3
:100ED0004FEA235C6BB921F00047074356D000224C
:100EE000324B00F029FA324FBE4204460D4609DA71
:100EF00038E040F2FF739C450CD102460B4600F0EF
:100F000069F841E0284B0F4601EA03034FEA235CEE
:100F1000ACF1360CB44440F2FE739C4510DCBCF1DD
:100F2000000F06DD27F0FE4727F4700747EA0C554F
:100F30002CE01CF1350F19DA4CF250339E420ADDD9
:100F400022462B4614A1D1E9000100F035F812A386
:100F5000D3E9002316E012A1D1E9000122462B4675
:100F600000F02AF80EA3D3E900230BE00CF1360CB5
:100F700027F0FE4727F470070E4B47EA0C55204632
:100F80002946002200F0D8F904460D46204629469D
:100F9000F8BD00BFAFF300809C7500883CE4377E4D
:100FA00059F3F8C21F6EA5010000F07F0000504306
:100FB000B03CFFFF0000903C03F0004321F00042F2
:100FC00030B543EA020130BD81F0004102E000BFCC
:100FD00083F0004330B54FEA41044FEA430594EAF9
:100FE000050F08BF90EA020F1FBF54EA000C55EA34
:100FF000020C7FEA645C7FEA655C00F0E2804FEA05
:101000005454D4EB5555B8BF6D420CDD2C4480EAE6
:10101000020281EA030382EA000083EA010180EA16
:10102000020281EA0303362D88BF30BD11F0004F64
:101030004FEA01314FF4801C4CEA113102D040429A
:1010400061EB410113F0004F4FEA03334CEA1333D5
:1010500002D0524263EB430394EA050F00F0A780ED
:10106000A4F10104D5F1200E0DDB02FA0EFC22FAE8
:1010700005F2801841F1000103FA0EF2801843FADC
:1010800005F359410EE0A5F120050EF1200E012ACD
:1010900003FA0EFC28BF4CF0020C43FA05F3C0180B
:1010A00051EBE37101F0004507D54FF0000EDCF184
:1010B000000C7EEB00006EEB0101B1F5801F1BD32D
:1010C000B1F5001F0CD349085FEA30004FEA3C0C31
:1010D00004F101044FEA445212F5800F80F09A8027
:1010E000BCF1004F08BF5FEA500C50F1000041EB2B
:1010F000045141EA050130BD5FEA4C0C404141EB2F
:10110000010111F4801FA4F10104E9D191F0000F55
:1011100004BF01460020B1FA81F308BF2033A3F1D8
:101120000B03B3F120020CDA0C3208DD02F1140CCF
:10113000C2F10C0201FA0CF021FA02F10CE002F10A
:101140001402D8BFC2F1200C01FA02F120FA0CFC03
:10115000DCBF41EA0C019040E41AA2BF01EB04514C
:10116000294330BD6FEA04041F3C1CDA0C340EDC4A
:1011700004F11404C4F1200220FA04F001FA02F38D
:1011800040EA030021FA04F345EA030130BDC4F14B
:101190000C04C4F1200220FA02F001FA04F340EA40
:1011A0000300294630BD21FA04F0294630BD94F0F1
:1011B000000F83F4801306BF81F480110134013DD8
:1011C0004EE77FEA645C18BF7FEA655C29D094EA49
:1011D000050F08BF90EA020F05D054EA000C04BFC7
:1011E0001946104630BD91EA030F1EBF00210020B2
:1011F00030BD5FEA545C05D14000494128BF41F051
:10120000004130BD14F580043CBF01F5801130BDB4
:1012100001F0004545F0FE4141F470014FF000003F
:1012200030BD7FEA645C1ABF194610467FEA655CF0
:101230001CBF0B46024650EA013406BF52EA033592
:1012400091EA030F41F4002130BD00BF90F0000F80
:1012500004BF0021704730B54FF4806404F13204BC
:101260004FF000054FF0000150E700BF90F0000F75
:1012700004BF0021704730B54FF4806404F132049C
:1012800010F0004548BF40424FF000013EE700BF6C
:1012900042004FEAE2014FEA31014FEA02701FBFFC
:1012A00012F07F4393F07F4F81F06051704792F0CE
:1012B000000F14BF93F07F4F704730B54FF4607448
:1012C00001F0004521F0004120E700BF50EA010293
:1012D00008BF704730B54FF000050AE050EA010240
:1012E00008BF704730B511F0004502D5404261EBB0
:1012F00041014FF4806404F132045FEA915C3FF4F1
:10130000DCAE4FF003025FEADC0C18BF03325FEA89
:10131000DC0C18BF033202EBDC02C2F1200300FA3E
:1013200003FC20FA02F001FA03FE40EA0E0021FA63
:1013300002F11444C1E600BF70B54FF0FF0C4CF44D
:10134000E06C1CEA11541DBF1CEA135594EA0C0F03
:1013500095EA0C0F00F0DEF82C4481EA030621EA3E
:101360004C5123EA4C5350EA013518BF52EA033579
:1013700041F4801143F4801338D0A0FB02CE4FF02B
:101380000005E1FB02E506F00042E0FB03E54FF05B
:101390000006E1FB03569CF0000F18BF4EF0010E53
:1013A000A4F1FF04B6F5007F64F5407404D25FEA4F
:1013B0004E0E6D4146EB060642EAC62141EA555102
:1013C0004FEAC52040EA5E504FEACE2EB4F1FD0C44
:1013D00088BFBCF5E06F1ED8BEF1004F08BF5FEAC2
:1013E000500E50F1000041EB045170BD06F0004674
:1013F00046EA010140EA020081EA0301B4EB5C0421
:10140000C2BFD4EB0C0541EA045170BD41F4801118
:101410004FF0000E013C00F3AB8014F1360FDEBF3D
:10142000002001F0004170BDC4F10004203C35DA19
:101430000C341BDC04F11404C4F1200500FA05F39C
:1014400020FA04F001FA05F240EA020001F000423D
:1014500021F0004110EBD37021FA04F642EB0601B3
:101460005EEA430E08BF20EAD37070BDC4F10C04DD
:10147000C4F1200500FA04F320FA05F001FA04F2A1
:1014800040EA020001F0004110EBD37041F100018D
:101490005EEA430E08BF20EAD37070BDC4F1200598
:1014A00000FA05F24EEA020E20FA04F301FA05F200
:1014B00043EA020321FA04F001F0004121FA04F2A8
:1014C00020EA020000EBD3705EEA430E08BF20EA78
:1014D000D37070BD94F0000F0FD101F000464000B2
:1014E00041EB010111F4801F08BF013CF7D041EA34
:1014F000060195F0000F18BF704703F00046520038
:1015000043EB030313F4801F08BF013DF7D043EA08
:101510000603704794EA0C0F0CEA135518BF95EABE
:101520000C0F0CD050EA410618BF52EA4306D1D145
:1015300081EA030101F000414FF0000070BD50EA64
:10154000410606BF1046194652EA430619D094EAEE
:101550000C0F02D150EA013613D195EA0C0F05D1D8
:1015600052EA03361CBF104619460AD181EA03012C
:1015700001F0004141F0FE4141F470014FF00000E4
:1015800070BD41F0FE4141F4780170BD70B54FF07F
:10159000FF0C4CF4E06C1CEA11541DBF1CEA1355FF
:1015A00094EA0C0F95EA0C0F00F0A7F8A4EB0504E1
:1015B00081EA030E52EA03354FEA013100F08880D8
:1015C0004FEA03334FF0805545EA131343EA1263A1
:1015D0004FEA022245EA111545EA10654FEA002656
:1015E0000EF000419D4208BF964244F1FD0404F50F
:1015F000407402D25B084FEA3202B61A65EB03056B
:101600005B084FEA32024FF480104FF4002CB6EB27
:10161000020E75EB030E22BFB61A754640EA0C00A7
:101620005B084FEA3202B6EB020E75EB030E22BFE7
:10163000B61A754640EA5C005B084FEA3202B6EB28
:10164000020E75EB030E22BFB61A754640EA9C00E7
:101650005B084FEA3202B6EB020E75EB030E22BFB7
:10166000B61A754640EADC0055EA060E18D04FEA75
:10167000051545EA16754FEA06164FEAC30343EA15
:1016800052734FEAC2025FEA1C1CC0D111F4801FE2
:101690000BD141EA00014FF000004FF0004CB6E7DB
:1016A00011F4801F04BF01430020B4F1FD0C88BF7A
:1016B000BCF5E06F3FF6AFAEB5EB030C04BFB6EB85
:1016C000020C5FEA500C50F1000041EB045170BD78
:1016D0000EF0004E4EEA113114EB5C04C2BFD4EBA5
:1016E0000C0541EA045170BD41F480114FF0000E29
:1016F000013C90E645EA060E8DE60CEA135594EAA5
:101700000C0F08BF95EA0C0F3FF43BAF94EA0C0FA7
:101710000AD150EA01347FF434AF95EA0C0F7FF41C
:1017200025AF104619462CE795EA0C0F06D152EA70
:1017300003353FF4FDAE1046194622E750EA410654
:1017400018BF52EA43067FF4C5AE50EA41047FF465
:101750000DAF52EA43057FF4EBAE12E74FEA4102C8
:1017600012F5001215D211D56FF47873B3EB6252F3
:1017700012D94FEAC12343F0004343EA505311F01A
:10178000004F23FA02F018BF404270474FF00000AC
:10179000704750EA013005D111F0004008BF6FF0EA
:1017A000004070474FF00000704700BF4FEA410211
:1017B000B2F1E04324BFB3F5001CDCF1FE5C0DD9AF
:1017C00001F0004C4FEAC0024CEA5070B2F1004FF9
:1017D00040EB830008BF20F00100704711F0804FFC
:1017E00021D113F13872BCBF01F00040704741F4C1
:1017F00080114FEA5252C2F11802C2F1200C10FAC5
:101800000CF320FA02F018BF40F001004FEAC123A8
:101810004FEAD32303FA0CFC40EA0C0023FA02F34C
:101820004FEA4303CCE77FEA625307D150EA013322
:101830001EBF4FF0FE4040F44000704701F00040F2
:1018400040F0FE4040F40000704700BF80F00040D0
:1018500002E000BF81F0004142001FBF5FEA410388
:1018600092EA030F7FEA226C7FEA236C6AD04FEA88
:101870001262D2EB1363C1BFD218414048404140CD
:10188000B8BF5B42192B88BF704710F0004F40F47F
:10189000000020F07F4018BF404211F0004F41F49B
:1018A000000121F07F4118BF494292EA030F3FD067
:1018B000A2F1010241FA03FC10EB0C00C3F120037A
:1018C00001FA03F100F0004302D5494260EB400009
:1018D000B0F5000F13D3B0F1807F06D340084FEA74
:1018E000310102F10102FE2A51D2B1F1004F40EB69
:1018F000C25008BF20F0010040EA030070474900D1
:1019000040EB000010F4000FA2F10102EDD1B0FA9B
:1019100080FCACF1080CB2EB0C0200FA0CF0AABF90
:1019200000EBC25052421843BCBFD040184370472E
:1019300092F0000F81F4000106BF80F40000013234
:10194000013BB5E74FEA41037FEA226C18BF7FEA0B
:10195000236C21D092EA030F04D092F0000F08BF4D
:101960000846704790EA010F1CBF0020704712F034
:101970007F4F04D1400028BF40F00040704712F173
:1019800000723CBF00F50000704700F0004343F0D8
:10199000FE4040F4000070477FEA226216BF08460E
:1019A0007FEA23630146420206BF5FEA412390EAD1
:1019B000010F40F4800070474FF0000304E000BFC7
:1019C00010F0004348BF40425FEA000C08BF704778
:1019D00043F0964301464FF000001CE050EA01023C
:1019E00008BF70474FF000030AE000BF50EA010251
:1019F00008BF704711F0004302D5404261EB41013E
:101A00005FEA010C02BF84460146002043F0B64362
:101A100008BFA3F18053A3F50003BCFA8CF2083A87
:101A2000A3EBC25310DB01FA02FC634400FA02FC90
:101A3000C2F12002BCF1004F20FA02F243EB020097
:101A400008BF20F00100704702F1200201FA02FCF9
:101A5000C2F1200250EA4C0021FA02F243EB0200EC
:101A600008BF20EADC7070474FF0FF0C1CEAD05230
:101A70001EBF1CEAD15392EA0C0F93EA0C0F6FD0F1
:101A80001A4480EA010C400218BF5FEA41211ED0CF
:101A90004FF0006343EA501043EA5111A0FB0131BB
:101AA0000CF00040B1F5000F3EBF490041EAD37190
:101AB0005B0040EA010062F17F02FD2A1DD8B3F10C
:101AC000004F40EBC25008BF20F00100704790F07B
:101AD000000F0CF0004C08BF49024CEA502040EACD
:101AE00051207F3AC2BFD2F1FF0340EAC250704793
:101AF00040F400004FF00003013A5DDC12F1190FD1
:101B0000DCBF00F000407047C2F10002410021FA42
:101B100002F1C2F1200200FA02FC5FEA310040F15A
:101B2000000053EA4C0308BF20EADC70704792F0D3
:101B3000000F00F0004C02BF400010F4000F013A0B
:101B4000F9D040EA0C0093F0000F01F0004C02BF06
:101B5000490011F4000F013BF9D041EA0C018FE775
:101B60000CEAD15392EA0C0F18BF93EA0C0F0AD07B
:101B700030F0004C18BF31F0004CD8D180EA0100A1
:101B800000F00040704790F0000F17BF90F0004F3A
:101B9000084691F0000F91F0004F14D092EA0C0F1C
:101BA00001D142020FD193EA0C0F03D14B0218BFAF
:101BB000084608D180EA010000F0004040F0FE40F5
:101BC00040F40000704740F0FE4040F44000704791
:101BD0004FF0FF0C1CEAD0521EBF1CEAD15392EA10
:101BE0000C0F93EA0C0F69D0A2EB030280EA010C00
:101BF00049024FEA402037D04FF0805343EA111199
:101C000043EA10130CF000408B4238BF5B0042F1F6
:101C10007D024FF4000C8B4224BF5B1A40EA0C009B
:101C2000B3EB510F24BFA3EB510340EA5C00B3EBCD
:101C3000910F24BFA3EB910340EA9C00B3EBD10FBB
:101C400024BFA3EBD10340EADC001B0118BF5FEA0D
:101C50001C1CE0D1FD2A3FF650AF8B4240EBC25036
:101C600008BF20F0010070470CF0004C4CEA5020F7
:101C70007F32C2BFD2F1FF0340EAC250704740F446
:101C800000004FF00003013A37E792F0000F00F038
:101C9000004C02BF400010F4000F013AF9D040EAB6
:101CA0000C0093F0000F01F0004C02BF490011F44A
:101CB000000F013BF9D041EA0C0195E70CEAD15342
:101CC00092EA0C0F08D142027FF47DAF93EA0C0F29
:101CD0007FF470AF084676E793EA0C0F04D14B020D
:101CE0003FF44CAF08466EE730F0004C18BF31F0BF
:101CF000004CCAD130F000427FF45CAF31F00043B9
:101D00007FF43CAF5FE700BF4FF0FF3C06E000BF51
:101D10004FF0010C02E000BF4FF0010C4DF804CD74
:101D20004FEA40024FEA41037FEA226C18BF7FEA84
:101D3000236C11D001B052EA530C18BF90EA010F86
:101D400058BFB2EB030088BFC81738BF6FEAE17015
:101D500018BF40F0010070477FEA226C02D15FEAB1
:101D6000402C05D17FEA236CE4D15FEA412CE1D01D
:101D70005DF8040B704700BF844608466146FFE7E4
:101D80000FB5FFF7C9FF002848BF10F1000F0FBDC6
:101D90004DF808EDFFF7F4FF0CBF012000205DF8BF
:101DA00008FB00BF4DF808EDFFF7EAFF34BF012044
:101DB00000205DF808FB00BF4DF808EDFFF7E0FFDD
:101DC00094BF012000205DF808FB00BF4DF808ED2E
:101DD000FFF7D2FF94BF012000205DF808FB00BF91
:101DE0004DF808EDFFF7C8FF34BF012000205DF873
:101DF00008FB00BF08B5062000F078FE0120FEF7C2
:101E0000B9FA08B50346084611461A4604F028FDFB
:101E1000054B064A1B68596811609968044A1160AD
:101E2000DA68044B1A6070470C0100103406001089
:101E3000380600103C0600100EB403B503AB014693
:101E4000054853F8042B0068019302F097FDBDE8A4
:101E50000C4003B0704700BF0C0100100EB403B576
:101E600003AB0146054853F8042B0068019303F0C7
:101E70006BFEBDE80C4003B0704700BF0C010010C2
:101E80002DE9F74F064690680C469246002800F070
:101E90003F818B8913F0080F01D00B695BB9304685
:101EA000214604F053FC30B1A38943F04003A381E1
:101EB000092333602AE1B4F80C90DAF8008019F0B5
:101EC000020724D00027B94605E0D8F80070D8F8FA
:101ED000049008F10808B9F1000FF6D0B9F1800FAD
:101EE00034BF4B468023A56A3046216A3A46A8474C
:101EF000031E40F30781DAF80800C01ACAF8080088
:101F0000002800F00581FF18C3EB0909E3E719F089
:101F1000010903D00197B94600979BE04D4605E0C3
:101F2000D8F80090D8F8045008F10808002DF7D030
:101F3000A389A76813F4007F50D0BD4240D313F4A7
:101F4000906F3BD021692268521A00926269009812
:101F500002EB420B421C52190BEBDB7B4FEA6B0B83
:101F6000934538BF934613F4806F10D030465946DE
:101F700000F05CF90746A0B12169009A00F068FB07
:101F8000A38923F4906343F08003A3810CE03046DF
:101F90005A4600F0DBFB074630B93046216905F0B0
:101FA00049FD0C233360ADE0009A2761BF1827601C
:101FB0002F46C2EB0B03C4F814B0A360BD4200D29D
:101FC0002F463A462068494600F04DFBA368DB1BCC
:101FD000A3602368DF1927602F4628E02068236963
:101FE00098420ED9BD420CD949463A4600F03BFB17
:101FF000236830462146DB19236005F0E1FAB0B1D1
:1020000080E063699D4207D3A76A3046216A4A4649
:10201000B847071E0BDC75E049462A4600F023FB53
:10202000A3682F465B1BA36023685B192360DAF863
:102030000800C01BCAF80800002869D0B944ED1B8D
:1020400074E7D8F804300020D8F8009008F10808A8
:1020500001900093009A002AF3D0019B73B948467F
:102060000A2100F0E7FA28B1471C0120C9EB070755
:10207000019003E0009A01230193571CDDF800B0A2
:10208000206822695F4538BFBB46A56890426369F6
:102090000FD95D19AB450CDD49462A4600F0E3FA3D
:1020A0002368304621465B19236005F089FAB0B1F8
:1020B00028E09B4507DBA56A3046216A4A46A847C7
:1020C000051E0CDC1EE049465A4600F0CCFAA36817
:1020D0005D46CBEB0303A36023685B4423607F1B57
:1020E00005D13046214605F06BFA58B90197DAF868
:1020F0000800401BCAF8080050B10098A944401BD2
:102100000090A7E7A38943F04003A3814FF0FF307D
:10211000BDE8FE8F2DE9F04186B002FB03F61D46B7
:10212000144604AB0C9F804601930123049105964D
:102130000396029318B183690BB905F04BFB164B5C
:102140009F4202D1D8F804700AE0144B9F4202D19A
:10215000D8F8087004E0124B9F4208BFD8F80C7002
:10216000BB8913F4005F06D143F40053BB817B6E3F
:1021700023F400537B664046394601AAFFF780FEF0
:1021800028B103982146301A08F02EFF054628464C
:1021900006B0BDE8F08100BF80C20000A0C2000010
:1021A000C0C2000073B5064600930D46044B1446AA
:1021B00031462A4618682346FFF7ACFF7CBD00BFB6
:1021C0000C01001070B500240C4D0D4E761BB6109E
:1021D00003E055F8043B01349847B442F9D1094D66
:1021E0000AF02CF9084E0024761BB61003E055F8CF
:1021F000043B01349847B442F9D170BD48C4000093
:102200004CC400004CC4000050C40000024B014606
:10221000186800F00BB800BF0C010010024B01461B
:10222000186805F007BC00BF0C0100102DE9F74F3E
:1022300001F10B04162C074603D934F0070401D52D
:1022400002E010248C4202D20C233B60D6E13846D7
:1022500000F021FAB4F5FC7F974A10D2E10802EBB6
:10226000C102D668964204D106F1080376699E42FF
:1022700003D0736823F003032FE0023136E0610AD4
:1022800001D1E1081BE0042902D8A109383116E088
:10229000142901D85B3112E0542902D8210B6E3188
:1022A0000DE0B1F5AA7F02D8E10B773107E040F2EB
:1022B0005453994202D8A10C7C3100E07E2102EBFC
:1022C000C102D6680FE0736823F00303181B0F28C0
:1022D00001DD013909E0002804DBF268B168CA6059
:1022E000916020E0F6689642EDD10131724D05F122
:1022F00008029668964277D0736823F00303181B90
:102300000F280CDD331944F00104D360936074602E
:10231000DA609A6040F0010218505A6079E10028B2
:10232000D260926005DBF3185A6842F001025A60ED
:102330006FE1B3F5007F0ED2DB084FF0010E98106D
:1023400005EBC3030EFA00F0D5F804E04EEA0000F6
:102350006860986844E04FEA532EBEF1040F04D839
:102360004FEA931E0EF1380E1FE0BEF1140F02D893
:102370000EF15B0E19E0BEF1540F04D84FEA133E84
:102380000EF16E0E11E0BEF5AA7F04D84FEAD33EDF
:102390000EF1770E09E040F25450864596BF4FEAA1
:1023A000934E4FF07E0E0EF17C0E05EBCE0CDCF85A
:1023B000080060450DD101234FEAAE0E03FA0EFE70
:1023C0006B6843EA0E036B60034609E08068604572
:1023D00005D0D0F804E02EF0030E7345F6D3C368A1
:1023E000F360B0609E60C66001208B1010FA03F3AA
:1023F0006868834262D8034205D121F003015B0083
:1024000004310342FBD005EBC1098E46CC46DCF813
:102410000C602AE0706820F00308C4EB08000F2865
:1024200011DD3319F16844F00104746056F8084F67
:102430001850E1608C60D3609360DA609A6040F07D
:1024400001025A600CE000280EDB06EB08035A6814
:1024500042F001025A60F36856F8082FD3609A6080
:10246000384600F019F9D8E0F6686645D2D10EF189
:10247000010E1EF0030F01D1484602E00CF1080CDA
:10248000C5E711F0030F04D1696821EA030169600F
:1024900006E0064656F80809B04201D10139F0E7D6
:1024A00068685B00834209D843B1714601E004319A
:1024B0005B000342A7D1FAE710010010D5F80880AD
:1024C000D8F8043023F00309A14504D3C4EB090371
:1024D0000F2B00F39580524B38461B6803F1100A0E
:1024E000504BA2441A680193B2F1FF3F1CBF0AF19E
:1024F0007F0A2AF07F0A514600F0A4FA019BB0F14E
:10250000FF3F06466ED008EB0902904201D2A84573
:1025100068D1454996428B4608685044086008D106
:1025200016F07F0F05D1AB68D14449F001025A6023
:102530004CE01B68B3F1FF3F02D13A4B1E6003E051
:102540003018821ACBF8002016F0070338461CBF5B
:10255000C3F10803F6188033B2440AF07F0ACAEBCD
:10256000030A514600F06EFADBF80030AE60B0F1BD
:10257000FF3F04BF30464FF0000A801BA84550447F
:10258000534440F00100CBF8003070601ED0B9F128
:102590000F0F02D80123736024E0D8F80430A9F1AA
:1025A0000C0929F00709052203F00103B9F10F0F07
:1025B00049EA0303C8F8043008EB09035A609A603B
:1025C00004D9384608F1080105F034FA174ADBF857
:1025D000003011688B4288BF1360154A11688B4226
:1025E00088BF1360AB685B6823F00303A34202D388
:1025F0001B1B0F2B04DC384600F04EF800260CE0C5
:10260000AE6844F0010243F001033419AC6072601B
:1026100063603846083600F03FF83046BDE8FE8F6C
:10262000080600101C0500100C060010040600101F
:102630000006001010B5C9B203E010F8014B8C423F
:1026400004D0013A0346F8D2002010BD184610BD50
:1026500010B58218034603E011F8014B03F8014B53
:102660009342F9D310BD814210B5044610D28B18A5
:1026700098420DD21946831803E011F8014D03F872
:10268000014D013AF9D210BD11F8013B04F8013BAC
:10269000013AF9D210BD7047704700000FB40A4BE1
:1026A00013B51C6824B1A36913B9204605F092F84C
:1026B00005AB2046A168049A019302F05FF9BDE8DA
:1026C0001C4004B0704700BF0C01001030B5044638
:1026D00089B008460D4600F0C5FA164B01950393E4
:1026E000012304930290C01801AB079005930223C5
:1026F000069324B1A36913B9204605F06BF80E4B7D
:102700001B689B689A8912F4005F06D142F400525C
:102710009A815A6E22F400525A662046A16805AA90
:10272000FFF7AEFB00280CBF0A204FF0FF3009B0C6
:1027300030BD00BF70C100000C010010024B01460B
:102740001868FFF7C3BF00BF0C0100102DE9F74F59
:10275000814617460E4629B9114603B0BDE8F04F31
:10276000FFF764BD07F10B05FFF795FFA6F1080A17
:10277000162DDAF8042003D935F0070501D502E05B
:102780001025BD4204D20C230027C9F8003055E1C2
:1027900022F0030BAB4580F226819F4B0AEB0B0125
:1027A000D3F808E0714507D0486820F00100081808
:1027B000406810F0010F25D14868714520F00300F2
:1027C00000EB0B0817D105F11004A0451CDB0AEB48
:1027D0000502C5EB08089A6048F0010353604846BB
:1027E000DAF80430374603F001031D43CAF80450F9
:1027F000FFF752FF22E1A84506DBCB688A68D36069
:102800009A60F1E00020014612F0010F40F09C8038
:1028100056F8084CC4EB0A04626822F0030200294F
:1028200057D0714502EB0B084BD1804405F11001E4
:1028300088454EDB2746E26857F8081FCA6091605A
:10284000ABF10402242A29D8132A39461BD9304671
:1028500050F8041BA1607168061D1B2AE16004F199
:10286000100110D94168301D216171680836242A91
:10287000616104F1180106D1426804F12001A261EE
:1028800072680836E26130460A4650F804EB42F8B6
:1028900004EB76684E604168516005E03846314689
:1028A0000193FFF7E0FE019B6219C5EB08089A60EF
:1028B00048F001035360636803F001031D43656042
:1028C0008DE08044A84504DBCB688A68D3609A60B9
:1028D00003E002EB0B08A84536DB2046E36850F81E
:1028E000082FD3609A60ABF10402242A28D8132A57
:1028F0001BD9334604F1100053F8041BA160716822
:102900001E1D1B2AE16010D95B6804F118002361C9
:10291000331D71680836242A616106D15B6804F1B1
:102920002000A36173680836E3613246034652F81B
:10293000041B43F8041B7168416052685A6054E0FC
:102940003146FFF790FE50E039464846FFF76EFCEF
:102950000746002843D0DAF80420A0F1080322F04B
:1029600001025244934205D150F8043C23F003087D
:10297000D84439E0ABF10402242A29D8132A31467D
:1029800003461AD9344654F8043B211D40F8043B51
:1029900073687B60031D1B2A0FD9646844600C1D9B
:1029A0004968181D59600833211D242A05D1626821
:1029B00042604A6808315A60083308461A4650F89F
:1029C000044B42F8044B496859604368536002E085
:1029D0003146FFF748FE4846314605F02BF8484699
:1029E000FFF75AFE2AE0D8465446C5EB0803626852
:1029F0000F2B13D9611902F00102154343F00102B4
:102A0000CB1865604A6048465A68083142F00102B6
:102A10005A6005F00FF80CE01001001004EB0803F9
:102A200002F0010248EA020262605A6842F00102C2
:102A30005A60484604F10807FFF72EFE384603B0F7
:102A4000BDE8F08F38B50546064C084600232360E4
:102A5000FDF796FCB0F1FF3F02D1236803B12B6074
:102A600038BD00BF400600100FB413B5084C2068F5
:102A700018B183690BB904F0ADFE206805AB049A68
:102A80000193416803F060F8BDE81C4004B0704752
:102A90000C0100101F2970B505460C4604D91623F9
:102AA00003604FF0FF3070BD426C12B152F821301C
:102AB0004BB9284600F034F8224601462846BDE8C6
:102AC000704000F01BB8012B0DD0B3F1FF3F03D1D4
:102AD00017330360012070BD0025084642F82150DD
:102AE0009847284670BD002070BD0000024B01468B
:102AF0001868FFF7CFBF00BF0C01001038B50546BE
:102B0000064C0846114600232360FDF72BFCB0F16C
:102B1000FF3F02D1236803B12B6038BD400600108F
:102B2000FDF72CBC0EB44FF4027100B59CB01DAB88
:102B3000ADF810106FF00041039106914FF0FF3196
:102B4000ADF81210084953F8042B0190059008685D
:102B500001A91B9300F0A4F8019B00221A701CB07D
:102B60005DF804EB03B070470C0100100EB44FF495
:102B7000017230B59CB01FACADF8102054F8045B66
:102B80000190059000F06EF80B4B01A92A461B94AA
:102B90000A9300230E9313934FF0FF33ADF81230D6
:102BA000064B029006901868234601F0F9F81CB015
:102BB000BDE8304003B07047E32B00000C0100106B
:102BC00010B50C46B1F90E1005F01EFD002803DB10
:102BD000636D1B18636510BDA38923F48053A38123
:102BE00010BD002070472DE9F0411D468B89074636
:102BF0000C46164613F4807F05D0B1F90E10002262
:102C0000022305F039F8A3893846B4F90E1032468C
:102C100023F48053A3812B46BDE8F04103F082BD2D
:102C200010B50C46B1F90E1005F026F8A389B0F1E5
:102C3000FF3F03D123F48053A38110BD43F480539D
:102C40006065A38110BDB1F90E1003F00FBE10F83E
:102C5000012B11F8013B012A28BF9A42F7D0A2EBC1
:102C6000030070470346C04313F8012B002AFBD131
:102C70001818704770B51AB90FE0013A09D043B17E
:102C80000C4605462AB110F8013B11F8016BB3421E
:102C9000F3D028782378C01A70BD104670BD0000AC
:102CA0002DE9F04FBFB00F461E461546804604F092
:102CB000DFFF00681390FFF7D5FFBB8913F0800F8B
:102CC000129011D03B697BB940464021FFF7AEFA24
:102CD0003860386130B90C230138C8F800300F90E3
:102CE00001F056B840237B61002319AC359333942F
:102CF00034930C950B9310931193169315930F9394
:102D00000C9B1D4613F8012B0AB1252AF9D10C9909
:102D1000B5EB010918D0359B2160C4F804904B44F1
:102D20003593349B01333493072B01DC083408E0DE
:102D30004046394633AA06F0EBFD002841F01F80DB
:102D400019AC0F9A4A440F922B78002B01F0108097
:102D5000002301350C951D468DF8F7304FF0FF3CF0
:102D60000D932A460C9B05E00E4603E01E464FF0ED
:102D7000FF3C0B4613F8019BA9F12001582900F2F2
:102D80001284DFE811F05900100410045F001004F1
:102D90001004100410041004100462006B001004EE
:102DA00068006F0010049200950095009500950052
:102DB00095009500950095009500100410041004EE
:102DC0001004100410041004100410041004C000B7
:102DD000FD001004FD001004100410041004A400F1
:102DE00010041004A80210041004100410041004AD
:102DF00013031004100445031004100410041004FD
:102E0000100410041004100410041004B500C500D0
:102E1000FD00FD00FD00A700C50010041004AA007D
:102E200010048A02AD02D902B2001004ED021004AF
:102E300018031004100440039DF8F710002999D1DD
:102E400020310CE045F0010594E73268311D002A7D
:102E50008ADA52420E4645F004058BE72B218DF8A5
:102E6000F71087E7194611F8019BB9F12A0F03D033
:102E700019464FF0000C10E0D6F800C0331DBCF12D
:102E8000000FFFF673AF1E460B4673E74FF00A09BB
:102E900009FB0C0C91F801901946A9F1300001339F
:102EA0000928F3D94CEAEC7C66E745F0800561E738
:102EB000194600220A23A9F1300903FB029211F8F6
:102EC000019BA9F130000B460928F3D954E745F0DE
:102ED00008054FE745F040054CE719786C2901D10A
:102EE000013302E045F0100544E745F0200541E7D5
:102EF0000C934FF0000C336804360D928DF8F7C038
:102F00008DF8A4305BE30C9345F010050D9201E0C1
:102F10000C930D9215F0200F09D0073626F0070309
:102F200003F10806D3E90001CDE9080116E015F028
:102F3000100F06F1040301D0326809E015F0400FCC
:102F4000326805D012B21046D117CDE9080104E06D
:102F500092464FEAE27BCDE908AB1E46DDE9080167
:102F6000002871F1000180F28E82DDE908235242CF
:102F700063EB4303CDE908232D238DF8F73082E27C
:102F80000C93F31D15F0080F23F007030D9203F1C6
:102F9000080614BF18681968CDF8389014BF10904F
:102FA00010915B681098CDF818C01193119905F035
:102FB000D5FBDDF818C0012819D11098002211990D
:102FC000002308F007FB10B12D238DF8F730A94B33
:102FD0004FF0000CA84A25F080054FF0030BCDF808
:102FE00020C0B9F1470FCCBF92469A46FDE2109837
:102FF0001199CDF818C005F0B1FBDDF818C058B92B
:103000009E4B25F080059E4A4FF0030BB9F1470F08
:10301000CCBF92469A46DDE2BCF1FF3F0BD0B9F13E
:10302000670F02D0B9F1470F07D1BCF1000F08BFFD
:103030004FF0010C01E04FF0060C119B45F4807538
:10304000002B05DA03F100422D230B92149303E0C9
:103050001198002114910B90B9F1660F0BD0B9F1C2
:10306000460F08D0B9F1650F02D0B9F1450F05D16F
:103070000CF1010B03E0E346032301E0E3460223E6
:10308000009340463CAB109A02933BAB03933AABA0
:1030900004930B9BCDF818C0CDF804B003F08CFC62
:1030A000B9F1670FDDF818C0824602D0B9F1470FB9
:1030B00002D115F0010F34D0B9F1660F0AEB0B0203
:1030C000089202D0B9F1460F15D19AF80030302B92
:1030D0000DD1109800220B990023CDF818C008F0EC
:1030E0006FFADDF818C010B9CBF101033C930898D2
:1030F0003C9BC0180890109800220B990023CDF833
:1031000018C008F05DFADDF818C030B108993A919E
:1031100003E0302203F8012B3A933A9B089A93423A
:10312000F7D33A9BB9F1670FCAEB03030B933C9BB0
:1031300002D0B9F1470F08D113F1030F9B4601DB11
:10314000634575DDA9F1020902E0B9F1660F59D0B6
:1031500003F1FF3B8DF8E090BBF1000FCDF8F0B02C
:1031600003DACBF1000B2D2300E02B23BBF1090F79
:103170008DF8E1302FDD0DF1DE035246CC46A2463C
:103180001C4658460A210792A146CDF818C008F0FF
:10319000B1F95846303104F801190A2108F060F8F5
:1031A000079ADDF818C009288346EADC544692469F
:1031B0004A4600F1300BE1460DF1E20302F801BC92
:1031C000013A03E012F8011B03F8011B0DF1DF01C6
:1031D0008A42F7D306E030238DF8E2309B4439ABC6
:1031E0008DF8E3B038AA9A1A0B9B1592012B02EBCB
:1031F000030B02DC15F0010344D000200BF1010B9E
:10320000089040E0002B9B4609DDBCF1000F02D185
:1032100015F0010F28D003F1010BE34424E0BCF1C9
:10322000000F02D115F0010F19D00CF1020B1BE0B9
:103230000B998B4207DB15F0010F13D0672203F1C6
:10324000010B0E9210E0002BD8BFC3F1020B0B9BB9
:10325000C8BF4FF0010B67209B440E9004E04FF075
:10326000010B01E067210E913C9ADDF8389008923D
:1032700009E000BF88C000008CC0000090C00000C2
:1032800094C000000893149B002B00F09F812D2315
:103290004FF0000C8DF8F730A7E115F0200F0C93DC
:1032A00006F1040106D00F9D30682A46EB17C0E9ED
:1032B00000230EE015F0100F03D033680F9818604C
:1032C00007E015F0400F336815BF0F9A0F9D1A8065
:1032D0001D600E4614E50C9345F010050D9201E0BB
:1032E0000C930D9215F020020AD00736002226F02A
:1032F000070303F10806D3E900ABCDE908ABBEE054
:1033000015F0100106F1040302D031688A460DE081
:1033100015F04002306808D080B24FF0000B8246B2
:103320001E46CDE908AB0A46A9E082464FF0000BE5
:103330001E46CDE908ABA2E00C93002133684FF0A4
:1033400078090D9245F002051846CDE90801A34918
:1033500030238DF8F59004368DF8F43016918DE019
:103360000C9300230D92324604369C458DF8F730BD
:10337000D2F800A013DB1946624650460793CDF8F9
:1033800018C0FFF757F9079BDDF818C0002800F0B8
:103390002081CAEB000BE34500F3248123E1504672
:1033A0000793FFF75FFC079B83461CE10C9345F0F6
:1033B00010050D9201E00C930D9215F0200F09D02D
:1033C000073626F0070303F10806D3E900ABCDE981
:1033D00008AB16E015F0100F06F1040301D03268B7
:1033E0000AE015F0400F326806D092B24FF0000BA1
:1033F0009246CDE908AB03E010460021CDE9080173
:103400001E4601223BE075490C930D92169103E094
:103410000D92734A0C93169215F0200F09D00736BF
:1034200026F0070303F10806D3E900ABCDE908ABAA
:1034300016E015F0100F06F1040301D032680AE01F
:1034400015F0400F326806D092B24FF0000B924652
:10345000CDE908AB03E010460021CDE908011E4686
:1034600015F0010F0AD0DDE90823134306D045F01B
:10347000020530238DF8F5908DF8F43002220023F8
:103480008DF8F73000E00122DDE908ABBCF1000F58
:10349000A8BF25F080055AEA0B0B02D1BCF1000F42
:1034A0006ED0012A23D0022A51D00DF1CB03089807
:1034B0009A4600F0070230321A700899013BDDF895
:1034C00024B0C80840EA4B714FEADB0B0891CDF8F5
:1034D00024B0DDE908010143E9D115F0010F5BD00B
:1034E000302A59D09A4630238AF8003054E0DDE97A
:1034F00008230A2A73F1000308D2DDF820A00AF19C
:1035000030030DF1CB0A8DF8CB3045E00DF1CB0B3C
:1035100023465C46CB469946DDE908010A22002392
:10352000CDF818C008F09EF8A2460023303204F807
:103530000129DDE908010A2208F094F8DDF818C035
:10354000CDE908010843E7D14C46D94624E00DF106
:10355000CB0308999A46DDF858B001F00F021BF82A
:10356000022003F801290899099A080940EA027122
:10357000120908910992DDE908010143E9D10BE044
:1035800042B915F0010F05D00DF1F80A30230AF801
:103590002D3D01E00DF1CC0A0DF1CC0B0022CAEB60
:1035A0000B0B089221E00C930D92B9F1000F00F083
:1035B000DF834FF0000C8DF8A4908DF8F7C04FF02A
:1035C000010BCDF820C00DF1A40A0EE0DDF850C0CB
:1035D0000BE0E3468446089007E000BFA9C0000066
:1035E00098C00000E3469C460893E345ACBF5B46A9
:1035F00063460E939DF8F73013B10E9801300E908C
:1036000015F00201149102D00E9A02320E9215F0BA
:103610008403179346D10D980E99431A002B1BDC97
:1036200040E01A60102289185A60349A35910132AC
:103630003492072A01DC08330CE04046394633AAAD
:10364000CDF818C006F064F9DDF818C0002840F085
:10365000968319AB103D04E02A461D4623464C468E
:103660009146102D3599934ADBDC4846A1461C460D
:103670002B4605466360CB1822603593349B01339B
:103680003493072B01DC08340CE04046394633AA5A
:10369000CDF818C006F03CF9DDF818C0002840F05D
:1036A0006E8319AC9DF8F730DBB10DF1F7032360A1
:1036B00001236360359B01333593349B013334938D
:1036C000072B01DC08340CE04046394633AACDF81C
:1036D00018C006F01DF9DDF818C0002840F04F832F
:1036E00019AC149AD2B13DAB236002236360359BC1
:1036F00002333593349B01333493072B01DC0834B8
:103700000CE04046394633AACDF818C006F000F95F
:10371000DDF818C0002840F0328319AC179B802BCD
:1037200046D10D980E99431A002B1BDC40E01A601D
:10373000102289185A60349A359101323492072A3E
:1037400001DC08330CE04046394633AACDF818C0F6
:1037500006F0DEF8DDF818C0002840F0108319AB41
:10376000103D04E02A461D4623464C469146102D46
:103770003599514ADBDC4846A1461C462B46054696
:103780006360CB1822603593349B01333493072B4D
:1037900001DC08340CE04046394633AACDF818C0A5
:1037A00006F0B6F8DDF818C0002840F0E88219AC41
:1037B000CBEB0C03002B17DC38E01A6010228918C1
:1037C0005A60349A359101323492072A01DC083369
:1037D00008E04046394633AA06F09AF8002840F03F
:1037E000CE8219AB103D04E02A461D4623464C46C6
:1037F0009146102D3599304ADFDC4846A1461C46DB
:103800002B4605466360CB1822603593349B013309
:103810003493072B01DC083408E04046394633AACC
:1038200006F076F8002840F0AA8219AC15F4807FE3
:1038300006D1359BC4F800A0C4F804B05B443FE255
:10384000B9F1650F40F3B781109800221199002358
:1038500007F0B6FE002860D0184B23600123636098
:10386000359B01333593349B01333493072B01DCB3
:10387000083408E04046394633AA06F049F80028E3
:1038800040F07D8219AC3C9B0B9A934203DB15F010
:10389000010F00F02582139B12982360359B606016
:1038A0001B183593349B01333493072B08DC083401
:1038B0000FE000BFBCC0000078C00000BAC000002C
:1038C0004046394633AA06F023F8002840F05782D4
:1038D00019AC0B9901F1FF39B9F1000F17DCFFE1C9
:1038E000226010229B1862603593349B013334931D
:1038F000072B01DC083408E04046394633AA06F0BD
:1039000007F8002840F03B8219ACA9F11009B9F181
:10391000100F359B954AE3DC48E13C9B002B79DC9A
:10392000934B236001236360359B01333593349BB4
:1039300001333493072B01DC083408E04046394654
:1039400033AA05F0E5FF002840F0198219AC3C9B32
:103950002BB90B9A1AB915F0010F00F0C181139B16
:1039600012982360359B60601B183593349B01339C
:103970003493072B02DC04F1080308E04046394683
:1039800033AA05F0C5FF002840F0F98119AB3C9C33
:103990006442002C16DC2DE0196010215218596089
:1039A0003592349A01323492072A01DC083308E058
:1039B0004046394633AA05F0ABFF002840F0DF81CE
:1039C00019AB103C102C359A6849E5DC5C60141981
:1039D000349A196001323594072A349201DC083395
:1039E00008E04046394633AA05F092FF002840F02F
:1039F000C68119AB0B99359AC3F800A059605218CB
:103A00003592349A01323492072A00F3618103F12E
:103A1000080465E10B9A089B91460AEB020B994555
:103A2000A8BF9946B9F1000F16DD359BC4F800A078
:103A3000C4F804904B443593349B01333493072BE3
:103A400001DC083408E04046394633AA05F060FF3F
:103A5000002840F0948119AC089829EAE979C9EB6B
:103A60000009B9F1000F17DC30E0226010229B182A
:103A700062603593349B01333493072B01DC0834A7
:103A800008E04046394633AA05F042FF002840F0DE
:103A9000768119ACA9F11009B9F1100F359B334AA1
:103AA000E3DC22604B44C4F804903593349B01332B
:103AB0003493072B01DC083408E04046394633AA2A
:103AC00005F026FF002840F05A8119AC3C9B0B9969
:103AD0008B4202DB15F0010F17D0129B139A12983C
:103AE0006360359B22601B183593349B01333493FC
:103AF000072B01DC083408E04046394633AA05F0BC
:103B000007FF002840F03B8119AC08993C9A0B98BC
:103B10000AEB0103C3EB0B0BC2EB0009CB45B8BFAB
:103B2000D946B9F1000F15DD2360359BC4F8049028
:103B30004B443593349B01333493072B01DC083419
:103B400008E04046394633AA05F0E2FE002840F07E
:103B5000168119AC3C9B29EAE9790B99CB1AC9EB80
:103B60000309B9F1000F1CDCBAE000BF78C0000007
:103B7000BAC00000226010229B1862603593349B0B
:103B800001333493072B01DC083408E04046394602
:103B900033AA05F0BDFE002840F0F18019ACA9F170
:103BA0001009B9F1100F359B7B4AE3DC22604B44CE
:103BB000C4F8049084E00B9A012A02DC15F0010F8E
:103BC00062D001236360359BC4F800A001333593B4
:103BD000349B01333493072B01DC083408E0404662
:103BE000394633AA05F094FE002840F0C88019AC8D
:103BF000139B12982360359B60601B183593349B90
:103C000001333493072B01DC083408E04046394681
:103C100033AA05F07DFE002840F0B18019AC11995F
:103C200000231098002207F0CBFC0B994B1E30B9F3
:103C30000AF101022260359A6360D3182AE0B3F1D9
:103C4000000917DC36E0226010229B186260359371
:103C5000349B01333493072B01DC083408E04046E1
:103C6000394633AA05F054FE002840F0888019AC8C
:103C7000A9F11009B9F1100F359B474AE3DC226026
:103C80004B44C4F8049005E001236360359BC4F8FD
:103C900000A001333593349B01333493072B01DCAF
:103CA000083407E04046394633AA05F031FE0028C3
:103CB00065D119AC38AB159A2360359B62609B18AF
:103CC0003593349B01333493072B01DC083407E030
:103CD0004046394633AA05F01BFE00284FD119ACE7
:103CE00015F0040F2FD00D9BDDF838A0CAEB0305AB
:103CF000002D15DC27E0226010229B1862603593AE
:103D0000349B01333493072B01DC083407E0404631
:103D1000394633AA05F0FCFD002830D119AC103D1E
:103D2000102D359B1D4AE6DC65605D19349B2260D1
:103D300001333595072B349305DD4046394633AAC8
:103D400005F0E6FDD8B90F980E9A0D99359B8A4279
:103D5000ACBF801840180F902BB14046394633AAAB
:103D600005F0D6FD58B9002319AC3493FEF7C8BF4F
:103D7000359B23B14046394633AA05F0C9FDBB89BE
:103D80000F9D03F04003002B18BF4FF0FF350F9538
:103D90000F983FB0BDE8F08F78C00000BCC00000B5
:103DA0002DE9F04F0C46ADF52D7D1E468246154699
:103DB00003F07AFDA38913F4005F06D143F40053A6
:103DC000A381636E23F40053636600200795834646
:103DD00007460990089007990A78ADF8AE22002AA4
:103DE00000F0BF85914B013107911968881890F850
:103DF000018018F0080818D06368002B05DC5046D5
:103E0000214605F03DFE0028E5D12368874D1A784C
:103E100029688A18527812F0080FDCD062680133E2
:103E200001372360013A6260E6E7252A51D1079AFB
:103E3000454612F8013B642B7AD029D8472B00F075
:103E40008C8014D8392B0AD8302B6CD2252B3FD03C
:103E50002A2B57D00792002B00F0B980BFE0442BEB
:103E6000079200F0C280452B40F0B98076E0582BD5
:103E70006DD006D84C2B50D04F2B079240F0AF801E
:103E80005EE05B2B07926FD0632B40F0A88075E05B
:103E90006E2B7FD008D8682B42D05ED3692B49D0D7
:103EA0006C2B40F09B8030E0732B079259D005D8E3
:103EB0006F2B0AD0702B40F0928064E0752B00F0DD
:103EC0009980782B40F08B8042E0594809903BE084
:103ED00007926368002B06DC5046214605F0D0FDB2
:103EE000002840F030852368079D197815F8012CCB
:103EF000914240F036856268013301372360013A10
:103F0000626068E748F0100893E713786C2B01D1E2
:103F1000013202E048F001088BE748F0020888E728
:103F200048F0040885E70A204543303DED1880E756
:103F300007925CE03F494FF0000B079209915DE06A
:103F40003B4A48F0010809924FF0080B56E00792EF
:103F5000374B48F40078099319E007924FF00409B1
:103F60004EE04FF002094BE067A8079904F028FCE7
:103F700048F040084FF00109079041E048F0400840
:103F80004FF000093CE02A4848F4087809904FF0C7
:103F9000100B33E018F0100F07927FF41CAF18F0ED
:103FA000040F06F1040102D033681F8004E018F00A
:103FB000010F03D033681F600E460CE718F0020FA4
:103FC000F8D030683A46FB17C0E90023F4E703F065
:103FD0006CFC4FF0FF33089300F0C9BC0792CB187C
:103FE0005B7803F00303012B01D148F0010811486D
:103FF000099001E00E4909914FF00A0B4FF00309B7
:104000006368002B06DC5046214605F039FD002888
:1040100040F0998418F0400F1FD115E06268013A12
:104020006260002A08DD013323600CE020050010E7
:10403000C1960000319400005046214605F020FD55
:10404000002840F08084013723689B481A78016873
:104050008A18527812F0080FE0D109F1FF39B9F14E
:10406000030F05D8DFE819F09700EA00BB018E02C4
:10407000002D08BF012518F0010308F010095AD0DF
:10408000A9A80021082203F0B6FEB9F1000F03D160
:1040900032680436059201E0002305934B464FF049
:1040A0000008B1461E4603F0DDFD804500F04B845C
:1040B00023680FAA504613F8011B02F8081008F1F4
:1040C000010861682360A9AB013900936160434630
:1040D000059903F053FEB0F1FF3F00F0348418B9A6
:1040E0002EB90598068002E010F1020F09D047446E
:1040F000013D26B90599B0460231059101E04FF026
:1041000000086368002B0CDC5046214605F0B8FC23
:1041100038B133464E469946B8F1000F06D000F04C
:1041200012BC002DBFD133464E469946B9F1000F5F
:104130007FF451AE06E1B9F1000F1CD09846D4F8D7
:1041400004902368A9450FDA4B445046236021466A
:10415000C84405F095FC10B9C9EB0505EFE7B8F1C7
:10416000000F40F01081EEE3C5EB0902A844626045
:104170005D19256007E100945046316801222B4605
:1041800005F09BFC002800F0DE83089B0436C7196D
:10419000013308931FE6002D08BF4FF0FF3518F0DC
:1041A000100F20D04FF0000812E0626808F10108FB
:1041B00001332360013AA845626000F0E480002AE0
:1041C00006DC5046214605F05BFC002840F0DB8011
:1041D000236867A91A788A5C002AE6D1B8F1000F33
:1041E00040F0D180BDE3D6F80080C14614E062689B
:1041F000013A626013F8012B013D09F8012B23609D
:1042000010D06368002B07DC5046214605F038FCCF
:1042100010B1C14506D196E3236867A91A788A5C74
:10422000002AE4D1B9EB080800F09B83002389F849
:104230000030089D043601350895A4E0002D08BF24
:104240004FF0FF3518F0010308F0100005907DD005
:104250000021A7A8082203F0CEFD059919B9D6F8C8
:104260000090043603E00DF52A7909F1060933467A
:104270004FF000084E46994650E003F0F3FC8045AD
:1042800000F0618323680FAA504613F8011B02F85F
:10429000081008F1010861682360A7AB0139009399
:1042A00061604346314603F069FDB0F1FF3F00F025
:1042B0004A8318B9308004E02005001010F1020F85
:1042C0001CD0308803F0BCFC80B14B46B1461E4682
:1042D00008E008F1FF380FAB5046224613F80810EB
:1042E00005F091FBB8F1000FF3D125E0059A4744A2
:1042F000013D12B90236904600E080466368002B0B
:104300000CDC5046214605F0BBFB38B14B46B146AC
:104310001E46B8F1000F40F016830DE02368964862
:104320001B780268D3185B7813F0080F01D1002DB9
:10433000A3D14B46B1461E46059900297FF44BADEB
:10434000A9F80010089A0132089244E50598E0B1F6
:1043500098460FE0626808F1010801332360013AD2
:10436000A84562600FD0002A04DC5046214605F0C3
:1043700087FB40B9236880481A7801688A18527808
:1043800012F0080FE6D0474425E5D6F8008006F184
:104390000409464611E06268013A626013F8012B95
:1043A000013D06F8012B236010D06368002B04DC6C
:1043B0005046214605F064FB40B923686E481A78E0
:1043C00001688A18527812F0080FE4D00023337085
:1043D0000899C8EB0707F71901310891B0E26B1E85
:1043E000B3F5AE7F05D9A5F5AE7340F25D15013B7F
:1043F00000E00023BC4648F458680DF13C091F4614
:104400000022059222681278392A09D8382A33D234
:10441000302A14D02CD82B2A3AD02D2A5FD137E05D
:10442000582A3BD004D8A2F14101052957D829E0E8
:10443000612A54D3662A25D9782A50D12EE018F45F
:10444000006F36D0BBF1000F03D148F400780BF1B8
:10445000080B18F4806F02D028F4B06829E028F423
:1044600060780FB1013F0135059B0133059322E0D0
:10447000424931F91BB008E0404931F91BB0BBF1AA
:10448000080F01E0BBF10A0F29DD28F4386810E0BD
:1044900018F0800F23D028F080080AE008F4C061EB
:1044A000B1F5007F1BD128F400784FF0100B48F4D1
:1044B000A06809F8012B6268013A6260002A03DDF6
:1044C00022680132226008E050462146CDF810C033
:1044D00005F0D6FADDF810C008B9013D92D118F404
:1044E000807F67460CD00FAB994505D9504619F827
:1044F000011D224605F087FA0FAB994500F0318285
:1045000018F0100231D189F800205B4650460FA9FF
:10451000099DA84718F0200F06F104031FD118F0D9
:10452000040F02D0326810801BE018F0010216D18F
:1045300018F0020F13D0124B0998984205D150463B
:104540000FA95B4605F03AF904E050460FA95B4617
:1045500005F000F8336804361860596002E03268EC
:1045600010601E460899013108910FAB059AFF1A99
:10457000BF184F442FE400BF20050010D2C0000038
:10458000C19600006B1EB3F5AE7F06D9A5F5AE75DA
:10459000013D0B9540F25D1501E000230B934FF0B8
:1045A00000090FABCDF814B048F4F068BB4606968E
:1045B0001F464E465346CA46CDF82890CDF8349053
:1045C000CDF83090216809784E2958D01DD8392966
:1045D0000FD8312944D22E2900F0928005D82B29FA
:1045E00046D02D2940F0CF8042E0302940F0CB80EA
:1045F00028E0452900F08B8003D8412940F0C38092
:1046000054E0462970D0492913E066296CD00CD8B3
:10461000592971D003D8542940F0B58068E0612948
:1046200044D0652940F0AF8071E06E2927D003D8CF
:10463000692940F0A8803DE0742959D0792940F0DB
:10464000A28059E018F4807F0AD00B9828F08008E7
:104650000136002800F08280013801350B907DE0A2
:1046600009EB0A00002840F08E8028F4C07873E03F
:1046700018F0800F00F0878028F080086CE0BAF115
:10468000000F0AD166B908F4E060B0F5E06F07D119
:1046900028F4F0680AF1010A5EE0BAF1020F4DD089
:1046A000B9F1010F1BD0B9F1040F17E0BAF1010FF6
:1046B00047D068E0B9F1000F0BD1002E6FD108F49C
:1046C000E060B0F5E06F75D128F4F06809F10109F8
:1046D00042E0B9F1030F02D0B9F1050F53D109F14E
:1046E00001095FFA89F937E0B9F1020F2CD04AE0ED
:1046F000B9F1060F2BD046E0B9F1070F2AD042E0FE
:1047000018F4007F3FD028F420780C9624E008F4B9
:10471000A060B0F5806F04D018F4806F33D0002E05
:1047200048D018F4007F03D10C9A0A97B61A0D9658
:1047300028F4F068002648F4C0780DE04FF0030A32
:104740000AE04FF0020A07E04FF0030904E04FF0DF
:10475000070901E04FF0080907F8011B61680BF138
:10476000010B01396160002903DD216801312160FD
:1047700006E018462146039305F082F9039B10B921
:10478000013D7FF41FAFB4465246069E9A463B4613
:104790005F46DDF814B0BCF1000F13D007E0B4465B
:1047A0005246069E9A463B465F46DDF814B028F412
:1047B000807807E0B4465246069E9A463B465F46DE
:1047C000DDF814B0013A012A0BD81D4605E0504629
:1047D00015F8011D224605F016F90FAB9D42F6D8DB
:1047E000BFE009F1FF32062A2CD8B9F1020F01D837
:1047F0001D4623E005934D460DE0059A504612F8FC
:10480000011D0393CDF810C00592224605F0FBF878
:10481000DDF810C0039B013DEDB2022DEDD1A9F1F1
:1048200003095FFA89F9C9EB0303C9EB070709E03C
:10483000504615F8011D224605F0E5F80FAB9D42E4
:10484000F6D88EE018F4807F2CD018F4806F0BD04F
:104850001D4605E0504615F8011D224605F0D3F827
:104860000FAB9D42F6D87CE013F8011D013F65298E
:104870000ED045290CD0504622460393013FCDF877
:1048800010C005F0C0F8039BDDF810C013F8011D3F
:10489000504622460393CDF810C005F0B4F8DDF879
:1048A00010C0039B18F010027FF495AA08F4C061B1
:1048B0001A70B1F5806F07D10C9DBCEB050C19D0B7
:1048C000CCF100020A9309E00D9898B10A9B50467A
:1048D000591C0A2304F0ACFD0D9D421B0A9863ABE2
:1048E0000333984224BF0DF5C7710A9122490A98F3
:1048F000FEF718F9002250460FA906F1040903F04B
:10490000ABFF18F0010F02460B4602D118F0020F60
:1049100003D03168C1E900230FE0356804900391AA
:1049200003F01CFF049A039B10B903F07BFF03E024
:1049300010461946FCF73AFF2860089A013208929F
:104940004E46FFF748BA02F0B0FF089B63B1A38957
:10495000089D03F04003002B18BF4FF0FF3508956A
:1049600005E002F0A2FF02E04FF0FF300890089847
:104970000DF52D7DBDE8F08FCCC000002DE9F04F86
:10498000F7B00F4615461E46804603F071F90068E1
:104990001390FEF767F91290B8F1000F05D0D8F820
:1049A000183013B9404602F015FF8F4B9F4202D1D9
:1049B000D8F804700AE08D4B9F4202D1D8F80870F5
:1049C00004E08B4B9F4208BFD8F80C70BB8913F4EE
:1049D000005F06D143F40053BB817B6E23F4005388
:1049E0007B66BB8913F0080F01D03B6933B94046A1
:1049F000394601F0ABFE002841F09B80BA8902F0F5
:104A00001A030A2B36D1FB8913F4004F32D1ADF8CB
:104A1000F23022F002023B6A4046ADF8F02039A99C
:104A20007A6E4193BB6A52922A46439319AB3993EB
:104A30003D9380233B933E93803B3F933346FFF768
:104A40009DFF00280E9009DB39A9404602F0B8FD11
:104A50000E99002818BF4FF0FF310E91BDF8F030CD
:104A600013F0400F01F06880BB8943F04003BB8125
:104A700001F062B8002353AC6F936D946E930C9564
:104A80000B9310931193169315930E930C9B1D4645
:104A900013F8012B0AB1252AF9D10C9AB5EB0209BA
:104AA00018D06F9B2260C4F804904B446F936E9BA8
:104AB00001336E93072B01DC083408E04046394689
:104AC0006DAA05F0EFF8002841F0298053AC0E9B49
:104AD0004B440E932B78002B01F01A8000230135F4
:104AE0000C951D468DF8D7314FF0FF3C0D932A46AB
:104AF0000C9B05E00E4603E01E464FF0FF3C0B46C4
:104B000013F8019BA9F12001582900F21C84DFE869
:104B100011F059001A041A045F001A041A041A0446
:104B20001A041A041A04620071001A04680075005D
:104B30001A0498009B009B009B009B009B009B001D
:104B40009B009B009B001A041A041A041A041A04FE
:104B50001A041A041A041A041A04C60003011A04D7
:104B600003011A041A041A041A04AA001A041A04E3
:104B7000AE021A041A041A041A041A0419031A04B5
:104B80001A044B031A041A041A041A041A041A0405
:104B90001A041A041A041A04BB00CB00030103010F
:104BA0000301AD00CB001A041A04B0001A049002ED
:104BB000B302DF02B8001A04F3021A041E031A0437
:104BC0001A0446039DF8D711002999D1203112E02B
:104BD00045F0010594E73268311D002A8ADA524215
:104BE0000E4645F004058BE780C20000A0C200001D
:104BF000C0C200002B218DF8D71181E7194611F8AA
:104C0000019BB9F12A0F03D019464FF0000C10E0B8
:104C1000D6F800C0331DBCF1000FFFF66DAF1E4685
:104C20000B466DE74FF00A0909FB0C0C91F8019057
:104C30001946A9F1300001330928F3D94CEAEC7C7C
:104C400060E745F080055BE7194600220A23A9F1D9
:104C5000300903FB029211F8019BA9F130000B46C9
:104C60000928F3D94EE745F0080549E745F0400526
:104C700046E719786C2901D1013302E045F01005AF
:104C80003EE745F020053BE70C934FF0000C3368FE
:104C900004360D928DF8D7C18DF88C315FE30C93FB
:104CA00045F010050D9201E00C930D9215F0200FC8
:104CB00009D0073626F0070303F10806D3E90001FF
:104CC000CDE9080116E015F0100F06F1040301D03C
:104CD000326809E015F0400F326805D012B2104674
:104CE000D117CDE9080104E092464FEAE27BCDE915
:104CF00008AB1E46DDE90801002871F1000180F2D1
:104D00008E82DDE90823524263EB4303CDE9082399
:104D10002D238DF8D73182E20C93F31D15F0080F87
:104D200023F007030D9203F1080614BF18681968F1
:104D3000CDF83C9014BF109010915B681098CDF89E
:104D400018C01193119903F009FDDDF818C001286E
:104D500019D1109800221199002306F03BFC10B1E4
:104D60002D238DF8D731A94B4FF0000CA84A25F020
:104D700080054FF0030BCDF820C0B9F1470FCCBF31
:104D800092469A4601E310981199CDF818C003F0A5
:104D9000E5FCDDF818C058B99E4B25F080059E4A09
:104DA0004FF0030BB9F1470FCCBF92469A46E1E2B0
:104DB000BCF1FF3F0BD0B9F1670F02D0B9F1470F3B
:104DC00007D1BCF1000F08BF4FF0010C01E04FF01C
:104DD000060C119B45F48075002B05DA03F10042A7
:104DE0002D230B92149303E01198002114910B9042
:104DF000B9F1660F0BD0B9F1460F08D0B9F1650FC4
:104E000002D0B9F1450F05D10CF1010B03E0E346E7
:104E1000032301E0E34602230093404674AB109A5B
:104E2000029373AB039372AB04930B9BCDF818C042
:104E3000CDF804B001F0C0FDB9F1670FDDF818C07E
:104E4000824602D0B9F1470F02D115F0010F34D0DC
:104E5000B9F1660F0AEB0B02089202D0B9F1460FC6
:104E600015D19AF80030302B0DD1109800220B99F3
:104E70000023CDF818C006F0A3FBDDF818C010B968
:104E8000CBF1010374930898749BC0180890109894
:104E900000220B990023CDF818C006F091FBDDF835
:104EA00018C030B10899729103E0302203F8012B49
:104EB0007293729B089A9342F7D3729BB9F1670F72
:104EC000CAEB03030B93749B02D0B9F1470F08D1CF
:104ED00013F1030F9B4601DB634575DDA9F1020960
:104EE00002E0B9F1660F59D003F1FF3B8DF8C09194
:104EF000BBF1000FCDF8D0B103DACBF1000B2D23BD
:104F000000E02B23BBF1090F8DF8C1312FDD0DF12E
:104F10006A035246CC46A2461C4658460A210792CE
:104F2000A146CDF818C006F0E5FA5846303104F82D
:104F300001190A2106F094F9079ADDF818C009282A
:104F40008346EADC544692464A4600F1300BE1467D
:104F50000DF5E17302F801BC013A03E012F8011B00
:104F600003F8011B0DF16B018A42F7D306E03023F1
:104F70008DF8C2319B4471AB8DF8C3B170AA9A1AF7
:104F80000B9B1592012B02EB030B02DC15F00103C6
:104F900044D000200BF1010B089040E0002B9B4611
:104FA00009DDBCF1000F02D115F0010F28D003F18B
:104FB000010BE34424E0BCF1000F02D115F0010F16
:104FC00019D00CF1020B1BE00B998B4207DB15F09B
:104FD000010F13D0672203F1010B0F9210E0002B99
:104FE000D8BFC3F1020B0B9BC8BF4FF0010B67206A
:104FF0009B440F9004E04FF0010B01E067210F91FB
:10500000749ADDF83C90089209E000BF88C0000067
:105010008CC0000090C0000094C000000893149B56
:10502000002B00F0A3812D234FF0000C8DF8D73119
:10503000ABE115F0200F0C9306F1040106D00E9D94
:1050400030682A46EB17C0E900230EE015F0100F78
:1050500003D033680E98186007E015F0400F3368EE
:1050600015BF0E9A0E9D1A801D600E460EE50C931C
:1050700045F010050D9201E00C930D9215F0200201
:105080000AD00736002226F0070303F10806D3E909
:1050900000ABCDE908ABBEE015F0100106F104034A
:1050A00002D031688A460DE015F04002306808D021
:1050B00080B24FF0000B82461E46CDE908AB0A468F
:1050C000A9E082464FF0000B1E46CDE908ABA2E0F6
:1050D0000C93002133684FF078090D9245F00205DA
:1050E0001846CDE90801A54930238DF8D59104363D
:1050F0008DF8D43116918DE00C9300230D92324639
:1051000004369C458DF8D731D2F800A013DB194640
:10511000624650460793CDF818C0FDF78BFA079BFF
:10512000DDF818C0002800F02481CAEB000BE3452D
:1051300000F3288127E150460793FDF793FD079B75
:10514000834620E10C9345F010050D9201E00C938D
:105150000D9215F0200F09D0073626F0070303F152
:105160000806D3E900ABCDE908AB16E015F0100F47
:1051700006F1040301D032680AE015F0400F3268EE
:1051800006D092B24FF0000B9246CDE908AB03E097
:1051900010460021CDE908011E4601223BE0774977
:1051A0000C930D92169103E00D92754A0C93169292
:1051B00015F0200F09D0073626F0070303F1080683
:1051C000D3E900ABCDE908AB16E015F0100F06F1FE
:1051D000040301D032680AE015F0400F326806D0AF
:1051E00092B24FF0000B9246CDE908AB03E01046B7
:1051F0000021CDE908011E4615F0010F0AD0DDE9B6
:105200000823134306D045F0020530238DF8D591CD
:105210008DF8D431022200238DF8D73100E001222D
:10522000DDE908ABBCF1000FA8BF25F080055AEA04
:105230000B0B02D1BCF1000F72D0012A23D0022A3D
:1052400055D06CAB033308989A4600F00702303211
:105250001A700899013BDDF824B0C80840EA4B7188
:105260004FEADB0B0891CDF824B0DDE908010143DA
:10527000E9D115F0010F5FD0302A5DD09A46302376
:105280008AF8003058E0DDE908230A2A73F10003A8
:105290000AD2DDF820A00AF130030DF5D87A8DF896
:1052A000B3310AF1030A47E00DF5D87B23460BF131
:1052B000030B5C46CB469946DDE908010A22002330
:1052C000CDF818C006F0CEF9A2460023303204F81B
:1052D0000129DDE908010A2206F0C4F9DDF818C049
:1052E000CDE908010843E7D14C46D94624E06CAB30
:1052F000033308999A46DDF858B001F00F021BF805
:10530000022003F801290899099A080940EA027164
:10531000120908910992DDE908010143E9D10BE086
:1053200042B915F0010F05D00DF5EC7A30230AF8DB
:10533000253D01E00DF5DA7A0DF5DA7B0022CAEBA6
:105340000B0B089221E00C930D92B9F1000F00F0C5
:10535000DF834FF0000C8DF88C918DF8D7C14FF0A2
:10536000010BCDF820C00DF5C67A0EE0DDF850C077
:105370000BE0E3468446089007E000BFA9C00000A8
:1053800098C00000E3469C460893E345ACBF5B46EB
:1053900063460F939DF8D73113B10F9801300F90EA
:1053A00015F00201149102D00F9A02320F9215F0FB
:1053B0008403179346D10D980F99431A002B1BDCD9
:1053C00040E01A60102289185A606E9A6F9101327B
:1053D0006E92072A01DC08330CE0404639466DAA7C
:1053E000CDF818C004F05EFCDDF818C0002840F0CD
:1053F000968353AB103D04E02A461D4623464C4697
:105400009146102D6F99934ADBDC4846A1461C4615
:105410002B4605466360CB1822606F936E9B013369
:105420006E93072B01DC08340CE0404639466DAA28
:10543000CDF818C004F036FCDDF818C0002840F0A4
:105440006E8353AC9DF8D731DBB175AB033323606A
:10545000012363606F9B01336F936E9B01336E93E7
:10546000072B01DC08340CE0404639466DAACDF824
:1054700018C004F017FCDDF818C0002840F04F8376
:1054800053AC149AD2B175AB2360022363606F9B57
:1054900002336F936E9B01336E93072B01DC08344C
:1054A0000CE0404639466DAACDF818C004F0FAFB6E
:1054B000DDF818C0002840F0328353AC179B802BD6
:1054C00046D10D980F99431A002B1BDC40E01A605F
:1054D000102289185A606E9A6F9101326E92072AD3
:1054E00001DC08330CE0404639466DAACDF818C0FF
:1054F00004F0D8FBDDF818C0002840F0108353AB4F
:10550000103D04E02A461D4623464C469146102D88
:105510006F99514ADBDC4846A1461C462B4605469E
:105520006360CB1822606F936E9B01336E93072BE1
:1055300001DC08340CE0404639466DAACDF818C0AD
:1055400004F0B0FBDDF818C0002840F0E88253AC4E
:10555000CBEB0C03002B17DC38E01A601022891803
:105560005A606E9A6F9101326E92072A01DC0833FD
:1055700008E0404639466DAA04F094FB002840F04C
:10558000CE8253AB103D04E02A461D4623464C46CE
:105590009146102D6F99304ADFDC4846A1461C46E3
:1055A0002B4605466360CB1822606F936E9B0133D8
:1055B0006E93072B01DC083408E0404639466DAA9B
:1055C00004F070FB002840F0AA8253AC15F4807FF1
:1055D00006D16F9BC4F800A0C4F804B05B443FE25E
:1055E000B9F1650F40F3B78110980022119900239B
:1055F00005F0E6FF002860D0184B236001236360AC
:105600006F9B01336F936E9B01336E93072B01DC0D
:10561000083408E0404639466DAA04F043FB0028F0
:1056200040F07D8253AC749B0B9A934203DB15F0E0
:10563000010F00F02582139B129823606F9B60601E
:105640001B186F936E9B01336E93072B08DC083495
:105650000FE000BFF4C0000004C10000BAC00000A9
:10566000404639466DAA04F01DFB002840F05782E1
:1056700053AC0B9901F1FF39B9F1000F17DCFFE1D1
:10568000226010229B1862606F936E9B01336E93B1
:10569000072B01DC083408E0404639466DAA04F0C7
:1056A00001FB002840F03B8253ACA9F11009B9F18D
:1056B000100F6F9B954AE3DC48E1749B002B79DC6B
:1056C000934B2360012363606F9B01336F936E9B49
:1056D00001336E93072B01DC083408E0404639465D
:1056E0006DAA04F0DFFA002840F0198253AC749BD5
:1056F0002BB90B9A1AB915F0010F00F0C181139B59
:10570000129823606F9B60601B186F936E9B013330
:105710006E93072B02DC04F1080308E0404639468B
:105720006DAA04F0BFFA002840F0F98153AB749CD5
:105730006442002C16DC2DE01960102152185960CB
:105740006F926E9A01326E92072A01DC083308E0EC
:10575000404639466DAA04F0A5FA002840F0DF81E2
:1057600053AB103C102C6F9A6849E5DC5C6014194F
:105770006E9A196001326F94072A6E9201DC083329
:1057800008E0404639466DAA04F08CFA002840F043
:10579000C68153AB0B996F9AC3F800A05960521899
:1057A0006F926E9A01326E92072A00F3618103F1C3
:1057B000080465E10B9A089B91460AEB020B994598
:1057C000A8BF9946B9F1000F16DD6F9BC4F800A081
:1057D000C4F804904B446F936E9B01336E93072B78
:1057E00001DC083408E0404639466DAA04F05AFA54
:1057F000002840F0948153AC089829EAE979C9EB74
:105800000009B9F1000F17DC30E0226010229B186C
:1058100062606F936E9B01336E93072B01DC08343B
:1058200008E0404639466DAA04F03CFA002840F0F2
:10583000768153ACA9F11009B9F1100F6F9B334A6F
:10584000E3DC22604B44C4F804906F936E9B0133F9
:105850006E93072B01DC083408E0404639466DAAF8
:1058600004F020FA002840F05A8153AC749B0B9945
:105870008B4202DB15F0010F17D0129B139A12987E
:1058800063606F9B22601B186F936E9B01336E9356
:10589000072B01DC083408E0404639466DAA04F0C5
:1058A00001FA002840F03B8153AC0899749A0B9898
:1058B0000AEB0103C3EB0B0BC2EB0009CB45B8BFEE
:1058C000D946B9F1000F15DD23606F9BC4F8049031
:1058D0004B446F936E9B01336E93072B01DC0834AE
:1058E00008E0404639466DAA04F0DCF9002840F093
:1058F000168153AC749B29EAE9790B99CB1AC9EB51
:105900000309B9F1000F1CDCBAE000BF04C10000BC
:10591000BAC00000226010229B1862606F936E9BD9
:1059200001336E93072B01DC083408E0404639460A
:105930006DAA04F0B7F9002840F0F18053ACA9F14A
:105940001009B9F1100F6F9B7D4AE3DC22604B44D4
:10595000C4F8049084E00B9A012A02DC15F0010FD0
:1059600062D0012363606F9BC4F800A001336F9382
:105970006E9B01336E93072B01DC083408E0404630
:1059800039466DAA04F08EF9002840F0C88053AC67
:10599000139B129823606F9B60601B186F936E9B24
:1059A00001336E93072B01DC083408E0404639468A
:1059B0006DAA04F077F9002840F0B18053AC11993A
:1059C00000231098002205F0FBFD0B994B1E30B907
:1059D0000AF1010222606F9A6360D3182AE0B3F1E2
:1059E000000917DC36E0226010229B1862606F937A
:1059F0006E9B01336E93072B01DC083408E04046B0
:105A000039466DAA04F04EF9002840F0888053AC66
:105A1000A9F11009B9F1100F6F9B494AE3DC22602C
:105A20004B44C4F8049005E0012363606F9BC4F805
:105A300000A001336F936E9B01336E93072B01DC43
:105A4000083407E0404639466DAA04F02BF90028D7
:105A500065D153AC70AB159A23606F9B62609B1845
:105A60006F936E9B01336E93072B01DC083407E0C4
:105A7000404639466DAA04F015F900284FD153ACC1
:105A800015F0040F2FD00D9BDDF83CA0CAEB0305E9
:105A9000002D15DC27E0226010229B1862606F93B6
:105AA0006E9B01336E93072B01DC083407E0404600
:105AB00039466DAA04F0F6F8002830D153AC103DF9
:105AC000102D6F9B1F4AE6DC65605D196E9B22609E
:105AD00001336F95072B6E9305DD404639466DAA5D
