:10000000008000109D4E0000A54E0000A74E00008D
:10001000A94E0000AB4E0000AD4E000000000000F5
:10002000000000000000000000000000AF4E0000D3
:10003000B14E000000000000B34E0000B54E0000BD
:10004000B74E0000E94A0000954D0000B74E000091
:10005000B74E0000B74E0000B74E0000B74E00008C
:10006000B74E0000B74E0000B74E0000B74E00007C
:10007000B74E0000B74E0000B74E0000B74E00006C
:10008000B74E0000B74E0000B74E0000B74E00005C
:10009000B74E0000B74E0000B74E0000B74E00004C
:1000A000B74E0000B74E0000B74E0000B74E00003C
:1000B000B74E0000B74E0000B74E0000B74E00002C
:1000C000B74E000040F2B463C1F200031A780AB9D7
:1000D00001201870704700BF40F2B460C1F2000008
:1000E00008B503682BB140F20003C0F2000303B16E
:1000F000984708BD2DE9F8430368814653F80C0C76
:10010000A3F10C02002834D00026DFF86C803446BE
:100110003746354692680134002A04DB484605F02C
:100120001BFAD9F800309E5D53F80C1C761988FB39
:10013000060CF0170CEB0605C0EBE5121002C2EB43
:10014000000CCCEB0605ADB2EE1988FB0602F017E9
:1001500002EB060CC0EBEC121702B81A371AA142D8
:10016000BFB22646A3F10C02D4D839028BB243EABF
:100170000500BDE8F88300BF818080802DE9F04153
:100180000D68044628460F460DF0E0FD0026B042FB
:1001900012D955F8043C002B03DB384605F0DCF996
:1001A0003D68AB5D05EB0608402B0CD801362846B0
:1001B0000DF0CCFDB042ECD82046394605F029F8C8
:1001C0002046BDE8F08155F8042C002A06DB3846AD
:1001D00005F0C2F93D68AB5D05EB06085A2BE5D882
:1001E00055F8040C00280EDB384605F0B5F93B68DD
:1001F00053F8041C03EB0608002903DB384605F01E
:10020000ABF93B689B5D203388F800303D680136D0
:10021000CDE700BF70B50C460022012386B005462D
:100220002D49204604F0D0FEB0F1FF3F064623D012
:100230000022334601A8214605F0F0F92068721C1F
:1002400050F80C3C9A4244D82146684605F0E6F93D
:100250002046694605F00AF80098204C0C38A04268
:100260002ED1284601A904F0D4FF01980C3884420D
:100270001DD1284606B070BD214602A804F0C9FF72
:1002800000221749204605F029F9284602A904F062
:10029000C0FF0298114B0C389842EAD081684A1E80
:1002A00000298260E5DC05A904F0C7FFE1E7836867
:1002B0005A1E002B8260DCDC03A904F0BEFFD8E7E5
:1002C0008368591E002B8160CBDC04A904F0B5FFC4
:1002D000C7E7044804F0FDFD944C0100F809001044
:1002E000944F0100984C010039483A4970B5884252
:1002F00023D0394CA14220D2024652F8046B0B465F
:10030000CD4343F8046B6519A342C5F3800514D2AD
:100310003DB1166800F108021E6001F10803A34216
:100320000BD2104650F8045B194641F8045B56683E
:10033000021D5E600B1DA342F3D328482849884262
:1003400024D0284CA14221D2024652F8046B0B461D
:10035000CD4343F8046B04EB050CA342CCF38005BA
:1003600014D23DB1156800F108021D6001F10803C7
:10037000A3420BD2104650F8045B194641F8045BC7
:100380005668021D5E600B1DA342F3D3164A174840
:10039000824216D200211346D64343F8041B841927
:1003A0008342C4F380040CD224B1196002F1080323
:1003B000834206D21A4642F8041B5960131D834239
:1003C000F8D30CF05DFD00F065F918F0ADF900BF51
:1003D00004B5010000000010B40600107C680100A4
:1003E0000000001000000010B4060010600B0010A8
:1003F00008B50021074816F04BFE0421064816F008
:1004000047FE0648042116F043FE054B01221A6000
:1004100008BD00BFB04C0100B84C0100C04C010049
:10042000C0060010024B16221A604FF0FF307047D2
:100430005C0A001008B518F077F900BF012070477A
:1004400070B5094D06462C684CB117F0ABFEA319E8
:10045000834207D8296820468E192E6070BD034C50
:100460002C60F2E70BF088FDBC060010600B00105A
:1004700001F0020311F4806F18BF43F0040311F080
:10048000080F18BF43F00803194616F001BE00BF5D
:1004900016F0D4BD022801DC0120704716F0E4BD3F
:1004A00002282DE9F0476EDD404F3B68002B61D1FB
:1004B0003F4D404C25F0010C65460CF1280615F81F
:1004C00001ABC3F34F0883EA0A0313F0010F1CBF0B
:1004D00088EA04081FFA88F84FEA5A0988EA090AE4
:1004E0004FEA58031AF0010F1CBF63409BB24FEA5A
:1004F000590883EA08095B0819F0010F1CBF634023
:100500009BB24FEA580883EA08095B0819F0010F0B
:100510001CBF63409BB24FEA580883EA08095B0896
:1005200019F0010F1CBF63409BB24FEA580883EAE1
:1005300008095B0819F0010F1CBF63409BB24FEA2A
:10054000580883EA08095B0819F0010F1CBF6340D3
:100550009BB283EA58085B0818F0010F1CBF634088
:100560009BB2B542ABD142F23F04A34212D1DCF8B8
:1005700028303B60033853F8200038B103681B690A
:100580009847BDE8F0870020BDE8F0874FF0FF30C6
:10059000BDE8F087084909480C686B220121E3682F
:1005A0000CF05EFC012018F0BFF800BFB806001088
:1005B0005572010001A0FFFF10020010C84C01009D
:1005C00010B50B4C82B0236814460BB9022808DD25
:1005D0002246002316F01EFE20F00040201A02B032
:1005E00010BD01900091FFF703FF00990198EFE71C
:1005F000C006001010B50C4C82B0236814460BB92D
:10060000022809DD0023224616F03AFE0028A8BF82
:10061000C0EB040002B010BD01900091FFF7E8FEAE
:1006200000990198EEE700BFC00600104FF4005398
:100630004B600020704700BF0B4A0C4910B50446C0
:100640000260C0F8641200F5197016F029FC084B1E
:1006500004F51170C4F8443216F022FC204618F05C
:1006600073FC204610BD00BF384F0100DCB0010014
:10067000B4B2010010B5064904460122083004F066
:100680002DFF216820464B680121984710BD00BF0F
:10069000844D010038B5782005F03EF9044600F09D
:1006A000B9FC20681049083017F058FB1C2005F0F1
:1006B00033F90E49054604F0DBFB2946204600F0DD
:1006C00027FD0C2005F028F9054600F03FFE0848FC
:1006D000084B2860AB602046294600F019FD2046F3
:1006E000002100F01DFDFAE7884D010045C00920FA
:1006F000404D0100040A001038B50446154604F0C8
:1007000088FD2046294604F03DFE204638BD00BF46
:100710002DE9F047A6B005460FA804F07AFD0022A7
:1007200003239D490FA804F04FFC002203460FA9A4
:100730000EA804F073FF0EA8FFF7DCFC06460E9827
:10074000964C0C38A04240F0138244F6DF408642BB
:1007500000F02E8146F239118E4200F08A8042F676
:10076000C73C664507D00F980C38844240F00A8297
:1007700026B0BDE8F0870FA90BA804F04AFD0123BD
:1007800000220BA8864904F01FFCB0F1FF3F03468E
:1007900000F09B810B9F421C57F80C7CBA4200F280
:1007A00005820AAE30460BA9FB1A04F037FF31462A
:1007B00004A804F02EFD049B53F8046C002E03DB08
:1007C00004A804F0C9FE049B1A782F2A00F0908137
:1007D00053F8040C002804DB04A804F0BDFE0499BF
:1007E0000A782E2A00F0958103AE304605F1080103
:1007F00004AAFFF781FF04980C38844240F02A8253
:10080000039850F80C7C50F8041C013F002903DBCE
:10081000304604F0A1FE039810F807E0BEF12F0F58
:1008200005D030465F49012204F064FD039816F0BC
:1008300051FD002800F07A8105F10800314604F0EE
:1008400015FD03980C38844240F0C7810A980C3893
:10085000844240F0A1810B980C38844283D0816897
:100860004A1E002982603FF77EAF18A904F0E5FC1C
:1008700079E70FA909A804F0CCFC0123002209A8FC
:10088000474904F0A1FBB0F1FF3F034600F0168199
:10089000099E421C56F80C7CBA4200F2878108AED1
:1008A000304609A9FB1A04F0B9FE01A83146FFF74A
:1008B000B1FC019B53F8047C002F03DB01A804F07A
:1008C0004BFE019B1A782F2A00F0188153F8040C74
:1008D000002804DB01A804F03FFE019B1A782E2AB1
:1008E00000F0118103A805F1080101AAFFF704FF38
:1008F00001980C38844240F0A381314602A8FFF7EA
:1009000089FC02A8284904F0FBFB002840F0E480A1
:100910004FF0FF38039825490BF0BAFD0026074633
:1009200038460BF0C1FCB0F1FF3F814613D0686838
:100930005FFA89FABAF10A0FD0F800A008BF0136B1
:10094000DAF81C000BF072FC4846DAF81C100BF0C9
:10095000DFFD4645E4D138460BF0A6FB02980C3883
:10096000844240F0588103980C38844240F02B8137
:1009700008980C38844240F01C8109980C38844255
:100980003FF4F1AE81684A1E002982603FF7EBAE6A
:1009900011A904F052FCE6E6B84D0100F809001078
:1009A000944C0100844D0100944F0100E44D01007E
:1009B0000FA90DA804F02DFC012300220DA89B49CE
:1009C00004F002FBB0F1FF3F034670D00D9E421CC5
:1009D00056F80C7CBA4200F2E9800CAE30460DA904
:1009E000FB1A04F01BFE05A8314604F012FC059B1F
:1009F00053F8047C002F03DB05A804F0ADFD059B34
:100A00001A782F2A6FD053F8043C002B04DB05A87A
:100A100004F0A2FD059A12782E2A00F0818003A826
:100A200005F1080105AAFFF767FE05980C38844216
:100A300040F01A81039816F04DFC0746C8B97DE0D6
:100A40006E6823AA3668014607A804F04FFE0836F0
:100A500007A906A8FFF792FB30467549069A17F0DA
:100A60007DF906980C38844270D107980C3884427E
:100A700075D1384616F058FC0028E1D103980C389F
:100A8000844240F0B4800C980C38844240F0B98025
:100A90000D980C3884423FF466AE83685A1E002BD2
:100AA00082603FF760AE1DA904F0C7FB5BE60CAEA9
:100AB0003046604924AA04F019FE94E708AE304697
:100AC0005C4917AA04F012FEEFE60AAE3046594917
:100AD0001CAA04F00BFE6AE602980BF05EFA0AF01C
:100AE000E3F9804616E703A805A904F092FB9CE70A
:100AF00003AE304604A904F08CFB7CE603A801A9F0
:100B000004F087FBF4E603A805F1080104F081FB7B
:100B1000EEE603AE304605F1080104F07AFB6AE622
:100B200003A805F1080104F074FB7EE768684249F8
:100B30000068039A083017F011F982E668683E49A8
:100B40000068039A083017F009F997E783685A1E7E
:100B5000002B826089DC21A904F06FFB85E78168A6
:100B60004B1E0029836084DC20A904F066FB80E72B
:100B700083685A1E002B82603FF7E7AD25A904F079
:100B80005CFBE2E58368591E002B81603FF7F0AD06
:100B900010A904F052FBEBE581684B1E002983602D
:100BA0003FF759AE19A904F048FB54E6234804F076
:100BB00090F981684B1E002983603FF7DEAE12A9D1
:100BC00004F03BFBD9E683685A1E002B82603FF796
:100BD000CFAE13A904F031FBCAE683685A1E002B7E
:100BE00082603FF733AE1AA904F027FB2EE6816836
:100BF0004A1E002982603FF746AF1FA904F01DFB83
:100C000041E78368591E002B81603FF741AF1EA961
:100C100004F013FB3CE78368591E002B81603FF70B
:100C2000A2AE14A904F009FB9DE600BF944C01009C
:100C3000BC4D0100944F0100C44D0100984C0100CF
:100C400081684A1E002982603FF757AE16A904F05A
:100C5000F4FA52E683685A1E002B82603FF7D0AD4B
:100C60001BA904F0EAFACBE581684F1E00298760D2
:100C70003FF7E0AE22A904F0E0FADBE60C4A0D49AA
:100C800010B504460260C0F8641200F5197016F041
:100C900007F9094B04F51170C4F8443216F000F955
:100CA000204618F051F9204604F0B6FD204610BD4C
:100CB000384F0100DCB00100B4B2010030B50A4D7C
:100CC00083B00A4C00950A4D0A490B4A20460B4B4B
:100CD000019500F099FB0A490A4A204603B0BDE895
:100CE000304004F01ABD00BF06C00920C406001041
:100CF000E84D010009C0092008C0092007C00920EB
:100D000039060000C400001010B5044600F01EFBB8
:100D1000034904480023A06021602373204610BDCE
:100D2000F84D0100040A001070B50D460646094949
:100D300028680BF0ADFB044630B10123337306F194
:100D40000800294604F092FA2046BDE870400BF0F6
:100D5000ABB900BFE44D010070B50B7B86B00C460B
:100D60000546002B28D105AA1E4901A804F0BEFCA7
:100D7000204601A9FFF7D8FF01981B4E0C38B0425E
:100D800027D104AA1949684604F0B0FC20466946F8
:100D9000FFF7CAFF00980C38864211D1207B28B992
:100DA00013480CF0E9FB284606B070BD284604F154
:100DB000080104F02EFAF6E7083104F02AFAF2E707
:100DC0008368591E002B8160E8DC02A904F035FA23
:100DD000E4E781684A1E00298260D2DC03A904F09E
:100DE0002CFACEE7344E0100F8090010444E010001
:100DF000504E01002DE9F04788B0804603A8914687
:100E0000FFF7AAFF03986B490BF042FB05460398D6
:100E1000694C0C38A04240F0B980684802902846DE
:100E20000BF042FA0A2806462CD0029B824653F861
:100E30000C2C53F8080C571C874203D853F8041C99
:100E4000002906DD02A8394604F02CFA029B53F86B
:100E50000C2C03F802A0029AA2F10C039C427FD151
:100E6000B6F1FF3FDBD128460BF01EF954480CF0D9
:100E700083FB02980C38844240F09280404608B0D0
:100E8000BDE8F087029B53F8041C002903DB02A88D
:100E900004F062FB029B1E78232E37D00022012330
:100EA000484902A804F0AEF80646012345493246F7
:100EB00002A804F089F801230246424902A804F07E
:100EC000A1F80123324607463E4902A804F07CF807
:100ED000029A52F80C3C9E4255D8831B324602A916
:100EE00001A804F09BFB01A8FFF704F9064601984E
:100EF0000C3884423ED14E4510D0029F002102A8FA
:100F000057F80C2C0B4604F073FA88E7002153F8CD
:100F10000C2C02A80B4604F06BFA80E728460BF075
:100F2000C3F87A1C042302A8274904F04DF8029A5A
:100F3000034652F80C0C874225D83A46404602A98F
:100F4000DB1B04F06BFB02980C38844296D081685E
:100F50004B1E0029836091DC05A904F06EF98DE732
:100F6000002003EB070C42F8040C42F80C7C8CF8D0
:100F70000C0075E781684B1E00298360BBDC06A965
:100F800004F05BF9B7E7114803F0A3FF83685A1E2A
:100F9000002B82603FF741AF07A904F04EF93CE710
:100FA00083685A1E002B82603FF768AF04A904F0E3
:100FB00044F963E7E44D0100F8090010040A001049
:100FC000784E0100944C0100704E0100984C0100D5
:100FD00030B5044683B00A4668462146FFF70AFF4B
:100FE00000980AF0DAFF04460098094B0C38984242
:100FF0000D4603D12046294603B030BD81684A1E04
:1010000000298260F6DC01A904F017F9F2E700BFBD
:10101000F8090010F8B5002706468761C761076226
:1010200047628762C762076347638763C763076472
:1010300047648764C764076547658765C765076652
:1010400047668766C76607674767102004F064FC39
:101050000546FFF759FE7561284642F6AA21FFF7BB
:10106000B7FF044670200D4604F056FC294607469B
:10107000204609F019FF24490346244A384600F067
:10108000D9FE716937600A6808464E601468A04747
:101090003368196818465E600A689047082004F0B3
:1010A0003BFC044600F086FD7460682004F034FCCC
:1010B000044602F0C9FBB460E82004F02DFC0446AD
:1010C00003F03CFBF4604FF41A5004F025FC044696
:1010D00001F0D2FE73683461196818465E600A68D0
:1010E0009047B368196818465E600A689047F368CD
:1010F000196818460A685E60904730690168466062
:101100000B6898473046F8BD02C0092003C009208B
:101110000A6808B5486013680846984708BD00BFCC
:101120002DE9F04701EB410500EB85058046AB69F1
:10113000E8690F46C21A92082AD0DFF858900024B6
:1011400009EBC1014E6806F0010A76100EE08259E3
:1011500059F837308019D35841469847AB69E86948
:101160000134C3EB000CB4EBAC0F11D253F82400E4
:10117000BAF1000FEBD159F8373080194146984742
:10118000AB69E8690134C3EB000CB4EBAC0FEDD3F1
:10119000BDE8F087A04E01002DE9F04701EB4106C4
:1011A00000EB8606B369F0690C46C11A89089146BE
:1011B0002AD0DFF85880002508EBC402576807F0F2
:1011C000010A7F100EE0C15958F83430C019CB58CD
:1011D00049469847B369F0690135C3EB000CB5EB9C
:1011E000AC0F11D253F82500BAF1000FEBD158F82B
:1011F0003430C01949469847B369F0690135C3EBEB
:10120000000CB5EBAC0FEDD3BDE8F087A04E0100AC
:101210002DE9F0430446A368406883B098420D4628
:1012200016D010B150F8041C0160031FC5EB030C6D
:10123000011D5FEAAC036160146803D12C6003B048
:10124000BDE8F0839A00801A29460CF0E6F8F5E72D
:101250002168401A801036D0430098423DD96FF083
:1012600003076FF040466B1A9B10984646B138460C
:10127000019204F051FB216806466A1A9310019A04
:1012800006EB880010B1126846F82820F3B9994699
:101290006168B144C5EB01085FEAA80809F10409D7
:1012A00006D04FEA88084846294642460CF0B5F871
:1012B000206809EB080508B104F0AEFAF7192660BA
:1012C0006560A760BBE70126B700CCE74FEA83095A
:1012D00030464A460CF0A1F8DAE76FF04046B342D8
:1012E00038BF1E46B700BEE770B54C0063189E00BD
:1012F0008519EB692D6A82B0AB42019208D003B127
:101300001A60621800EB8200191DC16102B070BD45
:1013100018368019194601AAFFF77AFFF6E700BFD1
:10132000704700BF704700BF704700BF704700BFE5
:10133000704700BF704700BF704700BF704700BFD5
:10134000704700BF02464068FFF7CEBF014B036005
:10135000704700BFF04E01004FF0FF30704700BFF4
:101360000020704700207047D0F84002704700BF4F
:101370004B1C9B1A002B2DE9F001074641DDA0EB29
:10138000E20C9CF80F0002F00701084101215C1EED
:10139000994204EA010400EA01002FD074B1511C03
:1013A000A7EBE10C9CF80F4001F007010C41022172
:1013B00004F00104994240EA44001FD08E184C1CEE
:1013C000A7EBE608A51898F80F80A7EBE50C06F048
:1013D00007069CF80FC048FA06F605F007054CFA18
:1013E00005FC06F0010616FA01F10CF00105A54016
:1013F0000843611C994240EA0500DFD1BDE8F001D5
:1014000070470020FAE700BF2DE9F04182B00E4698
:101410000999044690461F4617F032FD0C483B469A
:10142000206000253146424604F51170009515F004
:10143000D3FF2A4604F51970089915F08FFBD4F8EC
:101440007832D4F87C2220469A6102B0BDE8F0815F
:10145000384F0100F8B5D0F878320546D0F87C0254
:1014600005F511741646D86141F04001204615F08B
:101470007FFF3116204615F07BFF3114204615F012
:1014800077FF3112204615F073FF3146204615F0E4
:101490006FFF2046952115F06BFF41F2883707E07A
:1014A00015F066FF10F0800F06460DD0013F16D0F4
:1014B000FF21204615F05CFF0646FF2116F0800F45
:1014C000204607F1FF37EBD1D5F87812D5F87C220A
:1014D00020468A61FF2115F04BFF3046F8BDD5F854
:1014E0007C62D5F8783220469E61FF214FF0FF36AE
:1014F00015F03EFF3046F8BD38B5044641F2883558
:101500000AE02046FFF7A6FF204629210022FFF728
:10151000A1FF80B1013D10D0372100222046FFF706
:1015200099FF292100222046FFF794FF013D372132
:1015300000220028E5D1012038BD284638BD00BF73
:1015400070B5D0F878320546D0F87C0205F51174F4
:101550001646D86141F04001204615F009FF3116CA
:10156000204615F005FF3114204615F001FF311219
:10157000204615F0FDFE3146204615F0F9FE2046C6
:10158000952115F0F5FE41F2883607E015F0F0FEE2
:1015900010F0800F03460DD0013E0DD0FF212046F4
:1015A00015F0E6FE0346FF2113F0800F204606F1FA
:1015B000FF36EBD1184670BDD5F87812D5F87C22ED
:1015C00020468A61FF2115F0D3FE4FF0FF33184605
:1015D00070BD00BFF8B5D0F87C22D0F8783200F5A5
:1015E0001175DA617A210746284615F0C1FE0021FF
:1015F000284615F0BDFE0021284615F0B9FE002151
:10160000284615F0B5FE0021284615F0B1FE284603
:10161000952115F0ADFE41F2883607E015F0A8FEE1
:1016200010F0800F04460DD0013E26D0FF21284641
:1016300015F09EFE0446FF2114F0800F284606F1A7
:10164000FF36EBD1FF21284615F092FEFF212846F8
:1016500015F08EFEFF21284615F08AFEFF21284650
:1016600015F086FED7F87C12D7F8782228469161CB
:10167000FF2115F07DFE2046F8BDD7F87C42D7F853
:10168000783228469C61FF214FF0FF3415F070FE40
:101690002046F8BD38B5044641F288350AE02046B8
:1016A000FFF7D8FE204629210022FFF7D3FE80B1A4
:1016B000013D13D0372100222046FFF7CBFE292120
:1016C00000222046FFF7C6FE013D372100220028F8
:1016D000E5D12046FFF77EFF022038BD284638BD01
:1016E000F0B5D0F87832D0F87C2200F5117583B0CF
:1016F000DA6148210746284615F03AFE00212846BF
:1017000015F036FE0021284615F032FE012128464C
:1017100015F02EFEAA21284615F02AFE284687211C
:1017200015F026FE244E00240BE015F021FEC0B279
:10173000013410F0800F8DF800000FD00134B44256
:101740002DD0FF21284615F013FE5FFA80FCFF2103
:101750001CF0800F28468DF800C0E6D1FF212846F6
:1017600015F006FEFF21284615F002FEFF2128464F
:1017700015F0FEFDFF21284615F0FAFDD7F8783266
:10178000D7F87C2202A90C1904F8080CFF219A61F1
:10179000284615F0EDFD9DF8000003B0F0BDD7F828
:1017A0007832D7F87C2228469A61FF2115F0E0FDB7
:1017B0004FF0FF30F1E700BF404B4C0070B500F533
:1017C000117504463149284615F0FEFDD4F87832EB
:1017D000D4F87C22FF219A61284615F0C9FDFF212B
:1017E000284615F0C5FDFF21284615F0C1FDFF2153
:1017F000284615F0BDFDFF21284615F0B9FDFF2153
:10180000284615F0B5FDFF21284615F0B1FDFF2152
:10181000284615F0ADFDFF21284615F0A9FDFF2152
:10182000284615F0A5FDFF21284615F0A1FDFF2152
:10183000284615F09DFDFF21284615F099FDFF2152
:10184000284615F095FDFF21284615F091FDFF2152
:10185000284615F08DFD002120460A46FFF7FAFDC7
:10186000012801D0002070BD2046FFF739FF012874
:1018700006D00528F6D12046BDE87040FFF73CBEF3
:101880002046BDE87040FFF705BF00BFA0860100FD
:101890002DE9F8430546D0F87832D0F87C020C46A2
:1018A0009046D86105F51176FF21304615F060FDB0
:1018B000FE28F9D1B8F1000F24DDFF21304615F0E4
:1018C00057FD012708F1FF39474509F0010920704C
:1018D00018D0B9F1000F07D0FF21304615F048FDB0
:1018E0000227474560700DD0FF21304615F040FDBE
:1018F000FF21E055304615F03BFD791C0237474586
:101900006054F1D1FF21304615F032FDFF21304601
:1019100015F02EFDD5F87832D5F87C2230469A6144
:10192000FF2115F025FD0020BDE8F88370B55202B7
:101930000D4611210646FFF78DFD044608B1012032
:1019400070BD304629464FF40072FFF7A1FF2046D4
:1019500070BD00BF2DE9F843D0F878320646D0F8C4
:101960007C0206F511749146D8610D462046FE2191
:1019700015F0FEFCB9F1000F22DD01272046297881
:1019800009F1FF3815F0F4FC4F4508EA070817D0B5
:10199000B8F1000F06D020466978022715F0E8FC60
:1019A0004F450DD0E95D07F10108204615F0E0FC38
:1019B0000237204615F8081015F0DAFC4F45F1D132
:1019C000FF21204615F0D4FCFF21204615F0D0FC65
:1019D000FF21204615F0CCFC00F01F01052911D194
:1019E0002046FF2115F0C4FC0028F9D0D6F87C125F
:1019F000D6F8782220469161FF2115F0B9FC00202D
:101A0000BDE8F883D6F87832D6F87C2220469A6171
:101A1000FF2115F0ADFC0120BDE8F88370B552023E
:101A20000D4618210646FFF715FD044608B10120B2
:101A300070BD304629464FF40072FFF78BFF2046F9
:101A400070BD00BFF0B5092185B000220546FFF743
:101A500077FD044610B1002005B0F0BD2846694668
:101A60001022FFF715FF054650BB7F217E226846F6
:101A7000FFF77EFC492104463E226846FFF778FCCA
:101A800031212F2206466846FFF772FC5321074694
:101A900050226846FFF76CFC84B9012212FA00F369
:101AA000B81C12FA00F106FB033301FB03F0002817
:101AB000BCBF00F5FE7003304012CDE72846CBE7EF
:101AC0002046C9E738B50446FFF778FE2046FFF701
:101AD000B9FF1021C4F840024FF400722046FFF70E
:101AE000B9FC054608B1012038BD04F51170024962
:101AF00015F06AFC284638BD40420F00026808B560
:101B000001215368984708BD10B584B0044601A868
:101B100003F07FFB019B53F8042C002A03DB01A890
:101B200003F01AFD019B1A78473AD1B20D291ED84D
:101B30001D484FFA82FC10FA0CF118D5684603F0E4
:101B40008DF801A9684603F091FB606802216A469E
:101B5000FFF722FB636815491868154C083016F02A
:101B6000FDF8009A0C3AA24211D1019B00E0104A04
:101B70000C3B934201D104B010BD9A68501E002A5C
:101B80009860F8DC184602A903F057FBF3E7906869
:101B9000411E0028916002DD019B2246E8E71046C5
:101BA00003A903F04AFBF7E700000482904F01000D
:101BB000F809001010B50446FFF7C8FB014B20469A
:101BC000236010BDA04F010010B5044650B1084A73
:101BD000084B0021C26201638062E36308306162E6
:101BE00015F038FE216820464B680021984710BD4B
:101BF00039210000F91B000000B58C46496883B00C
:101C00000246DCF800006B4611F0010F03C305D15A
:101C1000009B02EB6100984703B000BD48101158CB
:101C20001018009A8B58F6E710B5826E416E82B09C
:101C3000531A9B0804460DD00121043A4068FFF76F
:101C4000ABFAA16E094A51F8040C0B1F0C389042F4
:101C5000A36601D102B010BD83685A1E002B8260BA
:101C6000F8DC01A903F0E9FAF4E700BFF809001075
:101C7000F0B5334A436E876E064602F1740102F1F5
:101C80003800BB4285B03260B060B16130D01C46D4
:101C900054F8040B2B4DF91A0C380B1FA842C3F350
:101CA000800342D1A7420CD023B954F8040B0C385E
:101CB000A84228D154F8040B0C38A8421AD1A742E4
:101CC000F3D1706E08B103F0A7FD306E0C38A84256
:101CD00022D11D4906F1080001F13C02B160026108
:101CE00016F07EF8304603F097FD304605B0F0BDA3
:101CF000144DE6E783685A1E002B8260DFDC03A9DF
:101D000003F09BFADBE783685A1E002B8260D1DC6C
:101D100003A903F092FACDE781684B1E0029836086
:101D2000D7DC02A903F089FAD3E78268511E002AA2
:101D30008160B7DC03A9019303F07FFA019BB1E74F
:101D4000E04F0100F8090010E8B20100A0F108001E
:101D50008EE700BFF0B5324A436E876E064602F149
:101D6000740102F13800BB4285B03260B060B161ED
:101D70002DD01C4654F8040B2A4DF91A0C380B1FB1
:101D8000A842C3F380033FD1A7420CD023B954F833
:101D9000040B0C38A84225D154F8040B0C38A84287
:101DA00017D1A742F3D1706E08B103F035FD306E44
:101DB0000C38A8421FD11C4906F1080001F13C0271
:101DC000B160026116F00CF8304605B0F0BD154D5B
:101DD000E9E783685A1E002B8260E2DC03A903F066
:101DE0002CFADEE783685A1E002B8260D4DC03A93C
:101DF00003F023FAD0E781684B1E00298360DADC08
:101E000002A903F01AFAD6E78268511E002A8160FF
:101E1000BADC03A9019303F010FA019BB4E700BFF9
:101E2000E04F0100F8090010E8B20100A0F108003D
:101E3000FFF790BF2DE9F04100F1080588461746ED
:101E400004461E46FFF782FA41463A4600232846DA
:101E500015F062FD0A4A002302F1080002F1400178
:101E60007C32A261074A2060A16028462266636630
:101E7000A366E366314615F03BFD2046BDE8F081E0
:101E8000D84F0100040A00102DE9F0470446A3686A
:101E9000406886B098420D4617463CD018B1011FE5
:101EA00003F0B7F9606804306060394603A803F0B6
:101EB000B0F96468A4F10800461BB610002E1DDDC1
:101EC00006F1FF3818F0010F12D00C3C214603F048
:101ED000CDF92046041F4646214603F0C7F9013ECE
:101EE0000CD0271F2046394603F0C0F9013E384682
:101EF000041F214603F0BAF9013EF2D103A9284696
:101F000003F0B4F903987C490C38884240F0E18032
:101F100006B0BDE8F0872368C3EB00085FEAA800BD
:101F200000F0A5804200904240F2DD80C3EB050A3C
:101F30006FF040426FF003094FEAAA0A002A00F04E
:101F4000A080484603F0E8FC8046061D18EB8A0096
:101F500002D0394603F05DF92768AF422FD0EE1B5F
:101F6000A6F1040CCCF3800AB8F1000F03D0404670
:101F7000394603F04EF90437BD4208F104061DD07E
:101F8000BAF1000F08D01EB13046394603F041F9CE
:101F900004370436BD4211D007F1040A39463046F1
:101FA0000EB103F036F904363046514601D003F045
:101FB00030F90AF104070436BD42EDD104366768F2
:101FC000AF422BD0791B081FC0F3800A1EB13046E8
:101FD000294603F01EF904350436AF421DD0BAF18C
:101FE000000F08D01EB13046294603F012F904351F
:101FF0000436AF4211D005F1040A294630460EB12D
:1020000003F007F904363046514601D003F001F9D8
:102010000AF104050436AF42EDD167682068B84282
:102020001BD0054655F8041B381A334B021FA1F18B
:102030000C008342C2F380023CD1AF420CD022B9E3
:1020400055F8040B0C3883421ED155F8040B0C389C
:10205000834224D1AF42F3D1206808B103F0DCFB06
:1020600008EB0903C4F800806660A36050E7012212
:102070004FEA8209C3EB050A4FEAAA0A002A7FF455
:1020800060AF0426904661E78268511E002A816095
:10209000DBDC04A9009303F0D0F8009BD5E782684D
:1020A000511E002A8160D5DC04A9009303F0C5F815
:1020B000009BCFE7816801F1FF3C0029C0F808C010
:1020C000BBDC04A90192009303F0B7F8009B019ACE
:1020D000B3E783685A1E002B82603FF719AF05A94A
:1020E00003F0ABF814E76FF040494A4528BF4A4671
:1020F0004FEA8209BEE700BFF809001070B5036817
:102100000446A6684068CD1AAD10B04201D088429E
:1021100006D02046FFF7B8FE236803EB850070BDAC
:1021200020B1114603F075F86068236804306060E0
:1021300003EB850070BD00BF70B5054682B0083066
:1021400015F0E3FB08B902B070BDE8690AF06EF85B
:10215000E8690AF0A9F8C4B20D2CF4D00A2C24D0F6
:102160002B6E53F80C2C53F8080C561C864203D8DF
:1021700053F8041C002907DD05F16000314603F027
:1021800091F82B6E53F80C2C9C542A6E1748A2F130
:102190000C038342D7D0002103EB060C42F8041C49
:1021A00042F80C6C8CF80C10CDE705F16004214668
:1021B000684603F02EF805F16400696E6A46FFF781
:1021C0009DFF0098094B0C38984205D120460849DC
:1021D000002203F083F9B6E781684A1E0029826075
:1021E000F4DC01A903F029F8F0E700BFF8090010BA
:1021F000944F010000220021026042608260C260B0
:10220000018242618261C261704700BF10B5846C77
:10221000806A08F05BFB04F5185402460B46D4E9CB
:102220001E0108F0D1FC10BD2DE9F04F044687B027
:10223000406A16461F4608F027FB32463B46824658
:102240008B4608F097FB06F04FFC08F055FEDDE9E1
:1022500010230746A0635946504608F08BFB06F052
:1022600043FC08F049FEA36C80465B68606BDB684A
:10227000C4F83C80D3F8B83000FB03F008F004FB4E
:102280000022454B08F076FB054638460E4608F01E
:10229000FBFA5246CDE900015B465046594608F02C
:1022A00069FB82468B46DDE9000102460B4608F0D9
:1022B00061FB2A46CDE9000133462846314608F045
:1022C000A7F9DDE90023CDE902015046594608F09F
:1022D0009DF9DDE9022308F077FC06F005FC08F023
:1022E000E3FD0746404608F0CFFA02460B4608F0E9
:1022F00041FB52465B46CDE9040108F087F906F13F
:10230000004E7346804689462A467146284608F0A4
:102310007FF902460B464046494608F055FC06F058
:10232000E3FB08F0C1FDB4F82090C7EB0908B8EB57
:1023300000080AD41FFA88F8BFB2B844A4F8407065
:10234000A4F8428007B0BDE8F08F484608F09CFA38
:10235000DDE9022308F00EFBDDE9002308F056F961
:1023600002460B46DDE9040108F052F900228046DE
:1023700089460A4B2846314608F0FCFA02460B46CD
:102380004046494608F020FC06F0AEFB08F08CFD04
:102390004FF000080746CFE700004E400000104015
:1023A0002DE9F04F064683B01746002900F0BF80A4
:1023B000086B08F08BFACDE90001002F00F0A8802F
:1023C0007169786908F00CFE08F080FA02460B4645
:1023D00008F0D0FA04460D46B869B16908F000FE6D
:1023E00008F074FA02460B4608F0C4FA82468B469F
:1023F000F869F16908F0F4FD08F068FA02460B4646
:1024000008F0B8FA524680468946204629465B467F
:1024100008F0FEF842464B4608F0FAF806F016FEC1
:10242000B76C804607F51857D7E91E45894602461E
:102430000B462046294608F00FFD80B9434D002485
:1024400020462946DDE9002308F024FDB8B92046DE
:10245000294608F071FD306303B0BDE8F08F2046D7
:10246000294642464B4608F0AFFBDDE9002304460F
:102470000D462046294608F00DFD0028E7D0B06A39
:1024800008F024FADDE9002308F074FA02460B464E
:1024900008F070FA8246F06A8B4608F017FAD7F80F
:1024A00070E07F6F724607F10047804689467046AC
:1024B0003B46394608F0ACF80022254B08F05AFAA2
:1024C0000022234B08F056FA02460B464046494686
:1024D00008F050FA02460B465046594608F096F866
:1024E00006F0B4FD8046B06A894608F0EFF902466E
:1024F0000B464046494608F067FB22462B4680467D
:10250000894608F0A9FC0028A1D044464D469EE724
:10251000B26CB06A02F5185508F0D8F902460B46BD
:10252000D5E91E0108F050FB04460D468FE7816C8B
:10253000806A01F5185408F0C9F902460B46D4E93F
:102540001E0108F041FBCDE9000136E70000F03F35
:1025500000004E402DE9F8430C46064629B10D6BAC
:10256000016B284608F0E4FF08B9BDE8F883B16ABA
:10257000284608F03FFE08F0A9F902460B4608F08D
:10258000F9F98046E06A894608F0A0F90D46B16C79
:10259000044601F51850476FD0F870E007F1004786
:1025A000724670463B46394608F032F80022194B15
:1025B00008F0E0F90022174B08F0DCF902460B4660
:1025C0002046294608F0D6F902460B4640464946C1
:1025D00008F01CF806F03AFD0446B06A0D4608F013
:1025E00075F902460B462046294608F0EDFA0446E6
:1025F0000D46306B08F06AF922462B4608F04AFC7B
:102600000028B2D02046294608F096FC3063BDE889
:10261000F88300BF00004E4070B5044686B00E46F9
:10262000234D1EE002F0F5FD01A802F017FB02A900
:1026300001A802F01BFE042130680DEB0102FEF739
:10264000ABFD616851F8040C0B1F0C38A8426360A5
:1026500012D101980C38854220D102980C3885425D
:1026600013D163682268191FC2EB030C5FEA9C0355
:1026700002A8D7D106B070BD83685A1E002B8260B5
:10268000E7DC05A902F0D9FDE3E781684A1E0029CD
:102690008260E6DC03A902F0D0FDE2E781684B1E10
:1026A00000298360D9DC04A902F0C7FDD5E700BF8B
:1026B000F80900100A4608B50168FFF71FFD08BDBC
:1026C00010B50446406846F2EE214069FEF780FCF2
:1026D000636804F51854C4E91C0158694EF6546146
:1026E000FEF776FCC4E91E0110BD00BF00F51852CC
:1026F000536970B494690A46A342CCBF4FF0800C72
:102700004FF0000C0CEB04018B4238D0A3422CDCC0
:1027100026D0661EF61A002E2CD0013303F07F035C
:10272000751E9C4205F001051AD00121B14221D04D
:1027300065B15B1803F07F039C4211D00221B142C6
:1027400004D117E09C420BD0B14213D05D1C05F0C0
:102750007F056B1CAC4203F07F0301F10201F1D154
:102760000020114670BCFFF7A5BF04F17F0CC3EB3E
:102770000C06D0E74C2101FB03001430F1E7406860
:10278000042170BCFEF708BD2DE9F04700F518578D
:10279000BB697A6903F1FF3A9A42CCBF80210021DC
:1027A000C2EB0A046418804600F1C880661E651CEE
:1027B0009A424FF04C0900F0AB80002C00F0AB8047
:1027C000511C01F07F01601E994200F0010C1FD0E6
:1027D0000120A04200F0A080BCF1000F0DD008182D
:1027E00000F07F01994213D00220A04205D193E06E
:1027F00099420DD0A04200F08F80013101F07F0C92
:102800000CF101019C4501F07F0100F10200EFD1C4
:1028100000209A42CCBF80210021C2EB0A0A8A44E0
:10282000A2452CD09A422AD0002D79D0511C01F01B
:102830007F0105F1FF3C99420CF0010A1FD04FF0D7
:10284000010CAC456DD0BAF1000F0DD0614401F020
:102850007F01994213D04FF0020CAC4504D160E0E7
:1028600099420CD0AC455CD0013101F07F0A0AF1ED
:1028700001019A4501F07F010CF1020CF0D1002119
:102880004CB997F86C30002B4FD007F12002BDE80F
:10289000F047FFF785BD9A422AD0002E4AD0013278
:1028A00002F07F0206F1FF3E9A420EF0010C1FD0AB
:1028B0004FF0010EB6453DD0BCF1000F0DD096444F
:1028C0000EF07F029A4213D04FF0020EB64504D1AB
:1028D00030E09A420CD0B6452CD0013202F07F0C89
:1028E0000CF101029C4502F07F020EF1020EF0D1C4
:1028F0000022013CFFF754FD013E013DB4F1FF3FD2
:102900001CD0BB697A6903F1FF3A9A427FF455AF54
:102910000020014681E7114609FB0180143078E769
:10292000114609FB01811431AAE72246BDE8F047B0
:10293000FFF736BD09FB02821432DAE7BDE8F08703
:102940002DE9F04700F51858474681464FF0FF360D
:102950000125002408F1140818374FF04C0AD8F864
:1029600000203B689A42CCBF80210021C2EB030CBF
:102970000CEB0100A04240F3AC809A4200F0AB8027
:10298000002C00F09680511C01F07F01601E8B42EC
:1029900000F0010E1ED00120A04200F08B80BEF19D
:1029A000000F0CD0081800F07F018B4212D00220DB
:1029B000A04204D17EE08B420CD0A0427AD00131FB
:1029C00001F07F0E0EF10101734501F07F0100F16E
:1029D0000200F0D10020002E76D0511C01F07F01C2
:1029E00006F1FF3C8B420CF0010C20D04FF0010EA1
:1029F000B6456AD0BCF1000F0ED001EB0E0C0CF006
:102A00007F018B4213D04FF0020EB64504D15CE03B
:102A10008B420CD0B64558D0013101F07F0C0CF13F
:102A20000101634501F07F010EF1020EF0D100219A
:102A30009A42CCBF4FF0800C4FF0000C03F1FF3EE8
:102A4000C2EB0E0EE644A6452CD09A422AD0002DA9
:102A500036D0013202F07F0205F1FF3C93420CF0C8
:102A6000010C1FD04FF0010EAE4529D0BCF1000F74
:102A70000DD096440EF07F02934213D04FF0020E19
:102A8000AE4504D11CE093420CD0AE4518D00132C3
:102A900002F07F0C0CF10102634502F07F020EF19F
:102AA000020EF0D10022FFF755FD01340135013649
:102AB00055E711460AFB019014307CB92146B7E76F
:102AC0000AFB02921432EEE711460AFB019114311F
:102AD000AEE7BDE8F0870020002CEFD09A427FF4EB
:102AE0007AAF00218C46A9E72DE9F04F00F5185880
:102AF000C14687B006460024012508F1140809F1F3
:102B00001809D8F800B0D9F800A0D345CCBF4FF0D1
:102B1000800C4FF0000CCBEB0A0202EB0C03A3423B
:102B200040F35A810AF1FF30D345CCBF8023002304
:102B3000CBEB0007FF18A74200F0A980D34500F0B7
:102B40004E81002C00F091800BF1010202F07F0712
:102B5000611EBA4501F001021BD00123A34200F01F
:102B6000858062B1FA1802F07F07BA4511D00223BE
:102B7000A34204D17AE0BA450BD0A34276D0781CA8
:102B800000F07F02571C924507F07F0703F1020314
:102B9000F1D100270BF1010E0EF07F03611E9A4563
:102BA00001F001011AD00122A24266D061B19B1846
:102BB00003F07F039A4511D00222A24204D15CE0C7
:102BC0009A450BD0A24258D0591C01F07F00431CFB
:102BD000824503F07F0302F10202F1D10020006B75
:102BE00007F074FE02460B46002D38D00BF1010BA6
:102BF0000BF07F0B691EDA4501F001001DD00121A9
:102C0000A9422CD068B10BEB010C0CF07F0BDA451C
:102C100013D00221A94204D121E0DA450DD0A94206
:102C20001DD00BF1010000F07F0E0EF1010CF245FA
:102C30000CF07F0B01F10201EFD10021D1F830A09F
:102C400050460492039307F041FE049ACDE9000137
:102C5000039B3846FFF7E8FA0134013551E74C2071
:102C600000FB0B6ADAF844A0EAE75F464C2303FB5B
:102C700007671437002C8DD15B464C2202FB036C96
:102C8000DCF8440007F022FE02460B46ACE7D345D1
:102C900000F0AE80002C00F086800BF1010C0CF0EF
:102CA0007F03601E9A4500F001011AD00122A24262
:102CB0007AD061B1981800F07F039A4511D00222B2
:102CC000A24204D170E09A450BD0A2426CD0581CAD
:102CD00000F07F014B1C8A4503F07F0302F10202E2
:102CE000F1D1002205920BF1010E0EF07F03621E5E
:102CF0009A4502F001011BD00122A2425CD069B1C9
:102D000003EB020E0EF07F039A4511D00222A2427D
:102D100004D151E09A450BD0A2424DD0581C00F08E
:102D20007F014B1C8A4503F07F0302F10202F1D1BF
:102D30000021086B07F0CAFD02460B460BF1010BA0
:102D40000BF07F0B601EDA4500F001001CD0012162
:102D5000A1423CD060B18B440BF07F0BDA4513D01D
:102D60000221A14204D132E0DA450DD0A1422ED099
:102D70000BF1010000F07F0E0EF1010CF2450CF09A
:102D80007F0B01F10201EFD1002004920393FFF7C2
:102D90003DFA049ACDE90001039B0598FFF744FA38
:102DA00001340135ADE65B464C2000FB0361143174
:102DB0000591002F97D15B464C2202FB036CDCF897
:102DC000440007F083FD02460B46002FB6D14C218C
:102DD00001FB0B601430D8E707B0BDE8F08F002787
:102DE000D7F830A0504607F071FD02460B4627E7A2
:102DF0000021086B059107F069FD02460B46059816
:102E0000C3E700BF10B50446FFF7BEFC2046FFF73E
:102E100097FD2046BDE81040FFF766BE00F5185349
:102E20009A695B699342CCBF4FF0800C4FF0000C65
:102E30000CEB02018B4208D0934204D04C2202FBDF
:102E4000030014307047002070470020704700BF17
:102E500070B50646044600F518552046FFF7CAF936
:102E600004F14C009834FFF7C5F9AC42F5D10023CA
:102E700063602360304670BD38B50446FEF766FADD
:102E80000949204640F8141B04F51855FFF7E0FFE8
:102E900005F12000FFF7AEF90023A360E360236192
:102EA00085F86C30204638BDA85001002DE9F04F60
:102EB000814285B006460C4666D00D68D1F8049074
:102EC000D0F800A08168C5EB09084FEAA808CAEB52
:102ED0000103B8EBA30F5BD9B8F1000F00F0F48049
:102EE000B8F1804F80F028814FEA8808404602F010
:102EF00013FD07464D451DD0C5EB090010F0040F2A
:102F00003C4606D11FB13846294602F082F9043505
:102F10003C1D1CB12046294602F07BF90435A94529
:102F200008D0043403D02046294602F072F9043553
:102F30000434EEE73068736898421DD0044654F8B4
:102F4000041B8D4D181A0C39021FA942C2F38002CE
:102F500040F00081A3420ED02AB954F8040B0C387B
:102F6000A84240F0DD8054F8040B0C38A84240F031
:102F7000CB80A342F1D1306808B102F04DFC07EBE1
:102F800008033760B3607360304605B0BDE8F08F6A
:102F90004768CAEB07039B10984549D8B8F1000F62
:102FA00040F3998008F1FF39294650464F4602F018
:102FB0005DF909F0010904350AF104048FB1B9F192
:102FC000000F06D12946204602F050F9043504349A
:102FD000013F2046294602F049F904350434013FF7
:102FE000F0D14FEA88087768C24457451BD0544651
:102FF00054F8040B604DCAEB07010C380A1FA842B5
:10300000C2F3800340F09A80A7420CD023B954F851
:10301000040B0C38A8426ED154F8040B0C38A842AB
:1030200060D1A742F3D1306800EB08037360ABE7CF
:1030300005EB830B002B2CDD03F1FF3B50462946AB
:103040005F460BF0010902F011F904350AF1040A98
:103050009FB1B9F1000F07D12946504602F006F999
:1030600004350AF1040A013F5046294602F0FEF8F1
:103070000435013F0AF1040AEED1D6F800A07768C2
:103080002168CAEB070E2EF0030CD4F8049001EB74
:103090000C0BD94522D0CBEB090313F0040F07D159
:1030A0001FB13846594602F0B4F80BF1040B04374F
:1030B0001FB13846594602F0ACF80BF1040BD94564
:1030C00004D00437EDD1F0E7474613E7326802EB4E
:1030D0008803736058E74FEA880886E70AEB88039D
:1030E000736051E783685A1E002B826099DC02A945
:1030F00002F0A3F895E783685A1E002B82608BDCF0
:1031000002A902F09AF887E78268511E002A8160BE
:103110003FF72FAF03A9009302F08FF8009B28E739
:103120008268511E002A81603FF71DAF03A90093FA
:1031300002F083F8009B16E701F0C2FE8268511E80
:10314000002A81603FF760AF02A9009302F075F892
:10315000009B59E7886800F1FF3C0028C1F808C0CF
:103160003FF7F8AE084603A90192009302F065F814
:10317000009B019AEEE600BFF80900102DE9F84F18
:1031800000F51854236866681446B34223D011B37F
:10319000013303F07F034A1EB34202F001051AD047
:1031A00001228A4217D075B19F1807F07F03B342FE
:1031B00011D002228A4206D10DE005F07F03B3420E
:1031C00009D08A4207D05D1C05F07F035D1CB34225
:1031D00002F10202F1D14C2606FB030520462946E6
:1031E000FFF764FE6B6CA86CB5F820C0636405F152
:1031F0000C0105F1140204F11403D5F82480EF6AE0
:103200002E6BD5F83490D5F838A0D5F83CB0A06432
:10321000A4F820C003C9D5F828C0E060218207CAFD
:1032200083E80700B5F84000B5F84250C4F82480A0
:10323000C4F828C0E7622663C4F83490C4F838A004
:10324000C4F83CB0A4F84000A4F84250BDE8F88FA0
:103250002DE9F84F00F5185675684C2404FB050459
:103260000D462046FFF722FE2F8C6B6CA96C27843D
:10327000EF6A636405F10C0004F1140305F1140214
:10328000D5F82480D5F828C0D5F83090D5F834A0EA
:10329000D5F838B0A164E76203C8EF6BE060218223
:1032A00007CA83E80700B5F84020B5F84250C4F8D3
:1032B0002480C4F828C0C4F83090C4F834A0C4F8FE
:1032C00038B0E763A4F84020A4F842507168481C65
:1032D00000F07F037360BDE8F88F00BF00000000BE
:1032E0002DE9F04F05460E460868A96801249DB0F7
:1032F00005F5185788423C7792469B46DDF8A0902A
:1033000000F07F8107F1140807F1180401E015F0BF
:1033100061FCD8F80010226864209142CCBF4FF0C5
:10332000800E4FF0000E531A03EB0E0CBCF17E0F13
:10333000EDDC07A8FEF75EFF05F1140007A9FFF713
:1033400087FF0798089A904221D0044654F8041B3E
:10335000101AA74BA0F10408A1F10C008342C8F396
:10336000800840F08081A24210D0B8F1000F05D152
:1033700054F8040B0C38834240F0558154F8040B88
:103380000C38834240F05F81A242F1D1079808B126
:1033900002F042FA7C69BA69944200F31A812AD099
:1033A000531E181B002800F02781013404F07F040D
:1033B000411EA24201F001011DD00123834200F011
:1033C0001B8171B104EB030C0CF07F04A24212D0FC
:1033D0000223834205D10FE1A2420CD0834200F0C8
:1033E0000B81611C01F07F014C1C8A4204F07F04B8
:1033F00003F10203F0D10024D6F804C0B268D5F876
:103400000CE02B693068A968CEEB0C0ED31A411A78
:103410008EEAEE72A2EBEE72002BB8BF5B429BB25B
:1034200090B20029B8BF494298422CBF86469E46BA
:103430001FFA81F8C645A8BFF046E2812382A18128
:10344000A564D9E90001A4F8208007F075FD60614A
:10345000D9E9020107F070FDA061D9E9040107F084
:103460006BFD52465B46E061DDE9260107F0ACFBEF
:103470005BA3D3E9002307F07DFA02460B465AA16D
:10348000D1E9000107F0A0FB82468B46404607F0D9
:103490000BFA52465B4607F06DFA07F02DFD5246D7
:1034A0005B466062DDE9260107F064FA07F044FD3F
:1034B000A062DDE9260107F03FFD4FF0000E8146D6
:1034C0000022D7E91C014B4BC4F830E0C4F82C9023
:1034D00007F050FA6B688246DB688B46D3F8B80079
:1034E00007F0E2F902460B465046594607F06CFBDE
:1034F000CDE90401484607F0E9F9824640468B468B
:1035000007F0C2F902460B465046594607F05CFBED
:1035100002460B46DDE9040107F056FB05F0E4FA2C
:1035200007F0EAFC60632046FEF770FE894602461B
:103530000B4680462046CDE90089FEF775FE6B6894
:103540000022DB686264B3F8D62031688DF8682009
:10355000B3F8D800AA688DF86900B3F8DA30914260
:103560008DF86A3008DA9DF86800012212FA00F33B
:10357000616C41EA030060647168EB68994208DAA3
:103580009DF86930012010FA03F1626C42EA0100F3
:103590006064B1682A69914208DA9DF86A300122B4
:1035A00012FA03F0616C41EA0003636405F1080E4E
:1035B00096E807008EE807002846FFF723FC002066
:1035C0003877032168682A46FDF7E6FD1DB0BDE89F
:1035D000F08F02F17F08C4EB0800E3E6AFF3008050
:1035E0000000000080842E4100000000389C8C41C7
:1035F000F809001000004E404C2202FB0454143421
:10360000FAE67268EB689A4206D005F51858444607
:10361000183408F114087CE6B06829698842F4D1AE
:1036200000223A77D2E7816801F1FF3C0029C0F817
:1036300008C03FF7A3AE1BA90292039301F0FDFD62
:10364000039B029A9AE6816801F1FF380029C0F8CD
:1036500008803FF799AE1BA90292039301F0EDFD9C
:10366000039B029A90E6D0F808E00EF1FF31BEF11C
:10367000000F81603FF777AE1BA90292039301F020
:10368000DCFD039B029A6EE62DE9F84F00F5185613
:1036900035684C2404FB05050C4608462946FFF70F
:1036A00005FC2F8C6B6CA96C2784EF6A636405F1B1
:1036B0000C0004F1140305F11402D5F82480D5F8A8
:1036C00028C0D5F83090D5F834A0D5F838B0A1642A
:1036D000E76203C8EF6BE060218207CA83E8070056
:1036E000B5F84020B5F84250C4F82480C4F828C08A
:1036F000C4F83090C4F834A0C4F838B0E763A4F834
:103700004020A4F842503168481C00F07F03336029
:10371000BDE8F88FF0B595B004466846FEF76AFD3F
:1037200020466946FFF7B0FF0098019EB0421AD0CC
:10373000044654F8043B1C4D301A0C3B071FAB42A7
:10374000C7F3800726D1A6420CD027B954F8040B42
:103750000C38A84215D154F8040B0C38A84207D1F4
:10376000A642F3D1009808B102F056F815B0F0BDAA
:1037700083685A1E002B8260F2DC13A901F05DFD04
:10378000EEE783685A1E002B8260E4DC13A901F087
:1037900054FDE0E79868411E00289960D3DC184684
:1037A00013A901F04AFDCEE7F809001010B500F5A5
:1037B000185200F11404012382F86C3020460021D5
:1037C0002032FFF7DBFC2046BDE81040FFF7A2BF28
:1037D00038B50446202002F09FF861680546496923
:1037E00001F0B6FA236820465A68022165659047C1
:1037F00060684BF6FD014069FDF7EAFB0022114BC2
:1038000007F0E2F96368C4E91201586941F6E91169
:10381000FDF7DEFB00220B4B07F0D6F96368C4E925
:103820001001586947F2E051FDF7D2FB6368C4E923
:103830001601586943F66E41FDF7CAFBC4E9180149
:1038400038BD00BF00004E4010B50446FDF77EFDB8
:103850000F4900230120022284F8380084F839003F
:1038600084F85100216084F83A3084F8503084F8AC
:103870005220A360E36023616361A361E36123627B
:103880006362A362E36223636363204610BD00BFEB
:1038900000510100000000002DE9F04F0546406D89
:1038A00091B006680C46CDE9042333680DAA984709
:1038B000D5E90823D4E9000106F0A8FE02460B462C
:1038C00007F058F8D5E90A2306460F46D4E9020165
:1038D00006F09CFE02460B4607F04CF8D5E90C2397
:1038E00080468946D4E9040106F090FE02460B4664
:1038F00007F040F8424682468B4630464B463946F2
:1039000006F086FE52465B4606F082FE05F09EFB00
:1039100025A3D3E9002382468B4604F1100607F065
:103920009BFA00283DD1DDE904235046594607F0B3
:103930004BF9D5E9082380468946D4E9000106F011
:1039400065FE42464B4607F03FF9D5E90A23CDE92B
:103950000601D4E9020106F059FE42464B4607F043
:1039600033F9D5E90C23CDE90801D4E9040106F0C7
:103970004DFE42464B4607F027F96B68CDE90A0138
:1039800006AF18690DA9DDE904232035CDE900ABA8
:103990000297FFF7A5FC0FCC0FC596E8030085E85A
:1039A000030011B0BDE8F08FFCA9F1D24D62503F89
:1039B0002DE9F04F06468FB089460F46F9E802011F
:1039C000CDE90423D6E9022306F020FE02460B4689
:1039D00006F0D0FFD6E9042304460D46D7E90201DC
:1039E00006F014FE02460B4606F0C4FFD6E9062395
:1039F0008B468246D7E9040106F008FE02460B46D4
:103A000006F0B8FF5B46CDE9020152462046294642
:103A100006F0FEFDDDE9022306F0FAFD05F016FBD7
:103A20000022002304460D4607F1100B07F00AFAA6
:103A3000002840F03581D6E916232046294607F0B4
:103A4000C3F805F051F80DF1200A06F108045546B7
:103A5000CDE902010FCC0FC594E8030085E803000F
:103A6000DDE9020107F048FA80B200F1FF3CBCF149
:103A7000000FCDF808C040F30D8106F015FFD6E920
:103A80000223029CCDE90001D7E9000104F1FF3EC9
:103A90000EF0010506F0BAFDDDE9002307F094F809
:103AA00002460B46DDE9080106F0B2FDD6E9042323
:103AB000CDE90801D9E9000106F0A8FDDDE9002300
:103AC00007F082F802460B46DDE90A0106F0A0FD88
:103AD000D6E90623CDE90A01DBE9000106F096FDEF
:103AE000DDE9002307F070F802460B46DDE90C0122
:103AF00006F08EFDDDE90423CDE90C014FF001084D
:103B000030465146FFF7C8FE444540F3C380002DC0
:103B100040D0D7E90001D6E9022306F077FDDDE9C0
:103B2000002307F051F802460B46DDE9080106F0D4
:103B30006FFDD6E90423CDE90801D9E9000106F0BB
:103B400065FDDDE9002307F03FF802460B46DDE99D
:103B50000A0106F05DFDD6E90623CDE90A01DBE99D
:103B6000000106F053FDDDE9002307F02DF80246C1
:103B70000B46DDE90C0106F04BFDDDE90423CDE940
:103B80000C0130465146FFF787FE029B4FF00208BA
:103B900043457FDDDDE90045D7E90001D6E9022391
:103BA00006F034FD22462B4607F00EF802460B467F
:103BB000DDE9080106F02CFDD6E90423CDE9080172
:103BC000D9E9000106F022FD22462B4606F0FCFF53
:103BD00002460B46DDE90A0106F01AFDD6E9062386
:103BE000CDE90A01DBE9000106F010FD22462B4673
:103BF00006F0EAFF02460B46DDE90C0106F008FD7F
:103C0000DDE90423CDE90C0130465146FFF744FEBF
:103C1000D7E90001D6E9022306F0F8FC22462B463C
:103C200006F0D2FF02460B46DDE9080106F0F0FC83
:103C3000D6E90423CDE90801D9E9000106F0E6FC44
:103C400022462B4606F0C0FF02460B46DDE90A017C
:103C500006F0DEFCD6E90623CDE90A01DBE9000126
:103C600006F0D4FC22462B4606F0AEFF02460B4679
:103C7000DDE90C0106F0CCFCDDE90423CDE90C0103
:103C800030465146FFF708FEDDF808C008F102088B
:103C9000C44581DC30463946DDE90423FFF7FCFDED
:103CA0000FB0BDE8F08F00BF2DE9F04F8FB0044694
:103CB0009246DDE918019B46DDE91A2306F05AFE1B
:103CC00006460F46DDE91C0107F0EEF80028B8BFF4
:103CD000404206F0E9FD02460B463046394605F003
:103CE0005DF90022002306460F4607F0ABF80028D6
:103CF00040F0A380D4E918233046394606F064FF2B
:103D000004F0F2FE07F0F8F886B2304606F0CCFD7B
:103D1000804689464246DDE918014B4606F054FFCD
:103D200042464B46CDE90001DDE91C0106F04CFF9F
:103D3000CDE902015046594605F0EAF8DDE91A23BB
:103D400006F018FE94F85080024608F1010504EBD5
:103D5000C5050B46D5E9000106F058FCCDE9040184
:103D60005046594604F044FFDDE91A2306F002FEEE
:103D700094F8517002467D1C04EBC5050B46D5E94D
:103D8000000106F043FC94F852300EAADD00CDE9A4
:103D9000060104EBC3035119D3E9022341E90623C9
:103DA000002E4AD006F1FF3900260DE094F852505B
:103DB0000DF1380EED0094F8508094F851700EEB30
:103DC0000503013653E906230DF1380EDDE9020142
:103DD000754406F01DFCDDE9002345E90601504667
:103DE000594606F015FC82468B4605F091F8DDE950
:103DF0001A2306F0BFFDDDE9042306F009FC0EAA34
:103E000002EBC80848E906015046594604F0F0FEA6
:103E1000DDE91A2306F0AEFDDDE9062306F0F8FB26
:103E20000EAB03EBC70747E90601DDE91E23204679
:103E300008A9FFF731FD4E45B8D10FB0BDE8F08FAE
:103E40002DE9F04F90F8508090F851704FEAC80B70
:103E500001EB0B035B684FEAC70A8FB0044601EB26
:103E60000A0051F83760406851F838100C930C9BE9
:103E700000F100490B910D90084603F1004129F033
:103E80000043089609931546DDE9082306F09CFED9
:103E900004F086FC0022CDE90801002330464946A3
:103EA00006F0F8FF88B9DDE908010022002306F0DA
:103EB000F1FF002800F09780DDE9082350A1D1E947
:103EC000000106F0A3FBCDE90801AA4432460D9B90
:103ED000DAE9000104EBC70706F098FBD7E90223F3
:103EE00006F094FBAB4407468A460B9A0C9B04EB06
:103EF000C808DBE9000106F089FBD8E9022306F0D7
:103F000085FB3A462AF0004306F05EFE04F048FCCA
:103F100000228046894638465146002306F0BAFF03
:103F200080B9404649460022002306F0B3FF00282E
:103F300055D135A1D1E9000142464B4606F066FB5A
:103F400080468946DDE9080142464B4606F098FF67
:103F500040B1404649462EA3D3E9002306F058FB62
:103F60008046894640464946DDE9082306F04EFB77
:103F700094F83A308046032B894606D124A3D3E92E
:103F8000002306F043FB8046894632460D9B0B9882
:103F90000C9905F003F894F85260CDE9020104EBA6
:103FA000C60305EBC601D3E90223D1E90001CDE93F
:103FB000008906F02BFBD4E91267DDE90823CDE97F
:103FC00004012046CDE90667FFF76EFED4E912230F
:103FD000204629460FB0BDE8F04FFFF75DBC08A1B1
:103FE000D1E90001A8E7DDE9082307A1D1E9000133
:103FF00006F00CFBCDE9080167E700BFAFF30080D6
:10400000182D4454FB210940182D4454FB2109C0AC
:10401000182D4454FB2119402DE9F0430D46074665
:104020008DB04721284600F01FFE002840F0A880F0
:104030004FF0000E0DEB0E0806AC07F1080608F174
:10404000080CA146B046B8E80F00A9E80F0098E8B0
:1040500003004CF804EB4CF804EB4CF804EB89E853
:104060000300CCF800E028464921CDF800E0CDF867
:1040700004E000F0F9FD002840F0AC8128464A2118
:1040800000F0F2FD002840F0C08128464B2100F0EE
:10409000EBFD002840F0D4812846582100F0E4FDD3
:1040A000002840F072812846592100F0DDFD0028EB
:1040B00040F02A8128465A2100F0D6FD002840F021
:1040C00047812846462100F0CFFDD8B197F83A3015
:1040D000002B2FD12846462100F0D0FD97F838500C
:1040E00002460B4635B1B8A3D3E9002306F06CFDB8
:1040F00002460B46104619460022B54B06F064FDF9
:10410000C7E9100197F83AC0BCF1030F09D8DFE8FE
:104110000CF002302A2A38462146D7E91023FFF74F
:1041200047FC0FCC0FC694E8030086E803000DB0EF
:10413000BDE8F0832846462100F0A0FD97F83850EE
:1041400002460B4635B1A0A3D3E9002306F03CFD9F
:1041500002460B461046194600229D4B06F034FDE0
:10416000C7E91201CEE7384669462246FFF768FEE6
:10417000D7E738462146D7E91223FFF719FCD0E7E5
:104180002846472100F07AFD06F08EFE5B283FF6B8
:104190004FAF01A252F820F0E9440000F1440000C2
:1041A000854400008D440000314000003140000093
:1041B000314000003140000031400000314000003B
:1041C000314000003140000031400000314000002B
:1041D00031400000314000003140000095440000B3
:1041E000A9440000BD440000D1440000D9440000AF
:1041F00031400000314000003140000031400000FB
:1042000031400000314000003140000031400000EA
:1042100031400000314000003140000031400000DA
:1042200031400000314000003140000031400000CA
:1042300031400000314000003140000031400000BA
:1042400031400000314000003140000031400000AA
:10425000314000003140000031400000314000009A
:10426000314000003140000031400000314000008A
:10427000314000003140000031400000314000007A
:10428000314000003140000031400000314000006A
:10429000314000003140000031400000314000005A
:1042A000314000003140000031400000314000004A
:1042B000314000003140000031400000314000003A
:1042C000314000003140000031400000314000002A
:1042D000314000003140000031400000314000001A
:1042E000314000003140000031400000314000000A
:1042F00031400000314000003140000031400000FA
:10430000E14400007D4400002846592100F0B6FC3D
:1043100097F838C002460B46BCF1000F06D02AA31E
:10432000D3E9002306F050FC02460B4697F83910FB
:10433000002940F0A080DDE9080106F069F9CDE927
:10434000080128465A2100F08FFC00283FF4B9AE3E
:1043500028465A2100F092FC97F838E002460B46B6
:10436000BEF1000F06D018A3D3E9002306F02CFC01
:1043700002460B4697F83900002876D1DDE90A019C
:1043800006F046F9CDE90A019BE62846582100F0DF
:1043900075FC97F838E002460B46BEF1000F06D0D8
:1043A00009A3D3E9002306F00FFC02460B4697F859
:1043B000390000285CD1DDE9060106F029F9CDE9D4
:1043C000060170E6AFF30080666666666666394091
:1043D00000004E402846492100F050FC97F838C0B4
:1043E00002460B46BCF1000F06D043A3D3E90023DD
:1043F00006F0EAFB02460B4628464A21CDE9002397
:1044000000F032FC00283FF440AE28464A2100F07C
:1044100035FC97F838E002460B46BEF1000F06D097
:1044200035A3D3E9002306F0CFFB02460B4628460E
:104430004B21CDE9022300F017FC00283FF42CAEFD
:1044400028464B2100F01AFC97F838C002460B466C
:10445000BCF1000F06D028A3D3E9002306F0B4FB7B
:1044600002460B46CDE9042316E60020002187E72B
:1044700000200021A1E7002000215EE7002487F84A
:104480003940D5E5022187F83A10D1E5032287F8B3
:104490003A20CDE500230126022487F8503087F822
:1044A000516087F85240C3E500220221012087F8BD
:1044B000502087F8511087F85200B9E501230226F1
:1044C000002487F8503087F8516087F85240AFE5F4
:1044D000012087F83800ABE5002187F83810A7E500
:1044E000012287F83920A3E5002387F83A309FE5B9
:1044F000012087F83A009BE5666666666666394085
:1045000070B505460C46FFF787FD6B6821461869B4
:10451000BDE87040FEF7EAB801224FF040235A6030
:10452000704700BFF0B50568724E87B00321306058
:104530006A68714F044690470FCF0DF1040CACE848
:104540000F003B686168CCF8003048694AF25D5161
:10455000FCF73EFD06F0A8FC6668C4F8B40046F21D
:10456000F3117069FCF734FD06F09EFC6568C4F831
:10457000B80042F22B316869FCF72AFD06F094FC82
:104580006768C4F8C00045F29E517869FCF720FDC9
:1045900006F08AFC6268C4F8C40047F2F34150692F
:1045A000FCF716FD06F080FC06AB03EB800656F820
:1045B000145C6768C4F8C850786949F67611FCF74E
:1045C00007FD06F071FC06AA02EB800C5CF8143CB7
:1045D0006068C4F8CC30406942F6CC41FCF7F8FC86
:1045E00006F08AFC6668A4F8D00045F26261706942
:1045F000FCF7EEFC06F080FC6568A4F8D20040F2FF
:10460000C9416869FCF7E4FC06F076FC6768A4F829
:10461000D4004DF64F217869FCF7DAFC06F06CFC0B
:104620006268A4F8D60046F6E4715069FCF7D0FC45
:1046300006F062FC6368A4F8D8004BF24C5158694C
:10464000FCF7C6FC06F058FCB4F8D850B4F8D670A5
:104650000123B4F8D0C0B4F8D260B4F8D41082B258
:1046600013FA05F513FA07F703FA0CFE13FA01F132
:1046700013FA06F69340ED197644ED180023D4F8AA
:10468000B8207618A4F8DA00A3621C481C49E3613C
:104690001C4B6062616304F10C0093FBF2F1C4F8FF
:1046A000DC60C4F8E050246212F069FC164A4FF056
:1046B000402C42F210714FF4FA73CCF818100B2012
:1046C000CCF81C3002210823CCF81400116082F8C9
:1046D0000433D4F8C820D4F8DC101068D4F8CC30F7
:1046E000084310601968D4F8E00041EA00021A603B
:1046F00007B0F0BD44090010705101002D4B0000BF
:104700000D47000040420F0000E100E000B58C467C
:10471000496883B00246DCF800006B4611F0010FD7
:1047200003C305D1009B02EB6100984703B000BDB5
:10473000481011581018009A8B58F6E738B50446FF
:10474000FCF704FE0F4920460F4D40F80C1B13F0F8
:1047500071FA0021E56004F11C0013F06FF804F118
:10476000380013F067FAA56304F14800002113F044
:1047700065F8064A0023A263A360C4F8BC30204653
:1047800038BD00BF48510100F8B1010018B1010067
:1047900070B585680446288C06F0D4FC0646A889C6
:1047A00006F0D0FC0146304606F0D8FD4FF08F41B0
:1047B00006F020FD06F08AF804F062FA06F074FBB9
:1047C000E067E88906F0BEFC0146304606F0C6FD0B
:1047D0004FF08F4106F00EFD06F078F804F050FA25
:1047E00006F062FBC4F88000288A06F0ABFC0146A4
:1047F000304606F0B3FD4FF08F4106F0FBFC06F0AB
:1048000065F804F03DFA06F04FFBC4F8840070BD73
:104810002DE9F04F816883B0074614461D460029F4
:1048200075D0D0F80490D9F8101001F51852137F04
:10483000002B6CD1D0F8C00006F036F822462B468B
:1048400082468B4606F026FB00285DD00022314BC5
:104850005046594606F0B8F9CDE90001D7F8C40032
:1048600006F022F8DDE9002306F0AEF900258246C5
:104870008B464FF0010800E025466C1C08FA04F056
:1048800006F012F852465B46012606F0E5FA0028CB
:10489000F2D1214CC7F8BC502468A00805F0F4FF01
:1048A000824616FA05F08B4605F0FEFF02460B46DF
:1048B000DDE9000106F05EF802460B465046594617
:1048C00006F082F904F0DCF906F016FB4FF0402305
:1048D000986198689A69904202D3032159605E609A
:1048E0000E49D7F8B430A1FB0412100D03FB00F4FD
:1048F0004FF0402C484605213A46CCF81C4003B006
:10490000BDE8F04FFCF748BCA246AB469EE703B0BB
:10491000BDE8F08F00004E40F000001083DE1B4326
:1049200038B583680446986B05F0AEFF0025024653
:104930000B46C4E92823C4F8A8502046FFF768FFB7
:1049400084F8B05038BD00BFF0B5D0F89810D0F85A
:10495000E020D0F8DC700446D0F8CC30A568D0F860
:10496000C80001EA02063940DA6183B09E618161C4
:10497000002D00F08B80D4F8BC104FF4803050FA3A
:1049800001F3626EB4F8D260E06F696C9A18B4F803
:10499000D0C0ADF80260B4F8D4608242C4F8981078
:1049A000ADF800C0ADF80460626610DD266FAF8917
:1049B000BE420CDABDF800704FF0010C0CFA07F79C
:1049C000121A6644394362662667C4F89810A06ECE
:1049D000D4F880101A188A42A26612DD606FEE8940
:1049E000B0420EDABDF80260012717FA06F6D4F8D5
:1049F0009870521A47EA0606411CA2666167C4F81D
:104A00009860E06ED4F884101A188A42E26612DDCB
:104A1000A06F2E8AB0420EDABDF80460012717FAA3
:104A200006F6D4F89870521A47EA0606411CE26668
:104A3000A167C4F89860D4F89400B5F820C01B189A
:104A4000B3EB0C4FC4F8943003DBAA89216F914279
:104A500001D003B0F0BDB5F80EC0606F6045F8D16D
:104A60002B8AA16F9942F4D12A4660680721FCF78E
:104A700093FBA068211DFDF7CFFD6068002200694F
:104A8000A26003B0BDE8F040FEF790BE6068006928
:104A9000FEF7C4F9A060D0B12046FFF741FF2046E1
:104AA000FFF776FE65662567A5666567E566A56717
:104AB000C4F8945060680621A268FCF76DFBA568F5
:104AC000002D7FF458AF0021C4F89810C1E74FF0D3
:104AD000402C42F210724FF4FA73CCF81820CCF844
:104AE0001C30CCF80400EEE74FF040231A6812F0B7
:104AF000020F0AD00C481968026841F00200D2F88F
:104B0000C810D2F8DC201860CA614FF040231A6840
:104B100012F0010F00D170471868034940F00102FC
:104B200008681A60FFF710BF440900102DE9F84328
:104B300090F8B0300646002B34D141680B6903F57C
:104B40001852117F00292DD18768012280F8B020EA
:104B50002FB3D0F89430B7F84040A34224DA786BF2
:104B600005F092FED6E9282305F052FD04460D46D5
:104B7000C6E92845786A05F087FE804689462046C2
:104B8000294642464B4606F085F918B1C6E9288900
:104B900044464D46304622462B46FFF739FE00205C
:104BA00086F8B000BDE8F883B7F84250AB4225DD87
:104BB000D0E92845786B05F067FE80468946204697
:104BC000294642464B4606F065F948B1204629463B
:104BD00042464B4605F01AFD04460D46C6E92845F7
:104BE000F86B05F051FE804689462046294642462C
:104BF0004B4606F031F90028CCD0C7E7786A05F0BB
:104C000043FE04460D4602460B46D6E9280106F04F
:104C100019F90028C3D1C6E92845BBE710B50A4CED
:104C2000204613F007F80949204640F8101B0021E0
:104C300012F004FE064B0749074A20462360BDE8F0
:104C4000104000F06ABD00BF48090010F8B1010033
:104C500018B101007D6C0100C4000010014B03601D
:104C6000704700BF040A0010002208B500F092F956
:104C7000B0F1FF3018BF012008BD00BF70B50022A1
:104C800082B0054600F086F9441C0C2317490646FD
:104C90002246284600F0B6F92968B0F1FF3F51F8E6
:104CA0000C3C08BF581C9C4214D8F34322462946AA
:104CB0001B18684600F0B2FC009807F06EF9044635
:104CC00000980B4A0C3890420D4606D120462946E2
:104CD00002B070BD074800F0FCF881684A1E002948
:104CE0008260F3DC01A900F0A8FAEFE7905101001F
:104CF000F8090010984C0100704700BF704700BFD2
:104D0000014B0360704700BFA8510100704700BF0E
:104D100070B5064614460D46D6E90223D1E90001D6
:104D200005F028FE04F030F8D6E904232060D5E928
:104D3000020105F01FFE04F027F8D6E906236060A3
:104D4000D5E9040105F016FE04F01EF8A06070BD60
:104D500038B504460D46FFF7D3FF0D4B6560236061
:104D600028464BF27A51FCF733F9C4E90201606836
:104D700043F21061FCF72CF9C4E90401606848F2C1
:104D80007711FCF725F9C4E90601204638BD00BFBC
:104D9000E0510100124B10B41A6812F0020F08D053
:104DA0001A68104842F0020102681960106AD3695B
:104DB000D8610B4B196811F0010F0ED0094A1C681D
:104DC000126844F00104D16A906A1C60814204D2E6
:104DD000D369106A0131D162986110BC704700BF7D
:104DE0000080004074090010036810B504210446D7
:104DF0005A689047216820464B680521984710BDA6
:104E0000037E70B50C4603B970BD896800F10805D2
:104E1000486A05F039FD02460B46D4E9280105F041
:104E2000D3FE06F089F801462846BDE8704011F02F
:104E30004FBD00BF38B50C46054647212046FFF759
:104E400013FF00B938BD20464721FFF717FF06F0D2
:104E50002BF8044628B1441E022CF3D801232B76EC
:104E600038BD05F10800002111F032FD2C7638BD67
:104E700070B505460E46FCF769FA074B2C4644F818
:104E8000083B31460022204611F012FD20460A213F
:104E900011F00AFD284670BD1052010006488047F7
:104EA00006480047FEE7FEE7FEE7FEE7FEE7FEE70F
:104EB000FEE7FEE7FEE7FEE721810100E9020000D0
:104EC00008B507F059F808B507F056F808B507F027
:104ED00053F808B507F050F80B780370704708F0E6
:104EE00083BA08F033BF0B4611781A4608F06EBA41
:104EF00008F093BA08F086BA006870470160084667
:104F0000704708B5FFF7F8FF0C3808BD012A01D13A
:104F1000FFF7E2BFFFF7EEBF012A01D1FFF7DCBFC9
:104F2000FFF7E6BF521AFFF7F1BF521AFFF7EEBFC5
:104F3000401A704708B5FFF7E4FF006808BD38B5B0
:104F40000C461546FFF7F6FF001BA84228BF28466F
:104F500038BD38B50C461546FFF7ECFF844202D940
:104F60002846FFF7B6FF204638BD70B50C461546FB
:104F70001E46FFF7DFFF04F18044043C241AAC42D4
:104F800002D23046FFF7A2FF70BD08B5FFF7B9FFA8
:104F9000406808BD73B5154604468DF80710FFF745
:104FA000C9FF854206460CD22046FFF7A5FF711BBC
:104FB0000DF1070204464019FFF795FF08B1001BE9
:104FC00001E04FF0FF307CBD2DE9F04105460E4673
:104FD00014461F468BB1FFF7ADFF804600E0013459
:104FE00044450AD22846FFF787FF39460219304662
:104FF000FFF779FF0028F2D001E04FF0FF342046A0
:10500000BDE8F0812DE9F04106460D46144698466C
:10501000FFF790FF074609E03046FFF76DFF414676
:1050200002192846FFF75FFF20B10134BC42F3D3D9
:105030004FF0FF342046BDE8F08101607047806882
:10504000C00F704780680028D4BF0020012070473F
:105050004FF0FF33836070470023836070470C304C
:1050600070470000094B70B5984204460D460BD0BE
:10507000FFF7F2FF25602046FFF7F1FF04494019D2
:10508000BDE87040FFF728BF70BD00BFF8090010F1
:1050900040520100034B984202D083680133836081
:1050A000FFF7DDBFF809001010680B6883422CBFC2
:1050B00000200120704730B587B004460191FFF70A
:1050C0001BFF01A902AA029004A8FFF7EDFF70B927
:1050D0002046FFF711FF05462046FFF72BFF03A9E7
:1050E00001AA2818039005A8FFF7DEFF00E00120C1
:1050F00007B030BD0A6803689A4238BF0846704757
:105100002DE9F3410E468046FFF714FF0190054656
:105110003046FFF7E6FE69460090044601A8FFF717
:10512000E9FF07464046FFF7E7FE31463A68FFF7DA
:10513000D6FE18B928462146FFF7FAFEBDE8FC81E5
:10514000084600F0E9BB0000164B37B5984204460C
:1051500002D91548FFF7BAFE884203D94B009C429A
:1051600038BF1C4604F11D0204F10D03B2F5805F47
:105170000CD98C420AD9130504F58054094A1B0D39
:10518000E41A944228BF144604F10D031946002284
:1051900001A8FFF7D5FF05464460FFF75DFF2846ED
:1051A0003EBD00BFFCFFFF3F7B5201002DE9F041F7
:1051B000044600680B46616810181A46FFF7C4FFE2
:1051C0002668054656B1FFF74AFF07462046FFF717
:1051D00046FF324601463846FFF798FE28462168CA
:1051E000FFF740FF2846BDE8F041FFF738BF70B534
:1051F00004460D46FFF723FF20B92046BDE8704066
:10520000FFF748BF204629460022BDE87040FFF75F
:10521000CDBF1FB504460846FFF773FE03A902AAD7
:10522000FFF7E5FF01AA01462046FFF706FF2046EB
:1052300004B010BD084600F0EFBA07B50146426859
:1052400001A80D32FFF7F6FF0EBD0000064A10B5AB
:10525000904208D08268541E002A846003DCBDE8B6
:105260001040FFF7EABF10BDF809001073B50E46F5
:105270000446FFF746FE05463046FFF742FE8542EC
:105280000ED001A96A46FFF7B2FF05462046FFF798
:1052900038FE01A9FFF7DAFF20462946FFF72EFE68
:1052A00020467CBD73B50E460446FFF76EFE86426F
:1052B00005D12046FFF725FEFFF7C4FEC0B120460A
:1052C000FFF738FE0546B04228BF06462046FFF7E6
:1052D00018FE721B01A9FFF769FF05462046FFF77C
:1052E00010FE01A9FFF7B2FF20462946FFF706FE90
:1052F0007CBD00002DE9F04104460D461646002A0B
:105300003AD000211E4BFFF730FE2046FFF712FE79
:1053100087192046FFF739FE874205D82046FFF758
:10532000F0FDFFF78FFEA8B120462946FFF7C3FE28
:1053300020B120463946FFF7B5FF0BE02046FFF7C6
:10534000DBFD39462D1A2046FFF7ACFF2046FFF75C
:10535000D3FD45192046FFF7CFFD80462046FFF7D5
:10536000E9FD294632464044FFF7D0FD2046FFF7CD
:10537000C8FD3946FFF776FE2046BDE8F08100BF44
:10538000935201002DE9F843044608460F46FFF703
:10539000D1FD064648B32046FFF7CCFD85192046CF
:1053A000FFF7F3FD854205D82046FFF7AAFDFFF77A
:1053B00049FE18B120462946FFF774FF2046FFF743
:1053C0009BFD81462046FFF7B5FD80463846FFF736
:1053D00093FD3246014609EB0800FFF797FD204692
:1053E000FFF78FFD2946FFF73DFE2046BDE8F88315
:1053F0002DE9F74F16460D4698460446FFF79AFDED
:10540000C6EB08098144471B2046BF1BFFF7BDFDC3
:105410008145824606D82046FFF773FDFFF712FE4E
:10542000002845D05146484601AAFFF78DFE824626
:1054300055B1FFF714FE83462046FFF75DFD2A466F
:1054400001465846FFF762FD77B15046A844FFF782
:1054500006FE751983462046FFF74EFD3A46411970
:105460000BEB0800FFF752FD2046FFF74AFD01A9AC
:10547000FFF7ECFE5046FFF7F2FD01462046FFF72E
:105480003DFD0DE046450BD02046FFF735FD3A4681
:10549000034608EB0500751918185919FFF73CFD6C
:1054A0002046FFF72EFD4946FFF7DCFDBDE8FE8FE5
:1054B000002FE7D1F4E7F8B51E46069C05460F46D7
:1054C0002346FFF795FF3CB12846FFF715FD31460F
:1054D0002246C019FFF71AFD2846F8BD73B50446E9
:1054E0000E461546FFF726FD2A461A4B0146204672
:1054F000FFF73BFD20463146FFF7DDFD28B920468A
:10550000FFF7FFFCFFF79EFDE0B12046FFF712FD1D
:1055100000213346009502462046FFF7CCFF10E0FD
:1055200031462A46FFF7F2FC04E01BB131462A4619
:10553000FFF7F2FC2046FFF7E4FC2946FFF792FD57
:1055400020467CBD2046FFF7D7FC331AAB42ECD394
:10555000E6E700BFA852010010B50446FFF7D1FCF2
:10556000094B83420FD0FFF76DFD28B10021204683
:105570000A460B46FFF73CFF2046FFF7C2FCBDE89A
:105580001040FFF765BD10BDF8090010D0F1010013
:1055900038BF00207047D0F1010038BF00207047AD
:1055A000081A704708B5FFF7FBFF08BD88422DE9D0
:1055B000F04105460C46904604D11248BDE8F04142
:1055C000FFF74DBDFFF7E2FF064610B10E48FFF7AB
:1055D0007AFC21462846FFF7E5FF3146424607465A
:1055E000FFF7B2FD8046FFF73AFD29462246064600
:1055F000FFF798FC40463946FFF734FD3046BDE8DA
:10560000F08100BFF80900102E53010008B5FFF724
:10561000CDFF08BD08B5FFF7F9FF08BD2DE9F74339
:105620000646084699460C461546FFF765FC29468E
:105630000E4A80462046FFF78CFC80442046FFF748
:105640005BFC29464A4607462046FFF778FC01AA3C
:10565000411940467918FFF7DDFF6A46014630469A
:10566000FFF7EBFC3046BDE8FE8300BF5853010056
:10567000081A704708B5FFF7FBFF08BD88422DE9FF
:10568000F04105460C46904604D11248BDE8F04171
:10569000FFF7E5BCFFF77FFF064610B10E48FFF7A6
:1056A00012FC21462846FFF7E5FF314642460746F1
:1056B000FFF74AFD8046FFF7D2FC29462246064600
:1056C000FFF733FC40463946FFF7CCFC3046BDE8D7
:1056D000F08100BFF80900102E53010008B5FFF754
:1056E000CDFF08BD08B5FFF7F9FF08BD70B504464A
:1056F00015460E4621B10846FFF7F3FB311801E0CD
:105700004FF0FF312A463046FFF7ECFF2A460146AC
:105710002046FFF792FC204670BD03460846194616
:1057200006F05ABC0098904214BF01200620704732
:1057300038B514461D4600F0B4F928B101200823FD
:105740002C60EB60023B2B7138BD2DE9F04198468F
:10575000069F0446089B1546099E9F420CD1079957
:1057600000F09FF940B1757103E001233760357196
:10577000B3710020BDE8F0812046414600F091F968
:105780000028F2D1F5E7F8B505460C4616461F4647
:1057900000F087F940B9032F07D82368204629462F
:1057A00032465B699847F8BD0120F8BD034B10B540
:1057B0000446036000F05AF9204610BD90530100E2
:1057C00010B50446FFF7F2FF204600F025F820460A
:1057D00010BD0022816002600271C2607047F0B5A6
:1057E000064685B00F46684610211446FFF7F1FFC4
:1057F00033683046394622689D696B46A8479DF854
:10580000043003F00603062B03D1009B0120236024
:1058100000E0002005B0F0BD08B107F0CBBB704739
:10582000FFF7FABF00F00600A0F10603584240EB74
:1058300003007047401870470022816002600271C7
:10584000427182717047F7B50E1E089C07DB104647
:10585000FFF7F0FF844214BF0120062008E016F194
:10586000020F04D0056800942C6AA04700E00120D4
:10587000FEBD2DE9F0471D46036888B088461646F0
:10588000A3F10807044653F8081CFFF7D3FFD7F825
:10589000049005AF102182463846FFF7CDFFD9F8B6
:1058A00000304846CDF800A0CDF804802946029487
:1058B00006220397DF693346B847059F3FB39DF83B
:1058C0001A904846FFF7AEFF08BB9DF819A09DF857
:1058D00018000AEA0000FFF7A5FFC0B90AF0050AA0
:1058E000BAF1040F12D0B9F1000F08D130462946A1
:1058F0003A4643460094FFF7A6FF8DF81A009DF83C
:105900001A00FFF78FFF08B1059F00E007463846F1
:1059100008B0BDE8F087000010B5002814BF0446A9
:10592000012405E0054B1B680BB906F025FB9847E1
:10593000204607F037FB0028F4D010BD080A0010FD
:10594000FFF7EABF08B51B22024902200AF0A0FFB8
:1059500000F072FBE6530100F8B504460F46164608
:105960001D46FFF7E5FE38B9A068394632460368A0
:105970009C692B46A047F8BD0120F8BD2DE9F04FEA
:1059800085B00C461946054616461F46DDF8389088
:10599000DDF840A0DDF8448000F083F88346B0B124
:1059A000002CC8F8009088F8046009DB4C44A2453C
:1059B00014BF4FF0010A4FF0060A88F806A011E064
:1059C00014F1020F0ED1012388F806300AE0D14508
:1059D0000CD128460F9900F064F838B188F80560BA
:1059E000584600E0002005B0BDE8F08FA8682146C9
:1059F0000F9A036801923246CDF80090CDF808A0C6
:105A0000CDF80C80DD693B46A847ECE72DE9F34172
:105A10000446DDF820800D4617461E46904506D107
:105A2000194600F03EF810B10620BDE8FC81A068E0
:105A300029463A460368CDF800801C6A3346A047E1
:105A4000F3E70000034B10B504460360FFF7AEFE1A
:105A5000204610BD1054010010B50446FFF7F2FFB8
:105A60002046FFF7D9FE204610BD0000014B036021
:105A7000704700BF9054010000207047002070471D
:105A80000020704710B50446FFF7F0FF2046FFF7EF
:105A9000C3FE204610BD406803782A2B08BF0130A2
:105AA0007047814238B50D4611D0FFF7F4FF0378F7
:105AB00004462A2B0DD02846FFF7EDFF014620466D
:105AC00008F031F9D0F1010038BF002038BD0120C5
:105AD00038BD002038BDFFF7E4BF2DE9F843044688
