:10000000008000109D020000A5020000A702000071
:10001000A9020000AB020000AD02000000000000D9
:10002000000000000000000000000000AF0200001F
:10003000B102000000000000B3020000B5020000A1
:10004000B7020000B7020000B7020000B7020000CC
:10005000B7020000B7020000B7020000B7020000BC
:10006000B7020000B7020000B7020000B7020000AC
:10007000B7020000B7020000B7020000B70200009C
:10008000B7020000B7020000B7020000B70200008C
:10009000B7020000B7020000B7020000B70200007C
:1000A000B7020000B7020000B7020000B70200006C
:1000B000B7020000B7020000B7020000B70200005C
:1000C000B702000040F26053C1F200031A780AB987
:1000D00001201870704700BF40F26050C1F200006C
:1000E00008B503682BB140F20003C0F2000303B16E
:1000F000984708BD39483A4970B5884223D0394CF1
:10010000A14220D2024652F8046B0B46CD4343F87D
:10011000046B6519A342C5F3800514D23DB116687E
:1001200000F108021E6001F10803A3420BD2104641
:1001300050F8045B194641F8045B5668021D5E6086
:100140000B1DA342F3D328482849884224D0284CC9
:10015000A14221D2024652F8046B0B46CD4343F82C
:10016000046B04EB050CA342CCF3800514D23DB123
:10017000156800F108021D6001F10803A3420BD2CB
:10018000104650F8045B194641F8045B5668021D9E
:100190005E600B1DA342F3D3164A1748824216D263
:1001A00000211346D64343F8041B84198342C4F349
:1001B00080040CD224B1196002F10803834206D2F4
:1001C0001A4642F8041B5960131D8342F8D300F00D
:1001D000D9FD00F039F805F0FFF900BF70590000B3
:1001E0000000001060050010905100000000001099
:1001F0000000001060050010C8050010024B162218
:100200001A604FF0FF307047C405001008B505F0C4
:10021000E3F900BF0120704770B5094D06462C6810
:100220004CB105F0CFF9A319834207D829682046BD
:100230008E192E6070BD034C2C60F2E700F07AFD41
:1002400064050010C805001070B5084C4FF48023F9
:100250001D4623601E464FF07C50A66105F018FA3B
:100260004FF07C50E56105F013FAF4E720C0092057
:1002700010B5064C00220649204604F08DFF0549C2
:10028000054A2046BDE8104000F01AB86805001085
:1002900032C00920D55100000000001006488047F8
:1002A00006480047FEE7FEE7FEE7FEE7FEE7FEE75B
:1002B000FEE7FEE7FEE7FEE741550000F50000001F
:1002C00003460846194600F051BD0098904214BFFD
:1002D00001200620704738B514461D4600F01BF972
:1002E00028B1012008232C60EB60023B2B7138BD44
:1002F0002DE9F0419846069F0446089B1546099E45
:100300009F420CD1079900F006F940B1757103E0E6
:10031000012337603571B3710020BDE8F0812046BC
:10032000414600F0F8F80028F2D1F5E7F8B50546A7
:100330000C4616461F4600F0EEF840B9032F07D8CA
:1003400023682046294632465B699847F8BD01205C
:10035000F8BD0000034B10B50446036000F0C0F880
:10036000204610BDA04D000010B50446FFF7F2FF77
:10037000204600F025F8204610BD00228160026072
:100380000271C2607047F0B5064685B00F466846F8
:1003900010211446FFF7F1FF3368304639462268D2
:1003A0009D696B46A8479DF8043003F00603062BB1
:1003B00003D1009B0120236000E0002005B0F0BDC8
:1003C00008B100F00BBD7047FFF7FABFF8B504465F
:1003D0000F4616461D46FFF77EFF38B9A06839461E
:1003E000324603689C692B46A047F8BD0120F8BD42
:1003F0002DE9F04F85B00C461946054616461F46B6
:10040000DDF83890DDF840A0DDF8448000F083F896
:100410008346B0B1002CC8F8009088F8046009DB6E
:100420004C44A24514BF4FF0010A4FF0060A88F869
:1004300006A011E014F1020F0ED1012388F8063056
:100440000AE0D1450CD128460F9900F064F838B184
:1004500088F80560584600E0002005B0BDE8F08F40
:10046000A86821460F9A036801923246CDF80090A1
:10047000CDF808A0CDF80C80DD693B46A847ECE735
:100480002DE9F3410446DDF820800D4617461E464F
:10049000904506D1194600F03EF810B10620BDE89F
:1004A000FC81A06829463A460368CDF800801C6AA2
:1004B0003346A047F3E70000034B10B50446036042
:1004C000FFF748FF204610BD004E000010B504465F
:1004D000FFF7F2FF2046FFF773FF204610BD000034
:1004E000014B0360704700BF804E00000020704742
:1004F000002070470020704710B50446FFF7F0FF5A
:100500002046FFF75DFF204610BD406803782A2B88
:1005100008BF01307047814238B50D4611D0FFF752
:10052000F4FF037804462A2B0DD02846FFF7EDFF91
:100530000146204601F08CF8D0F1010038BF0020C0
:1005400038BD012038BD002038BDFFF7E4BF0000F2
:1005500081F0004102E000BF83F0004330B54FEA74
:1005600041044FEA430594EA050F08BF90EA020FE1
:100570001FBF54EA000C55EA020C7FEA645C7FEA74
:10058000655C00F0E2804FEA5454D4EB5555B8BF97
:100590006D420CDD2C4480EA020281EA030382EA08
:1005A000000083EA010180EA020281EA0303362D9A
:1005B00088BF30BD11F0004F4FEA01314FF4801C6D
:1005C0004CEA113102D0404261EB410113F0004F7F
:1005D0004FEA03334CEA133302D0524263EB430336
:1005E00094EA050F00F0A780A4F10104D5F1200ED4
:1005F0000DDB02FA0EFC22FA05F2801841F100012F
:1006000003FA0EF2801843FA05F359410EE0A5F102
:1006100020050EF1200E012A03FA0EFC28BF4CF033
:10062000020C43FA05F3C01851EBE37101F00045E9
:1006300007D54FF0000EDCF1000C7EEB00006EEBF6
:100640000101B1F5801F1BD3B1F5001F0CD3490880
:100650005FEA30004FEA3C0C04F101044FEA4452D7
:1006600012F5800F80F09A80BCF1004F08BF5FEA5E
:10067000500C50F1000041EB045141EA050130BD3E
:100680005FEA4C0C404141EB010111F4801FA4F1E1
:100690000104E9D191F0000F04BF01460020B1FA36
:1006A00081F308BF2033A3F10B03B3F120020CDA6E
:1006B0000C3208DD02F1140CC2F10C0201FA0CF04C
:1006C00021FA02F10CE002F11402D8BFC2F1200CB1
:1006D00001FA02F120FA0CFCDCBF41EA0C01904067
:1006E000E41AA2BF01EB0451294330BD6FEA0404B0
:1006F0001F3C1CDA0C340EDC04F11404C4F120029B
:1007000020FA04F001FA02F340EA030021FA04F3AC
:1007100045EA030130BDC4F10C04C4F1200220FA03
:1007200002F001FA04F340EA0300294630BD21FA41
:1007300004F0294630BD94F0000F83F4801306BF07
:1007400081F480110134013D4EE77FEA645C18BFFB
:100750007FEA655C29D094EA050F08BF90EA020F92
:1007600005D054EA000C04BF1946104630BD91EA8A
:10077000030F1EBF0021002030BD5FEA545C05D18D
:100780004000494128BF41F0004130BD14F58004CC
:100790003CBF01F5801130BD01F0004545F0FE4140
:1007A00041F470014FF0000030BD7FEA645C1ABF75
:1007B000194610467FEA655C1CBF0B46024650EAAC
:1007C000013406BF52EA033591EA030F41F40021D8
:1007D00030BD00BF90F0000F04BF0021704730B55E
:1007E0004FF4806404F132044FF000054FF0000133
:1007F00050E700BF90F0000F04BF0021704730B5F4
:100800004FF4806404F1320410F0004548BF4042C8
:100810004FF000013EE700BF42004FEAE2014FEA1D
:1008200031014FEA02701FBF12F07F4393F07F4FF8
:1008300081F06051704792F0000F14BF93F07F4F2A
:10084000704730B54FF4607401F0004521F000416D
:1008500020E700BF50EA010208BF704730B54FF0F3
:1008600000050AE050EA010208BF704730B511F0F8
:10087000004502D5404261EB41014FF4806404F130
:1008800032045FEA915C3FF4DCAE4FF003025FEAB2
:10089000DC0C18BF03325FEADC0C18BF033202EB3A
:1008A000DC02C2F1200300FA03FC20FA02F001FA94
:1008B00003FE40EA0E0021FA02F11444C1E600BF33
:1008C00070B54FF0FF0C4CF4E06C1CEA11541DBFE6
:1008D0001CEA135594EA0C0F95EA0C0F00F0DEF8B1
:1008E0002C4481EA030621EA4C5123EA4C5350EA96
:1008F000013518BF52EA033541F4801143F48013E7
:1009000038D0A0FB02CE4FF00005E1FB02E506F077
:100910000042E0FB03E54FF00006E1FB03569CF0CC
:10092000000F18BF4EF0010EA4F1FF04B6F5007FD2
:1009300064F5407404D25FEA4E0E6D4146EB060644
:1009400042EAC62141EA55514FEAC52040EA5E50CD
:100950004FEACE2EB4F1FD0C88BFBCF5E06F1ED877
:10096000BEF1004F08BF5FEA500E50F1000041EBAE
:10097000045170BD06F0004646EA010140EA02005B
:1009800081EA0301B4EB5C04C2BFD4EB0C0541EA7D
:10099000045170BD41F480114FF0000E013C00F392
:1009A000AB8014F1360FDEBF002001F0004170BDB6
:1009B000C4F10004203C35DA0C341BDC04F11404CF
:1009C000C4F1200500FA05F320FA04F001FA05F25B
:1009D00040EA020001F0004221F0004110EBD37028
:1009E00021FA04F642EB06015EEA430E08BF20EA54
:1009F000D37070BDC4F10C04C4F1200500FA04F3F7
:100A000020FA05F001FA04F240EA020001F0004188
:100A100010EBD37041F100015EEA430E08BF20EAFB
:100A2000D37070BDC4F1200500FA05F24EEA020E43
:100A300020FA04F301FA05F243EA020321FA04F072
:100A400001F0004121FA04F220EA020000EBD37029
:100A50005EEA430E08BF20EAD37070BD94F0000F29
:100A60000FD101F00046400041EB010111F4801F5D
:100A700008BF013CF7D041EA060195F0000F18BF0E
:100A8000704703F00046520043EB030313F4801F4A
:100A900008BF013DF7D043EA0603704794EA0C0F04
:100AA0000CEA135518BF95EA0C0F0CD050EA41061A
:100AB00018BF52EA4306D1D181EA030101F0004197
:100AC0004FF0000070BD50EA410606BF10461946BF
:100AD00052EA430619D094EA0C0F02D150EA0136CB
:100AE00013D195EA0C0F05D152EA03361CBF10460C
:100AF00019460AD181EA030101F0004141F0FE41AB
:100B000041F470014FF0000070BD41F0FE4141F42E
:100B1000780170BD70B54FF0FF0C4CF4E06C1CEA2E
:100B200011541DBF1CEA135594EA0C0F95EA0C0FE3
:100B300000F0A7F8A4EB050481EA030E52EA03359E
:100B40004FEA013100F088804FEA03334FF08055BF
:100B500045EA131343EA12634FEA022245EA1115EC
:100B600045EA10654FEA00260EF000419D4208BF9D
:100B7000964244F1FD0404F5407402D25B084FEA4A
:100B80003202B61A65EB03055B084FEA32024FF4F6
:100B900080104FF4002CB6EB020E75EB030E22BF53
:100BA000B61A754640EA0C005B084FEA3202B6EB13
:100BB000020E75EB030E22BFB61A754640EA5C00C2
:100BC0005B084FEA3202B6EB020E75EB030E22BF52
:100BD000B61A754640EA9C005B084FEA3202B6EB53
:100BE000020E75EB030E22BFB61A754640EADC0012
:100BF00055EA060E18D04FEA051545EA16754FEA74
:100C000006164FEAC30343EA52734FEAC2025FEA91
:100C10001C1CC0D111F4801F0BD141EA00014FF020
:100C200000004FF0004CB6E711F4801F04BF0143F1
:100C30000020B4F1FD0C88BFBCF5E06F3FF6AFAE0D
:100C4000B5EB030C04BFB6EB020C5FEA500C50F19D
:100C5000000041EB045170BD0EF0004E4EEA113120
:100C600014EB5C04C2BFD4EB0C0541EA045170BD27
:100C700041F480114FF0000E013C90E645EA060E6B
:100C80008DE60CEA135594EA0C0F08BF95EA0C0F99
:100C90003FF43BAF94EA0C0F0AD150EA01347FF4E1
:100CA00034AF95EA0C0F7FF425AF104619462CE7B8
:100CB00095EA0C0F06D152EA03353FF4FDAE10461B
:100CC000194622E750EA410618BF52EA43067FF46C
:100CD000C5AE50EA41047FF40DAF52EA43057FF4FC
:100CE000EBAE12E74FEA410212F5001215D211D510
:100CF0006FF47873B3EB625212D94FEAC12343F019
:100D0000004343EA505311F0004F23FA02F018BF9A
:100D1000404270474FF00000704750EA013005D163
:100D200011F0004008BF6FF0004070474FF0000026
:100D3000704700BF08B5062000F04AFC0120FFF70D
:100D400065FA0000054B064A1B68596811609968EE
:100D5000044A1160DA68044B1A60704710010010F1
:100D6000B8050010BC050010C005001030B50546E0
:100D70000C461346022029462246BDE8304001F0C9
:100D80009BBD000070B500240C4D0D4E761BB610B7
:100D900003E055F8043B01349847B442F9D1094DBA
:100DA00004F0E2F9084E0024761BB61003E055F873
:100DB000043B01349847B442F9D170BD745100002E
:100DC000785100007851000080510000024B01462C
:100DD000186800F00BB800BF10010010024B01466C
:100DE000186802F0ABBC00BF100100102DE9F74FEE
:100DF00001F10B04162C074603D934F0070401D582
:100E000002E010248C4202D20C233B60D6E138462B
:100E100000F021FAB4F5FC7F974A10D2E10802EB0A
:100E2000C102D668964204D106F1080376699E4253
:100E300003D0736823F003032FE0023136E0610A28
:100E400001D1E1081BE0042902D8A109383116E0DC
:100E5000142901D85B3112E0542902D8210B6E31DC
:100E60000DE0B1F5AA7F02D8E10B773107E040F23F
:100E70005453994202D8A10C7C3100E07E2102EB50
:100E8000C102D6680FE0736823F00303181B0F2814
:100E900001DD013909E0002804DBF268B168CA60AD
:100EA000916020E0F6689642EDD10131724D05F176
:100EB00008029668964277D0736823F00303181BE4
:100EC0000F280CDD331944F00104D3609360746083
:100ED000DA609A6040F0010218505A6079E1002807
:100EE000D260926005DBF3185A6842F001025A6042
:100EF0006FE1B3F5007F0ED2DB084FF0010E9810C2
:100F000005EBC3030EFA00F0D5F804E04EEA00004A
:100F10006860986844E04FEA532EBEF1040F04D88D
:100F20004FEA931E0EF1380E1FE0BEF1140F02D8E7
:100F30000EF15B0E19E0BEF1540F04D84FEA133ED8
:100F40000EF16E0E11E0BEF5AA7F04D84FEAD33E33
:100F50000EF1770E09E040F25450864596BF4FEAF5
:100F6000934E4FF07E0E0EF17C0E05EBCE0CDCF8AE
:100F7000080060450DD101234FEAAE0E03FA0EFEC4
:100F80006B6843EA0E036B60034609E080686045C6
:100F900005D0D0F804E02EF0030E7345F6D3C368F5
:100FA000F360B0609E60C66001208B1010FA03F3FE
:100FB0006868834262D8034205D121F003015B00D7
:100FC00004310342FBD005EBC1098E46CC46DCF868
:100FD0000C602AE0706820F00308C4EB08000F28BA
:100FE00011DD3319F16844F00104746056F8084FBC
:100FF0001850E1608C60D3609360DA609A6040F0D2
:1010000001025A600CE000280EDB06EB08035A6868
:1010100042F001025A60F36856F8082FD3609A60D4
:10102000384600F019F9D8E0F6686645D2D10EF1DD
:10103000010E1EF0030F01D1484602E00CF1080C2E
:10104000C5E711F0030F04D1696821EA0301696063
:1010500006E0064656F80809B04201D10139F0E72A
:1010600068685B00834209D843B1714601E00431EE
:101070005B000342A7D1FAE714010010D5F80880FD
:10108000D8F8043023F00309A14504D3C4EB0903C5
:101090000F2B00F39580524B38461B6803F1100A62
:1010A000504BA2441A680193B2F1FF3F1CBF0AF1F2
:1010B0007F0A2AF07F0A514600F04CFA019BB0F1FA
:1010C000FF3F06466ED008EB0902904201D2A845C8
:1010D00068D1454996428B4608685044086008D15B
:1010E00016F07F0F05D1AB68D14449F001025A6078
:1010F0004CE01B68B3F1FF3F02D13A4B1E6003E0A6
:101100003018821ACBF8002016F0070338461CBFAF
:10111000C3F10803F6188033B2440AF07F0ACAEB21
:10112000030A514600F016FADBF80030AE60B0F169
:10113000FF3F04BF30464FF0000A801BA8455044D3
:10114000534440F00100CBF8003070601ED0B9F17C
:101150000F0F02D80123736024E0D8F80430A9F1FE
:101160000C0929F00709052203F00103B9F10F0F5B
:1011700049EA0303C8F8043008EB09035A609A608F
:1011800004D9384608F1080102F0D8FA174ADBF80A
:10119000003011688B4288BF1360154A11688B427A
:1011A00088BF1360AB685B6823F00303A34202D3DC
:1011B0001B1B0F2B04DC384600F04EF800260CE019
:1011C000AE6844F0010243F001033419AC60726070
:1011D00063603846083600F03FF83046BDE8FE8FC1
:1011E0008C050010200500109005001088050010E7
:1011F0008405001010B5C9B203E010F8014B8C4211
:1012000004D0013A0346F8D2002010BD184610BDA4
:1012100010B58218034603E011F8014B03F8014BA7
:101220009342F9D310BD814210B5044610D28B18F9
:1012300098420DD21946831803E011F8014D03F8C6
:10124000014D013AF9D210BD11F8013B04F8013B00
:10125000013AF9D210BD7047704700002DE9F74FF1
:10126000814617460E4629B9114603B0BDE8F04F36
:10127000FFF7BCBD07F10B05FFF7EDFFA6F1080A6C
:10128000162DDAF8042003D935F0070501D502E060
:101290001025BD4204D20C230027C9F8003055E1C7
:1012A00022F0030BAB4580F226819F4B0AEB0B012A
:1012B000D3F808E0714507D0486820F0010008180D
:1012C000406810F0010F25D14868714520F00300F7
:1012D00000EB0B0817D105F11004A0451CDB0AEB4D
:1012E0000502C5EB08089A6048F0010353604846C0
:1012F000DAF80430374603F001031D43CAF80450FE
:10130000FFF7AAFF22E1A84506DBCB688A68D36015
:101310009A60F1E00020014612F0010F40F09C803D
:1013200056F8084CC4EB0A04626822F00302002954
:1013300057D0714502EB0B084BD1804405F11001E9
:1013400088454EDB2746E26857F8081FCA6091605F
:10135000ABF10402242A29D8132A39461BD9304676
:1013600050F8041BA1607168061D1B2AE16004F19E
:10137000100110D94168301D216171680836242A96
:10138000616104F1180106D1426804F12001A261F3
:1013900072680836E26130460A4650F804EB42F8BB
:1013A00004EB76684E604168516005E0384631468E
:1013B0000193FFF738FF019B6219C5EB08089A609B
:1013C00048F001035360636803F001031D43656047
:1013D0008DE08044A84504DBCB688A68D3609A60BE
:1013E00003E002EB0B08A84536DB2046E36850F823
:1013F000082FD3609A60ABF10402242A28D8132A5C
:101400001BD9334604F1100053F8041BA160716826
:101410001E1D1B2AE16010D95B6804F118002361CE
:10142000331D71680836242A616106D15B6804F1B6
:101430002000A36173680836E3613246034652F820
:10144000041B43F8041B7168416052685A6054E001
:101450003146FFF7E8FE50E039464846FFF7C6FC44
:101460000746002843D0DAF80420A0F1080322F050
:1014700001025244934205D150F8043C23F0030882
:10148000D84439E0ABF10402242A29D8132A314682
:1014900003461AD9344654F8043B211D40F8043B56
:1014A00073687B60031D1B2A0FD9646844600C1DA0
:1014B0004968181D59600833211D242A05D1626826
:1014C00042604A6808315A60083308461A4650F8A4
:1014D000044B42F8044B496859604368536002E08A
:1014E0003146FFF7A0FE4846314602F027F948464C
:1014F000FFF7B2FE2AE0D8465446C5EB08036268FF
:101500000F2B13D9611902F00102154343F00102B8
:10151000CB1865604A6048465A68083142F00102BB
:101520005A6002F00BF90CE01401001004EB080300
:1015300002F0010248EA020262605A6842F00102C7
:101540005A60484604F10807FFF786FE384603B0A4
:10155000BDE8F08F38B50546064C084600232360E9
:10156000FEF75AFEB0F1FF3F02D1236803B12B60B2
:1015700038BD00BFC40500101F2970B505460C46D4
:1015800004D9162303604FF0FF3070BD426C12B1D6
:1015900052F821304BB9284600F034F82246014673
:1015A0002846BDE8704000F01BB8012B0DD0B3F108
:1015B000FF3F03D117330360012070BD00250846AB
:1015C00042F821509847284670BD002070BD0000A9
:1015D000024B01461868FFF7CFBF00BF1001001093
:1015E00038B50546064C0846114600232360FEF731
:1015F00005FEB0F1FF3F02D1236803B12B6038BD77
:10160000C4050010FEF706BE0EB44FF4027100B51B
:101610009CB01DABADF810106FF000410391069126
:101620004FF0FF31ADF81210084953F8042B019028
:101630000590086801A91B9300F0BEF8019B0022E9
:101640001A701CB05DF804EB03B070471001001075
:1016500010F8012B11F8013B012A28BF9A42F7D05C
:10166000A2EB030070470346C04313F8012B002A86
:10167000FBD11818704700002DE9F74F9846464BEC
:101680000C4615460190D3F800B00B4613F8016BD9
:101690000BEB06021F4692F8019019F00809F5D1EC
:1016A0002D2E04D117F8016B4FF0010903E02B2E0A
:1016B00008BF17F8016BB8F1000F02D0B8F1100F96
:1016C00014D1302E09D13B78782B01D0582B04D17E
:1016D0007E784FF01008023708E0B8F1000F05D10E
:1016E000302E14BF4FF00A084FF00808B9F1000F70
:1016F00041460CBF6FF0004A4FF0004A504602F0DE
:10170000E1FD50460B464146009302F0ADFC00213E
:10171000009B0A460BEB060C9CF801C01CF0040F62
:1017200001D0303E0BE01CF0030C1BD0BCF1010FCC
:1017300014BF4FF0570C4FF0370CCCEB0606464564
:1017400010DAB1F1FF3F0AD0824206D801D19E42A1
:1017500003DC08FB0262012101E04FF0FF3117F8C2
:10176000016BD7E7B1F1FF3F0AD10198B9F1000F42
:101770000CBF6FF000424FF000422223036003E0F1
:10178000B9F1000F00D0524215B101B17C1E2C609E
:101790001046BDE8FE8F00BF240500101346054A21
:1017A00030B505460C46106829462246BDE8304053
:1017B000FFF762BF100100102DE9F04FBFB00F46D8
:1017C0001E461546804602F079F800681390FFF730
:1017D0004AFFBB8913F0800F129011D03B697BB98F
:1017E00040464021FFF702FB3860386130B90C23D6
:1017F0000138C8F800300F9001F056B840237B61E3
:10180000002319AC3593339434930C950B931093B8
:101810001193169315930F930C9B1D4613F8012BF0
:101820000AB1252AF9D10C99B5EB010918D0359BDD
:101830002160C4F804904B443593349B01333493B6
:10184000072B01DC083408E04046394633AA02F091
:1018500063FB002841F01F8019AC0F9A4A440F9295
:101860002B78002B01F01080002301350C951D46CC
:101870008DF8F7304FF0FF3C0D932A460C9B05E0A6
:101880000E4603E01E464FF0FF3C0B4613F8019B4B
:10189000A9F12001582900F21284DFE811F0590063
:1018A000100410045F00100410041004100410044D
:1018B000100462006B00100468006F0010049200B6
:1018C0009500950095009500950095009500950070
:1018D00095001004100410041004100410041004E7
:1018E000100410041004C000FD001004FD001004DA
:1018F000100410041004A40010041004A802100422
:101900001004100410041004130310041004450301
:101910001004100410041004100410041004100427
:1019200010041004B500C500FD00FD00FD00A70077
:10193000C50010041004AA0010048A02AD02D902E6
:10194000B2001004ED021004180310041004400348
:101950009DF8F710002999D120310CE045F00105E0
:1019600094E73268311D002A8ADA52420E4645F069
:1019700004058BE72B218DF8F71087E7194611F83E
:10198000019BB9F12A0F03D019464FF0000C10E06B
:10199000D6F800C0331DBCF1000FFFF673AF1E4632
:1019A0000B4673E74FF00A0909FB0C0C91F8019004
:1019B0001946A9F1300001330928F3D94CEAEC7C2F
:1019C00066E745F0800561E7194600220A23A9F180
:1019D000300903FB029211F8019BA9F130000B467C
:1019E0000928F3D954E745F008054FE745F04005CD
:1019F0004CE719786C2901D1013302E045F010055C
:101A000044E745F0200541E70C934FF0000C3368A4
:101A100004360D928DF8F7C08DF8A4305BE30C937B
:101A200045F010050D9201E00C930D9215F0200F7A
:101A300009D0073626F0070303F10806D3E90001B1
:101A4000CDE9080116E015F0100F06F1040301D0EE
:101A5000326809E015F0400F326805D012B2104626
:101A6000D117CDE9080104E092464FEAE27BCDE9C7
:101A700008AB1E46DDE90801002871F1000180F283
:101A80008E82DDE90823524263EB4303CDE908234C
:101A90002D238DF8F73082E20C93F31D15F0080F1B
:101AA00023F007030D9203F1080614BF18681968A4
:101AB000CDF8389014BF109010915B681098CDF855
:101AC00018C01193119902F0F5F9DDF818C001283A
:101AD00019D1109800221199002302F0BBFD10B11A
:101AE0002D238DF8F730A94B4FF0000CA84A25F0B4
:101AF00080054FF0030BCDF820C0B9F1470FCCBFE4
:101B000092469A46FDE210981199CDF818C002F05D
:101B1000D1F9DDF818C058B99E4B25F080059E4AD2
:101B20004FF0030BB9F1470FCCBF92469A46DDE266
:101B3000BCF1FF3F0BD0B9F1670F02D0B9F1470FED
:101B400007D1BCF1000F08BF4FF0010C01E04FF0CE
:101B5000060C119B45F48075002B05DA03F1004259
:101B60002D230B92149303E01198002114910B90F4
:101B7000B9F1660F0BD0B9F1460F08D0B9F1650F76
:101B800002D0B9F1450F05D10CF1010B03E0E3469A
:101B9000032301E0E3460223009340463CAB109A46
:101BA00002933BAB03933AAB04930B9BCDF818C065
:101BB000CDF804B000F074FFB9F1670FDDF818C07C
:101BC000824602D0B9F1470F02D115F0010F34D08F
:101BD000B9F1660F0AEB0B02089202D0B9F1460F79
:101BE00015D19AF80030302B0DD1109800220B99A6
:101BF0000023CDF818C002F023FDDDF818C010B99D
:101C0000CBF101033C9308983C9BC01808901098B6
:101C100000220B990023CDF818C002F011FDDDF869
:101C200018C030B108993A9103E0302203F8012B33
:101C30003A933A9B089A9342F7D33A9BB9F1670FCC
:101C4000CAEB03030B933C9B02D0B9F1470F08D1B9
:101C500013F1030F9B4601DB634575DDA9F1020912
:101C600002E0B9F1660F59D003F1FF3B8DF8E09027
:101C7000BBF1000FCDF8F0B003DACBF1000B2D2350
:101C800000E02B23BBF1090F8DF8E1302FDD0DF1C2
:101C9000DE035246CC46A2461C4658460A2107920D
:101CA000A146CDF818C002F065FC5846303104F862
:101CB00001190A2102F014FB079ADDF818C009285F
:101CC0008346EADC544692464A4600F1300BE14630
:101CD0000DF1E20302F801BC013A03E012F8011B26
:101CE00003F8011B0DF1DF018A42F7D306E0302330
:101CF0008DF8E2309B4439AB8DF8E3B038AA9A1ADC
:101D00000B9B1592012B02EB030B02DC15F0010378
:101D100044D000200BF1010B089040E0002B9B46C3
:101D200009DDBCF1000F02D115F0010F28D003F13D
:101D3000010BE34424E0BCF1000F02D115F0010FC8
:101D400019D00CF1020B1BE00B998B4207DB15F04D
:101D5000010F13D0672203F1010B0E9210E0002B4C
:101D6000D8BFC3F1020B0B9BC8BF4FF0010B67201C
:101D70009B440E9004E04FF0010B01E067210E91AF
:101D80003C9ADDF83890089209E000BFB04E0000A0
:101D9000B44E0000B84E0000BC4E00000893149BE7
:101DA000002B00F09F812D234FF0000C8DF8F730B1
:101DB000A7E115F0200F0C9306F1040106D00F9D4A
:101DC00030682A46EB17C0E900230EE015F0100F2B
:101DD00003D033680F98186007E015F0400F3368A0
:101DE00015BF0F9A0F9D1A801D600E4614E50C93C7
:101DF00045F010050D9201E00C930D9215F02002B4
:101E00000AD00736002226F0070303F10806D3E9BB
:101E100000ABCDE908ABBEE015F0100106F10403FC
:101E200002D031688A460DE015F04002306808D0D3
:101E300080B24FF0000B82461E46CDE908AB0A4641
:101E4000A9E082464FF0000B1E46CDE908ABA2E0A8
:101E50000C93002133684FF078090D9245F002058C
:101E60001846CDE90801A34930238DF8F5900436D2
:101E70008DF8F43016918DE00C9300230D923246CC
:101E800004369C458DF8F730D2F800A013DB1946D4
:101E9000624650460793CDF818C0FFF7ABF9079B91
:101EA000DDF818C0002800F02081CAEB000BE345E4
:101EB00000F3248123E150460793FFF7D4FB079BEF
:101EC00083461CE10C9345F010050D9201E00C9344
:101ED0000D9215F0200F09D0073626F0070303F105
:101EE0000806D3E900ABCDE908AB16E015F0100FFA
:101EF00006F1040301D032680AE015F0400F3268A1
:101F000006D092B24FF0000B9246CDE908AB03E049
:101F100010460021CDE908011E4601223BE075492B
:101F20000C930D92169103E00D92734A0C93169246
:101F300015F0200F09D0073626F0070303F1080635
:101F4000D3E900ABCDE908AB16E015F0100F06F1B0
:101F5000040301D032680AE015F0400F326806D061
:101F600092B24FF0000B9246CDE908AB03E0104669
:101F70000021CDE908011E4615F0010F0AD0DDE968
:101F80000823134306D045F0020530238DF8F59061
:101F90008DF8F430022200238DF8F73000E00122A2
:101FA000DDE908ABBCF1000FA8BF25F080055AEAB7
:101FB0000B0B02D1BCF1000F6ED0012A23D0022AF4
:101FC00051D00DF1CB0308989A4600F00702303249
:101FD0001A700899013BDDF824B0C80840EA4B713B
:101FE0004FEADB0B0891CDF824B0DDE9080101438D
:101FF000E9D115F0010F5BD0302A59D09A46302331
:102000008AF8003054E0DDE908230A2A73F100035E
:1020100008D2DDF820A00AF130030DF1CB0A8DF8CB
:10202000CB3045E00DF1CB0B23465C46CB469946C1
:10203000DDE908010A220023CDF818C002F032FBC6
:10204000A2460023303204F80129DDE908010A2202
:1020500002F028FBDDF818C0CDE908010843E7D1FC
:102060004C46D94624E00DF1CB0308999A46DDF899
:1020700058B001F00F021BF8022003F8012908995B
:10208000099A080940EA0271120908910992DDE9EA
:1020900008010143E9D10BE042B915F0010F05D069
:1020A0000DF1F80A30230AF82D3D01E00DF1CC0ABC
:1020B0000DF1CC0B0022CAEB0B0B089221E00C9324
:1020C0000D92B9F1000F00F0DF834FF0000C8DF896
:1020D000A4908DF8F7C04FF0010BCDF820C00DF1A2
:1020E000A40A0EE0DDF850C00BE0E34684460890F9
:1020F00007E000BFD14E0000C04E0000E3469C4602
:102100000893E345ACBF5B4663460E939DF8F730FA
:1021100013B10E9801300E9015F00201149102D007
:102120000E9A02320E9215F08403179346D10D9841
:102130000E99431A002B1BDC40E01A60102289180C
:102140005A60349A359101323492072A01DC0833FF
:102150000CE04046394633AACDF818C001F0DCFE49
:10216000DDF818C0002840F0968319AB103D04E05C
:102170002A461D4623464C469146102D3599934AD2
:10218000DBDC4846A1461C462B4605466360CB185F
:1021900022603593349B01333493072B01DC0834E0
:1021A0000CE04046394633AACDF818C001F0B4FE21
:1021B000DDF818C0002840F06E8319AC9DF8F730A8
:1021C000DBB10DF1F703236001236360359B01331D
:1021D0003593349B01333493072B01DC08340CE036
:1021E0004046394633AACDF818C001F095FEDDF817
:1021F00018C0002840F04F8319AC149AD2B13DABFF
:10220000236002236360359B02333593349B013393
:102210003493072B01DC08340CE04046394633AADE
:10222000CDF818C001F078FEDDF818C0002840F0A5
:10223000328319AC179B802B46D10D980E99431A07
:10224000002B1BDC40E01A60102289185A60349A77
:10225000359101323492072A01DC08330CE0404604
:10226000394633AACDF818C001F056FEDDF818C083
:10227000002840F0108319AB103D04E02A461D46AB
:1022800023464C469146102D3599514ADBDC484691
:10229000A1461C462B4605466360CB182260359349
:1022A000349B01333493072B01DC08340CE04046A7
:1022B000394633AACDF818C001F02EFEDDF818C05B
:1022C000002840F0E88219ACCBEB0C03002B17DCA4
:1022D00038E01A60102289185A60349A3591013218
:1022E0003492072A01DC083308E04046394633AA15
:1022F00001F012FE002840F0CE8219AB103D04E040
:102300002A461D4623464C469146102D3599304AA3
:10231000DFDC4846A1461C462B4605466360CB18C9
:1023200022603593349B01333493072B01DC08344E
:1023300008E04046394633AA01F0EEFD002840F09F
:10234000AA8219AC15F4807F06D1359BC4F800A091
:10235000C4F804B05B443FE2B9F1650F40F3B781C4
:10236000109800221199002302F06AF9002860D029
:10237000184B236001236360359B01333593349BF5
:1023800001333493072B01DC083408E0404639461A
:1023900033AA01F0C1FD002840F07D8219AC3C9BBE
:1023A0000B9A934203DB15F0010F00F02582139B7B
:1023B00012982360359B60601B183593349B013362
:1023C0003493072B08DC08340FE000BFE44E000014
:1023D000A04E0000E24E00004046394633AA01F00C
:1023E0009BFD002840F0578219AC0B9901F1FF3991
:1023F000B9F1000F17DCFFE1226010229B18626028
:102400003593349B01333493072B01DC083408E007
:102410004046394633AA01F07FFD002840F03B8258
:1024200019ACA9F11009B9F1100F359B954AE3DCFD
:1024300048E13C9B002B79DC934B236001236360D4
:10244000359B01333593349B01333493072B01DCE7
:10245000083408E04046394633AA01F05DFD002803
:1024600040F0198219AC3C9B2BB90B9A1AB915F0A4
:10247000010F00F0C181139B12982360359B6060AF
:102480001B183593349B01333493072B02DC04F182
:10249000080308E04046394633AA01F03DFD002814
:1024A00040F0F98119AB3C9C6442002C16DC2DE015
:1024B00019601021521859603592349A01323492C1
:1024C000072A01DC083308E04046394633AA01F008
:1024D00023FD002840F0DF8119AB103C102C359A09
:1024E0006849E5DC5C601419349A1960013235944E
:1024F000072A349201DC083308E04046394633AA03
:1025000001F00AFD002840F0C68119AB0B99359AFD
:10251000C3F800A0596052183592349A01323492AF
:10252000072A00F3618103F1080465E10B9A089B17
:1025300091460AEB020B9945A8BF9946B9F1000FE5
:1025400016DD359BC4F800A0C4F804904B443593C5
:10255000349B01333493072B01DC083408E04046F8
:10256000394633AA01F0D8FC002840F0948119AC18
:10257000089829EAE979C9EB0009B9F1000F17DCDD
:1025800030E0226010229B1862603593349B013347
:102590003493072B01DC083408E04046394633AA5F
:1025A00001F0BAFC002840F0768119ACA9F11009BD
:1025B000B9F1100F359B334AE3DC22604B44C4F879
:1025C00004903593349B01333493072B01DC08349A
:1025D00008E04046394633AA01F09EFC002840F04E
:1025E0005A8119AC3C9B0B998B4202DB15F0010F11
:1025F00017D0129B139A12986360359B22601B18A8
:102600003593349B01333493072B01DC083408E005
:102610004046394633AA01F07FFC002840F03B8158
:1026200019AC08993C9A0B980AEB0103C3EB0B0B0E
:10263000C2EB0009CB45B8BFD946B9F1000F15DD93
:102640002360359BC4F804904B443593349B01338D
:102650003493072B01DC083408E04046394633AA9E
:1026600001F05AFC002840F0168119AC3C9B29EA85
:10267000E9790B99CB1AC9EB0309B9F1000F1CDCFE
:10268000BAE000BFA04E0000E24E0000226010221F
:102690009B1862603593349B01333493072B01DC24
:1026A000083408E04046394633AA01F035FC0028DA
:1026B00040F0F18019ACA9F11009B9F1100F359B68
:1026C0007B4AE3DC22604B44C4F8049084E00B9A1C
:1026D000012A02DC15F0010F62D001236360359BF3
:1026E000C4F800A001333593349B01333493072B96
:1026F00001DC083408E04046394633AA01F00CFCFE
:10270000002840F0C88019AC139B12982360359BB9
:1027100060601B183593349B01333493072B01DC25
:10272000083408E04046394633AA01F0F5FB00289A
:1027300040F0B18019AC119900231098002201F0EB
:102740007FFF0B994B1E30B90AF101022260359AC6
:102750006360D3182AE0B3F1000917DC36E0226089
:1027600010229B1862603593349B01333493072BFE
:1027700001DC083408E04046394633AA01F0CCFBBE
:10278000002840F0888019ACA9F11009B9F1100FA8
:10279000359B474AE3DC22604B44C4F8049005E0D3
:1027A00001236360359BC4F800A001333593349B4B
:1027B00001333493072B01DC083407E040463946E7
:1027C00033AA01F0A9FB002865D119AC38AB159AE2
:1027D0002360359B62609B183593349B013334939F
:1027E000072B01DC083407E04046394633AA01F0E4
:1027F00093FB00284FD119AC15F0040F2FD00D9B7F
:10280000DDF838A0CAEB0305002D15DC27E02260B7
:1028100010229B1862603593349B01333493072B4D
:1028200001DC083407E04046394633AA01F074FB66
:10283000002830D119AC103D102D359B1D4AE6DC27
:1028400065605D19349B226001333595072B349305
:1028500005DD4046394633AA01F05EFBD8B90F9832
:102860000E9A0D99359B8A42ACBF801840180F9084
:102870002BB14046394633AA01F04EFB58B900232C
:1028800019AC3493FEF7C8BF359B23B14046394697
:1028900033AA01F041FBBB890F9D03F04003002BDD
:1028A00018BF4FF0FF350F950F983FB0BDE8F08F80
:1028B000A04E0000E44E00002DE9F84399462C4B51
:1028C00004460D461646D3F80080D8F848701FB964
:1028D00008F14C07C8F848707B681F2B0FDD254BAB
:1028E000002B3DD08C20FEF771FA0746002837D028
:1028F00000234360D8F848300360C8F8480034B378
:10290000D7F8880068B91B4B53B34FF48470FEF7B7
:102910005DFA48B30023C0F80031C0F80431C7F8AD
:1029200088007B680122D0F800119A4040F82360AB
:102930002033022C41EA020140F82390C0F8001134
:1029400005D1D0F8043143EA0202C0F804217B68C3
:1029500000209A1C01337B6047F82250BDE8F883C1
:102960004FF0FF30BDE8F8834FF0FF30BDE8F8834B
:102970009C4E0000CD0D00002DE9F74F04460B6979
:10298000894602699A42C0F286805D1E033301F1D6
:10299000140800F114079B00CA18C31802F1040AB6
:1029A00051685868013101F05FFB064600283CD0B1
:1029B0000023394642461846019452F804EB0C684D
:1029C00052451FFA8EFC4FEA1E4E1FFA84FB0CFB89
:1029D000063C58440EFB06FE0EEB1C4E1FFA8CFC08
:1029E000CCEB000C4FEA1E431FFA8EFECEEB144ECA
:1029F0000EEB2C4E1FFA8CFC4FEA2E404CEA0E4E8A
:102A000041F804EBD9D9019C2B1D04EB83035A68D0
:102A10005AB9043300E0013D1A1F974204D253F81B
:102A2000041C13460029F6D025612046494601F0D2
:102A300063F900282DDB01363B460022414651F860
:102A4000048B18681FFA88FC4FEA18481FFA80F9AF
:102A5000C8EB1040CCEB090C944400EB2C401FFA5F
:102A60008CFC021451454CEA004043F8040BE6D9B3
:102A70002B1D04EB83035A685AB9043300E0013D6F
:102A80001A1F974204D253F8041C13460029F6D0AB
:102A90002561304600E00020BDE8FE8F0000000008
:102AA0002DE9F04F05469BB010466E6A1946279CEB
:102AB000CDE904013EB91020FEF788F9686246604E
:102AC00086600660C6606B6A196859B15B6801224E
:102AD00028464B6012FA03F38B6000F02CFF6B6A00
:102AE00000221A60059B002B05DA012223F0004327
:102AF0002260059301E000232360059C9A4B9A4ACB
:102B000004EA030393421DD1269942F20F73049AFB
:102B10000B604AB924F07F44944B954824F4700428
:102B2000002C18BF184600E09048289B002B00F0AE
:102B3000B385C278C31C0AB100F1080328990B6061
:102B400000F0AABDDDE904AB0022002301265046B7
:102B5000594601F075FD00B1002616F0FF0F0BD1AC
:102B6000269A01231360289B002B00F09285814850
:102B70001860013800F090BD18AB2846009352460B
:102B800019AB01935B46260D01F036F97605760DFB
:102B900081466EB12BF07F43A6F57E7623F4700359
:102BA000504643F07E51073E41F4E00100221EE012
:102BB000189B1998C01800F58660861C202E08DD29
:102BC000049B1E3833FA00F0C6F140039C402043BA
:102BD00005E0DDF810E0C6F120000EFA00F0FDF788
:102BE000F9FDA6F58666033E0122A1F1F871169261
:102BF0000022614BFDF7B0FC55A3D3E90023FDF79C
:102C00005FFE55A3D3E90023FDF7A8FC82463046BA
:102C10008B46FDF7EFFD52A3D3E90023FDF750FEED
:102C200002460B4650465946FDF798FC82468B46B5
:102C3000FEF758F85946002200230446504601F09A
:102C400009FD50B12046FDF7D5FD02460B46504622
:102C5000594601F0F5FC00B9013C162C0DD8474B44
:102C600003EBC403D3E90001DDE9042301F010FD07
:102C700030B10023013C119304E00120119001E0E8
:102C800000211191199B03F1FF3BBBEB060B04D50F
:102C90000022CBF1000B069203E0CDF818B04FF004
:102CA000000B002C06DB069B4FF000080F941B194D
:102CB000069305E0C4EB0B0BC4F1000800200F9055
:102CC0002499092913D8052903DD04390027249103
:102CD00000E00127249A931E032B0BD8DFE803F0B2
:102CE000151E050201200E901AE001210EE00127B9
:102CF0000022249201234FF0FF3E0E930020CDF8D6
:102D000030E0F246113325901AE00021259A0E9109
:102D1000002A0DDD0C929246134611E000230E931B
:102D2000259820180C90431C002B07DD9A4607E0DD
:102D300001210C918A460B46259101E09A46012318
:102D40006E6A0022726004321EE000BFAFF30080A2
:102D500061436F63A787D23FB3C8608B288AC63FA1
:102D6000FB799F501344D33F0000F07FFE4F0000DB
:102D7000F54F0000E34E00000000F83F78500000DF
:102D8000716852000131716002F114019942F7D962
:102D90002846716800F09EFD6B6ABAF10E0F306034
:102DA0001B680D9300F2AC81002F00F0A981DDE9D2
:102DB0000423002CCDE912233FDD04F00F02924BD7
:102DC000271103EBC20317F0100FD3E90001CDE97F
:102DD0000A010ED08D4B07F00F07DDE91201032623
:102DE000D3E90823FDF796FE02460B46CDE90423FE
:102DF00000E00226DFF814C2CDF820B0C346DDE9BA
:102E00000A01A046644609E017F0010F04D0D4E996
:102E100000230136FDF754FD7F100834002FF3D155
:102E2000CDE90A014446DDE90401D846DDE90A237B
:102E3000DDF820B0FDF76EFE26E067424FB307F0E5
:102E40000F02714BDDE912013F1103EBC2030226B1
:102E5000D3E90023FDF734FDDFF8B0C1CDF810B0A1
:102E6000C346A046644609E017F0010F04D0D4E938
:102E700000230136FDF724FD7F100834002FF3D125
:102E80004446D846DDF810B002460B46CDE904238F
:102E900000E00226119BF3B1DDE9040100225C4B46
:102EA000CDE9080101F0D6FBA8B1BAF1000F12D0AC
:102EB0000C99002940F32081621E564B0A92002291
:102EC000DDE908010136FDF7FBFC0C9F02460B46CD
:102ED000CDE9042301E057460A943046FDF78AFC09
:102EE000DDE90423FDF7ECFC00224B4BFDF736FB3C
:102EF0000B460246CDE90823099BA3F150760996BB
:102F0000EFB9DDE904010022444BFDF725FBDDF8B4
:102F100020E033467246CDE9040101F0B9FB0028F8
:102F200040F09682DDF820E006F10043DDE904017F
:102F3000724601F08FFB002840F07E82DCE00E98A4
:102F40007A1E314B00286DD003EBC20300203449B8
:102F5000D3E90023FDF7DEFDDDE90823FDF7FCFAE8
:102F6000DDE90423CDF854B0D346CDF85C80A24609
:102F7000A84614461D464FF0000ECDF810E0CDE9EE
:102F800008010D99109129462046FDF7ABFE064633
:102F9000FDF730FC303602460B4620462946FDF749
:102FA000DBFA109A02F8016B16461092DDE908234D
:102FB00004460D4601F04EFB002840F05B8322469C
:102FC0002B4600201249FDF7C7FADDE9082301F07E
:102FD00041FB002840F00281049B01330493BB4273
:102FE00080F28380DDE9080100220A4BFDF768FCCE
:102FF0000022084BCDE9080120462946FDF760FC78
:1030000004460D46BFE700BF785000004051000065
:103010000000F03F0000244000001C40000014406D
:103020000000E03F03EBC203D3E90001DDE9082320
:10303000FDF746FCDDE904230E9ECDF840B0D346F3
:10304000CDF85480A246A84614461D46CDE9080195
:1030500029462046FDF746FE0390FDF7CBFB0246CE
:103060000B4620462946FDF777FADDF834E0DDF817
:103070000CC00CF1300CCDE904010EF806C001368D
:10308000BE422BD10022814BDDE908017644FDF7D9
:1030900065FA54464546DA46DDF85480DDF840B01E
:1030A00002460B46DDE9040101F0F2FA002840F087
:1030B0009680DDE9082300207449FDF74DFA0246A9
:1030C0000B46DDE9040101F0C5FAA8B1334613F857
:1030D000012C1E46013B302AF9D0CCE200226C4B79
:1030E000FDF7EEFB04460D46B2E754464546DA4688
:1030F000DDF85C80DDF854B0DDE91223CDE904236E
:10310000189A002AC0F28A800E2C00F38780614B47
:1031100003EBC403D3E90001CDE906012599002999
:1031200014DABAF1000F11DC40F0888100225A4B0A
:10313000DDE90601FDF7C4FBDDE9042301F09EFA99
:10314000002840F07F81D046574683E1DDE9042323
:10315000DDF834809B460494C244CDF830A09246FA
:10316000DDE90623504659464646FDF7D3FCFDF7F8
:10317000B9FD0746FDF73EFBDDE90623FDF7A0FBA1
:1031800002460B4650465946FDF7E6F907F1300373
:1031900006F8013BB0460C9A96422DD102460B46EA
:1031A000FDF7DCF9DDE90623049C82468B4601F03D
:1031B0006FFAA8B950465946DDE9062301F040FAF6
:1031C000002800F0598217F0010F09D154E20D9840
:1031D000824206D130220134027009E045460A9C41
:1031E000324612F8011C531E16461A463929EED0F3
:1031F0001A7801321A703FE20022254BFDF760FB7E
:1032000000220023012482468B4601F019FA00B106
:10321000002414F0FF0FA3D1049C2DE20E99002985
:103220003CD0249B012B0BDC169818B102F586626A
:10323000033202E0199AC2F1360243465E4616E0B6
:103240000AF1FF33984502DBC3EB080306E00F9950
:10325000C8EB03039844C91800230F91BAF1000F7B
:1032600003DACAEB0B06002201E05E465246DDF8A7
:1032700018E028460121029396449344CDF818E0C3
:1032800000F000FC029B07460BE000BF0000E03F9F
:103290000000244078500000000014400E9F434678
:1032A0005E465EB10698002808DD0246B242A8BF1D
:1032B0003246C2EB0B0BB61A801A0690B8F1000F1B
:1032C00024DD0E99E1B1002B14DD1A46394628465B
:1032D000029300F073FC4A4607462846394600F040
:1032E000DAFB494602462846039200F024FB039A83
:1032F000029B9146B8EB030208D02846494602E0FB
:1033000028464946424600F059FC8146012128469C
:1033100000F0B8FB0F9A002A804604DD414628469B
:1033200000F04CFC8046249B012B13DC049898B9D8
:10333000059A22F07F4323F4700383B98C4B02EA91
:1033400003037BB1069901220BF1010B0A920131B3
:10335000069108E0002305E000200A9003E00499AC
:103360000A9100E00A930F9A4AB1D8F8103008EB9E
:103370008303186900F034FBC0F1200300E001234F
:10338000DDF818E0734413F01F030BD0C3F12003E2
:10339000042B06DD043B9E449B44F618CDF818E050
:1033A00006E005D01C3306989B44F618C01806901A
:1033B000BBF1000F05DD494628465A4600F050FC97
:1033C00081460699002905DD41462846069A00F007
:1033D00047FC8046119AC2B14846414600F08CFC39
:1033E000002812DA4946002328460A2200F0BAFAD9
:1033F0000E9B013C814633B1394628460A22002300
:1034000000F0B0FA0746DDF830A0BAF1000F29DC71
:103410002498022826DDBAF1000F15D14146052275
:103420005346284600F09EFA80464846414600F042
:1034300063FC00280EDC07E0B84605E04FF000080A
:10344000474601E0D046574625990D9ECC4306E0FD
:103450000A9CB8460D9E0134312306F8013B4FF01B
:10346000000AF4E00E9A002A00F0AA80002E05DD82
:1034700039462846324600F0F3FB07460A9B93B1D3
:103480007968284600F026FA3A6907F10C01023201
:10349000920006460C30FDF7BBFE2846314601225D
:1034A00000F0DEFB00E038460D9E0694B244CDF8F5
:1034B00038A0BA46074641464846FFF75DFA5146EE
:1034C00000F1300B484600F017FC3A4641460C909C
:1034D000284600F02EFCC26803463AB91946484611
:1034E000029300F009FC029B044600E001242846F8
:1034F000194600F020FA6CB9249858B9049901F0E3
:1035000001033BB9BBF1390F069C27D00C9A002A66
:1035100029DC2AE00C9B002B06DB19D12498B8B9D2
:10352000049901F001039BB92246069C002A1CDD88
:1035300049460122284600F093FB4146814600F0AF
:10354000DBFB002807DC10D11BF0010F0DD002E0DF
:10355000002C0FDD069CBBF1390F04D13346392214
:1035600003F8012B65E00BF1010B06F801BB6EE0DF
:103570000000F07F06F801BB33460E9A96423ED01B
:1035800049460A220023284600F0ECF9BA45814654
:1035900007D1514628460A22002300F0E3F982466B
:1035A0000CE051460A220023284600F0DBF9394698
:1035B0000A2200238246284600F0D4F907467AE71B
:1035C0004FF0010C0D9ECB46A1466446584641463D
:1035D000FFF7D2F93030544506F8010B334608DACC
:1035E000594628460A22002300F0BCF901348346DC
:1035F000ECE74C464FF0000AD946834600E0069CB3
:10360000494601222846029300F02AFB41468146A2
:1036100000F072FB029B00280BDC13D11BF0010FA2
:1036200007D10FE00D98834203D131230134037099
:103630000DE013F8012C1E46013B392AF2D001326D
:103640001A7004E01E4613F8012D302AFAD02846DD
:10365000414600F070F97FB1BAF1000F05D0BA45CC
:1036600003D02846514600F066F92846394600F056
:1036700062F901E045460A9C4946284600F05BF99C
:103680000023337001342699289A0C601AB1166011
:1036900001E0034800E00D981BB0BDE8F08F00BFCB
:1036A000E24E0000AFF30080F8B50D46204E044610
:1036B000FDF7D1FDB3685F6827F0030707F16F03DB
:1036C0005D1B25F07F05803D7F2D1EDD00212046FE
:1036D000FDF740FFB368DB19984216D169422046D6
:1036E000FDF738FFB0F1FF3F14D100212046FDF770
:1036F00031FFB368C21A0F2A07DD0E4942F00102FA
:103700005A600968401A0C4908602046FDF7A4FD7C
:103710000020F8BDB3687F1B47F0010720465F60BB
:10372000054B1A68551B1D60FDF796FD0120F8BD7D
:103730001401001020050010900500102DE9F04143
:1037400004460D46002900F0AE80FDF784FDA5F18A
:10375000080356485F6827F00102D0F808C099189E
:1037600007F0010761454E6826F0030618D1B2182C
:103770003FB955F8081C5B1A52189D68D968E96072
:103780008D6042F0010183605960494B1B689A4289
:10379000C0F08480474B20461968FFF785FF7DE025
:1037A0004E6087B955F8085C00F1080C5B1B521994
:1037B0009D68654509D0D3F80CC0C5F80CC0CCF89D
:1037C00008503D4602E0002500E001258F197F6882
:1037D00017F0010F0FD192194DB98E68364FBE42C6
:1037E00005D1F3600135B360DE609E6003E0CE6812
:1037F0008968CE60B16042F001019A505960002D95
:103800004CD1B2F5007F10D2D2080135911015FAD3
:1038100001F1456845EA0101416000EBC200D86052
:1038200082689A60D360836038E0550A042D02D81C
:103830009509383516E0142D01D85B3512E0542D6A
:1038400002D8150B6E350DE0B5F5AA7F02D8D50B61
:10385000773507E040F254518D4202D8950C7C3503
:1038600000E07E2500EBC506B168B1420CD1012213
:10387000AD1012FA05F5426842EA05050A464560B0
:1038800008E08968B14204D0486820F00300824211
:10389000F7D3CA68DA609960CB6093602046BDE8D0
:1038A000F041FDF7D9BCBDE8F08100BF1401001064
:1038B0001C0500108C0500101C010010004870470A
:1038C000280500108218034601E003F8011B93420B
:1038D000FBD3704770B50446466A0D463EB91020CA
:1038E000FDF774FA6062466086600660C660666ACC
:1038F000F36843B920460421212200F088FB636A63
:10390000F060D868B0B1636ADB6853F8250018B17D
:10391000026843F825200AE00121204611FA05F645
:10392000721D920000F073FB20B145608660002399
:103930000361C36070BD70B50446456A0E463DB96B
:103940001020FDF743FA6062456085600560C56040
:103950003EB1636A7268DB6853F82210316043F845
:10396000226070BD2DE9F0410C461F460E690546E8
:1039700014310023D1F800C00133B3421FFA8CF098
:103980004FEA1C4C00FB02700CFB02FC0CEB104CD1
:1039900080B24FEA1C474FEA0C4C604441F8040BDC
:1039A000E8DBD7B1A3689E4212DB6168284601318B
:1039B000FFF790FF226904F10C0102329200804669
:1039C0000C30FDF725FC214628464446FFF7B3FF9F
:1039D00004EB8603013626615F612046BDE8F08175
:1039E000020C0346120412B90304102000E0002068
:1039F00013F07F4F01D108301B0213F0704F01D13B
:103A000004301B0113F0404F01D102309B00002B0A
:103A100005DB13F0804F01D0013070472020704744
:103A20000368024613F007000DD013F0010F25D1F3
:103A300013F0020F03D05B080120136070479B084E
:103A400002201360704799B209B91B0C102013F0C3
:103A5000FF0F01D108301B0A13F00F0F01D1043002
:103A60001B0913F0030F01D102309B0813F0010F63
:103A700002D15B0804D0013013607047002070470A
:103A80002020704710B50C460121FFF723FF0122CB
:103A90004461026110BD2DE9F04F16460A690D46DA
:103AA000336985B09A42BCBF35460E46D5F81080C2
:103AB0003769AB68696807EB08049C42C8BF0131ED
:103AC000FFF708FF00F1140300EB840214320192A7
:103AD0001A4602E0002142F8041B01998A42F9D3F8
:103AE00005F1140B06EB870705EB88051437143531
:103AF0000397029506F114024EE052F8047BBFB220
:103B000017B35E461946002556F804CBD1F800A03D
:103B10001FFA8CF94FEA1C4C1FFA8AF84FEA1A4A2E
:103B200007FB0988DDF8089007FB0CACB145A844F9
:103B30000CEB184C1FFA88F848EA0C484FEA1C4571
:103B400041F8048BE0D80D6032F8027C1FB31D6889
:103B50005E46984619464FF0000CB6F800A0ADB28C
:103B6000B1F8029007FB0A99CC4445EA0C4541F8AC
:103B7000045B56F8049B58F8045F4FEA1949ADB24C
:103B800007FB0955DDF80890B14505EB1C454FEAE8
:103B9000154CE2D80D600433DDF80CC09445ACD868
:103BA000019B00E0013C002C03DD53F8042D002AAA
:103BB000F8D0046105B0BDE8F08F000012F00303F7
:103BC0002DE9F04104460F46154607D0234A013B34
:103BD00052F823200023FFF7C5FE0746AD1039D069
:103BE000666A3EB91020FDF7F1F8606246608660B3
:103BF0000660C660D4F82480D8F8086066B920460C
:103C000040F27121FFF73EFF0023C8F80800064686
:103C1000036001E04046064615F0010F0AD0394620
:103C200032462046FFF737FF394680462046FFF7E9
:103C300082FE47466D100DD0D6F80080B8F1000F17
:103C4000E8D1204631463246FFF725FF3060C0F804
:103C50000080E0E73846BDE8F08100BF6C5000000E
:103C60002DE9F8430C464FEA62190546266990464D
:103C700049680136A3684E4401E001315B009E4271
:103C8000FBDC2846FFF726FE0022074600F114035E
:103C900003E00132002143F8041B4A45F9DB2069A7
:103CA00004F1140104EB8000143018F01F0814D044
:103CB000C8F1200E0022D1F800C00CFA08FC42EA3C
:103CC0000C0243F8042B51F8042B884222FA0EF21E
:103CD000F1D81A603AB1013605E051F8042B884258
:103CE00043F8042BF9D82846013E21463E61FFF7F0
:103CF00022FE3846BDE8F88303460A69006930B5FC
:103D0000801A15D1043203F1140492009B188A180A
:103D10000433043253F8045D52F8041D8D4203D07D
:103D200005D24FF0FF3030BD9C42F3D330BD0120AF
:103D300030BD2DE9F04705460C46084611461646AB
:103D4000FFF7DAFF071E08D128463946FFF7C2FD04
:103D5000012347610361BDE8F08701DB002703E031
:103D60002346012734461E4661682846FFF7B2FD08
:103D70003269236906EB8208143604EB830C08F1E0
:103D800014080CF1140C14340022C76000F114075D
:103D900054F8045B56F8041B1FFA85FA1FFA81F9E0
:103DA000090CC9EB0A09C1EB15419144254601EB09
:103DB00029411FFA89F90A14B04549EA014147F837
:103DC000041B3946E4D80CE055F8044BA6B2240C89
:103DD000961904EB2644B6B2221446EA044441F88C
:103DE000044B6545F0D300E0013B51F8042D002A57
:103DF000FAD00361BDE8F0872DE9F74301211D46A4
:103E00000A9F0B9E1446FFF765FD25F0004925F03B
:103E10007F4323F470035FEA195900931CBF43F4F6
:103E2000801300938046F4B102A840F8044DFFF7D8
:103E3000F7FD019B58B1009AC0F1200112FA01F17F
:103E4000C24041EA03030092C8F8143001E0C8F808
:103E50001430009CC8F81840002C0CBF0124022428
:103E6000C8F8104009E068460124FFF7D9FD009B1F
:103E7000C8F81040C8F814302030B9F1000F0AD04B
:103E8000A9F58669A9F1030909EB0003C0F1350022
:103E90003B6030600BE008EB8403A0F586600238DD
:103EA000386018696401FFF79BFD241A34604046AE
:103EB000BDE8FE830B4613B1B1F1004F00D1E0B174
:103EC000124AA1F58013934219D901F1FE4303F57B
:103ED0007003934213D90E4B994212D901F100425B
:103EE0009A420ED90B4B994202D011F5801F0AD18C
:103EF000D0F1010038BF0020704702207047042035
:103F00007047032070470020704700BFFFFFDF7F2E
:103F1000FFFF0F000000F07F2DE9F74F814690680A
:103F20000C461546D2F800B018B1002301931E4686
:103F300008E0506069E0DBF80030DBF804600BF16A
:103F4000080B0193002EF6D0A768BE424AD3A3897E
:103F500013F4906F44D022682169C1EB020A6269B0
:103F600002EB42080AF10102921908EBD8784FEAF5
:103F70006808904538BF904613F4806F10D04846CB
:103F80004146FCF733FF0746A0B121695246FDF7D1
:103F90003FF9A38923F4906343F08003A38116E0E3
:103FA00048464246FDF75AF9074680B94846216916
:103FB000FFF7C4FB0C23C9F80030A3894FF0FF3092
:103FC00043F04003A3810023AB606B601DE02761D9
:103FD000574427603746CAEB0803C4F81480A3602F
:103FE000BE4200D237463A4620680199FDF71BF9D8
:103FF000A368DB1BA3602368DF19AB6827609E1BE7
:10400000AE60002E97D130466E60BDE8FE8F10B5D1
:104010005143FCF7EBFE044618B350F8042C22F091
:104020000302043A242A19D8132A03460FD900217F
:1040300040F8041B031D1B2A616008D94160181D4C
:1040400059600833242A02D14160596008331A4666
:10405000002142F8041B5960516002E00021FFF783
:1040600031FC204610BD00004A1E08BF7047C0F05A
:104070002481884240F21681114200F01781B0FA83
:1040800080F3B1FA81F2A2EB0303C3F11F0304A290
:1040900002EB03134FF000029F4600BFAFF3008016
:1040A000B0EBC17F00BF42EB020228BFA0EBC170A2
:1040B000B0EB817F00BF42EB020228BFA0EB817012
:1040C000B0EB417F00BF42EB020228BFA0EB417082
:1040D000B0EB017F00BF42EB020228BFA0EB0170F2
:1040E000B0EBC16F00BF42EB020228BFA0EBC16082
:1040F000B0EB816F00BF42EB020228BFA0EB8160F2
:10410000B0EB416F00BF42EB020228BFA0EB416061
:10411000B0EB016F00BF42EB020228BFA0EB0160D1
:10412000B0EBC15F00BF42EB020228BFA0EBC15061
:10413000B0EB815F00BF42EB020228BFA0EB8150D1
:10414000B0EB415F00BF42EB020228BFA0EB415041
:10415000B0EB015F00BF42EB020228BFA0EB0150B1
:10416000B0EBC14F00BF42EB020228BFA0EBC14041
:10417000B0EB814F00BF42EB020228BFA0EB8140B1
:10418000B0EB414F00BF42EB020228BFA0EB414021
:10419000B0EB014F00BF42EB020228BFA0EB014091
:1041A000B0EBC13F00BF42EB020228BFA0EBC13021
:1041B000B0EB813F00BF42EB020228BFA0EB813091
:1041C000B0EB413F00BF42EB020228BFA0EB413001
:1041D000B0EB013F00BF42EB020228BFA0EB013071
:1041E000B0EBC12F00BF42EB020228BFA0EBC12001
:1041F000B0EB812F00BF42EB020228BFA0EB812071
:10420000B0EB412F00BF42EB020228BFA0EB4120E0
:10421000B0EB012F00BF42EB020228BFA0EB012050
:10422000B0EBC11F00BF42EB020228BFA0EBC110E0
:10423000B0EB811F00BF42EB020228BFA0EB811050
:10424000B0EB411F00BF42EB020228BFA0EB4110C0
:10425000B0EB011F00BF42EB020228BFA0EB011030
:10426000B0EBC10F00BF42EB020228BFA0EBC100C0
:10427000B0EB810F00BF42EB020228BFA0EB810030
:10428000B0EB410F00BF42EB020228BFA0EB4100A0
:10429000B0EB010F00BF42EB020228BFA0EB010010
:1042A000104670470CBF012000207047B1FA81F220
:1042B000C2F11F0220FA02F0704708B14FF0FF3040
:1042C00000F066B90029F8D02DE90340FFF7CCFED5
:1042D000BDE8064002FB00F3A1EB0301704700BFFD
:1042E000002900F03E8180EA010C48BF49424A1E85
:1042F00000F01F81030048BF43428B4240F21E8101
:10430000114200F02381B3FA83F2B1FA81F0A0EBFD
:104310000202C2F11F0204A000EB02124FF00000E3
:10432000974600BFAFF30080B3EBC17F00BF40EB07
:10433000000028BFA3EBC173B3EB817F00BF40EB4C
:10434000000028BFA3EB8173B3EB417F00BF40EBBC
:10435000000028BFA3EB4173B3EB017F00BF40EB2C
:10436000000028BFA3EB0173B3EBC16F00BF40EBAC
:10437000000028BFA3EBC163B3EB816F00BF40EB2C
:10438000000028BFA3EB8163B3EB416F00BF40EB9C
:10439000000028BFA3EB4163B3EB016F00BF40EB0C
:1043A000000028BFA3EB0163B3EBC15F00BF40EB8C
:1043B000000028BFA3EBC153B3EB815F00BF40EB0C
:1043C000000028BFA3EB8153B3EB415F00BF40EB7C
:1043D000000028BFA3EB4153B3EB015F00BF40EBEC
:1043E000000028BFA3EB0153B3EBC14F00BF40EB6C
:1043F000000028BFA3EBC143B3EB814F00BF40EBEC
:10440000000028BFA3EB8143B3EB414F00BF40EB5B
:10441000000028BFA3EB4143B3EB014F00BF40EBCB
:10442000000028BFA3EB0143B3EBC13F00BF40EB4B
:10443000000028BFA3EBC133B3EB813F00BF40EBCB
:10444000000028BFA3EB8133B3EB413F00BF40EB3B
:10445000000028BFA3EB4133B3EB013F00BF40EBAB
:10446000000028BFA3EB0133B3EBC12F00BF40EB2B
:10447000000028BFA3EBC123B3EB812F00BF40EBAB
:10448000000028BFA3EB8123B3EB412F00BF40EB1B
:10449000000028BFA3EB4123B3EB012F00BF40EB8B
:1044A000000028BFA3EB0123B3EBC11F00BF40EB0B
:1044B000000028BFA3EBC113B3EB811F00BF40EB8B
:1044C000000028BFA3EB8113B3EB411F00BF40EBFB
:1044D000000028BFA3EB4113B3EB011F00BF40EB6B
:1044E000000028BFA3EB0113B3EBC10F00BF40EBEB
:1044F000000028BFA3EBC103B3EB810F00BF40EB6B
:10450000000028BFA3EB8103B3EB410F00BF40EBDA
:10451000000028BFA3EB4103B3EB010F00BF40EB4A
:10452000000028BFA3EB0103BCF1000F48BF4042CD
:1045300070479CEA000F48BF4042704738BF0020D8
:1045400004BF4FEAEC7040F001007047B1FA81F20D
:10455000C2F11F02BCF1000F23FA02F048BF404233
:1045600070470028C8BF6FF00040B8BF4FF0004050
:1045700000F00EB80029F4D02DE90340FFF7B3FE98
:10458000BDE8064002FB00F3A1EB0301704700BF4A
:10459000704700BF4FF0FF3C06E000BF4FF0010C3A
:1045A00002E000BF4FF0010C4DF804CD4FEA410C82
:1045B0007FEA6C5C4FEA430C18BF7FEA6C5C1BD04F
:1045C00001B050EA410C0CBF52EA430C91EA030FD0
:1045D00002BF90EA020F0020704710F1000F91EA2D
:1045E000030F58BF994208BF90422CBFD8176FEAFB
:1045F000E37040F0010070474FEA410C7FEA6C5CC9
:1046000002D150EA013C07D14FEA430C7FEA6C5CCF
:10461000D6D152EA033CD3D05DF8040B704700BFFB
:104620008446104662468C461946634600E000BF49
:1046300001B5FFF7B7FF002848BF10F1000F01BD1B
:104640004DF808EDFFF7F4FF0CBF012000205DF8E6
:1046500008FB00BF4DF808EDFFF7EAFF34BF01206B
:1046600000205DF808FB00BF4DF808EDFFF7E0FF04
:1046700094BF012000205DF808FB00BF4DF808ED55
:10468000FFF7CEFF94BF012000205DF808FB00BFBC
:104690004DF808EDFFF7C4FF34BF012000205DF89E
:1046A00008FB00BF4BB942B9002908BF002802D05F
:1046B0004FF0FF310846FFF76BBF82B0EC462DE9A3
:1046C000005000F01DF8DDF804E002B00CBC7047AB
:1046D0002DE970431646804689461D4600F028F8AD
:1046E00000FB05F3A0FB064506FB0136069B75198A
:1046F000B8EB040469EB0505C3E90045BDE8708328
:104700002DE970431646804689461D4600F0C0F9E3
:1047100000FB05F3A0FB064506FB0136069B751959
:10472000B8EB040469EB0505C3E90045BDE87083F7
:1047300000292DE9F04F1C4685B0C0F2CB80002641
:10474000002CC0F2C2808C461746144605468846A7
:104750009A46002B4AD18A426ED9B2FA82F35BB1F3
:10476000C3F1200401FA03F830FA04F210FA03F559
:1047700017FA03F442EA08084FEA144A4046514641
:104780001FFA84FBFFF770FC514681464046FFF755
:1047900099FD280C0BFB09F340EA0148434509D970
:1047A00018EB040809F1FF3904D2434584BF09F12D
:1047B000FF39A044C3EB080851464046ADB2FFF7AD
:1047C00053FC514607464046FFF77CFD0BFB07FBB9
:1047D00045EA0145AB4505D9013F2D1902D2AB454C
:1047E00088BF013F47EA0949002403E08B420CD906
:1047F0000024A1464A46234616B1524263EB4303C6
:104800001046194605B0BDE8F08FB3FA83F4002CCA
:1048100040F0B3808B424FF001092CBF4FF0000CE9
:104820004FF0010C82428CBF67464CF00107002F0D
:10483000E0D13C46B946DDE722B901201146FFF739
:1048400013FC0446B4FA84F3002B49D1C4EB0808E6
:10485000270C1FFA84FA0121029139464046FFF7DE
:1048600003FC394681464046FFF72CFD2A0C0AFB23
:1048700009F342EA014B5B4509D91BEB040B09F133
:10488000FF3904D25B4584BF09F1FF39A344C3EB70
:104890000B0B39465846ADB2FFF7E6FB394680466A
:1048A0005846FFF70FFD0AFB08FA45EA0145AA45FD
:1048B00007D92D1908F1FF3803D2AA4588BF08F19E
:1048C000FF3848EA0949029C94E7F643524263EBF9
:1048D000430338E7404261EB41014FF0FF362FE7D9
:1048E0009C40C3F1200728FA07FA35FA07F2270C93
:1048F00008FA03FB3946504642EA0B029D400292F9
:10490000FFF7B2FB394683465046FFF7DBFC029BBC
:104910001FFA84FA4FEA13490AFB0BF349EA0148EC
:10492000434505D918EB04080BF1FF3BC0F0AA8002
:10493000C3EB080839464046FFF796FB39468146E7
:104940004046FFF7BFFC02980AFB09F31FFA80FC00
:104950004CEA0148434509D918EB040809F1FF392D
:1049600004D2434584BF09F1FF39A04449EA0B4E04
:10497000C3EB0808CDF808E06FE7C4F120030AFA9A
:1049800004FADA4021FA03F842EA0A0A01FA04F9C1
:1049900030FA03F240464FEA1A4B42EA090103910A
:1049A000594617FA04F30293FFF75EFB5946814616
:1049B0004046FFF787FC1FFA8AF3039803FB09F2CE
:1049C000070C47EA0148424504D918EB0A0809F1E7
:1049D000FF3951D3C2EB0808594640460193FFF70F
:1049E00043FB594607464046FFF76CFC019B039882
:1049F00003FB07F31FFA80FC4CEA014C634507D91F
:104A0000013F1CEB0A0C03D2634501D9013FD4449A
:104A100047EA0949029FC3EB0C0C1FFA89FE4FEAD3
:104A20001943B8B23F0C00FB0EF800FB03F107FB83
:104A30000E1207FB03F002EB1842914288BF00F50B
:104A4000803000EB124EF44512D34FEA02421FFAB7
:104A500088F814BF0021012102EB080C15FA04F4B8
:104A600064452CBF002401F00104002C3FF4C2AEC9
:104A700009F1FF390024BDE6424584BF09F1FF3941
:104A8000D044A7E7434584BF0BF1FF3BA0444FE769
:104A90002DE9F04F054683B00C46174680460E467A
:104AA000002B4DD18A4261D9B2FA82F353B1C3F1DE
:104AB000200411FA03F630FA04F29F4042EA060697
:104AC00000FA03F83C0C304621461FFA87FAFFF73C
:104AD000CBFA214681463046FFF7F4FB4FEA1840F7
:104AE0000AFB09F340EA0146B34208D9F61909F175
:104AF000FF3904D2B34284BF09F1FF39F619F61A1F
:104B0000214630461FFA88F8FFF7AEFA21460546DF
:104B10003046FFF7D7FB0AFB05FA48EA0148C245D1
:104B200006D9013D18EB070802D2C24588BF013DF6
:104B300045EA094A00263146504603B0BDE8F08FE9
:104B40008B425BD8B3FA83F6002E5AD18B424FF0DA
:104B5000010A2CBF0024012482428CBF254644F068
:104B60000105002DE7D12E46AA46E4E722B901202F
:104B70001146FFF779FA0746B7FA87F3002B40F0A2
:104B8000B680E41B4FEA174BBDB2012659462046BA
:104B9000FFF76AFA59464FEA184982462046FFF75E
:104BA00091FB05FB0AF349EA0144A34208D9E41941
:104BB0000AF1FF3A04D2A34284BF0AF1FF3AE41992
:104BC000E41A59462046FFF74FFA594681462046D7
:104BD000FFF778FB1FFA88F305FB09F543EA014864
:104BE000454508D918EB070809F1FF3903D24545B7
:104BF00088BF09F1FF3949EA0A4A9CE70026B24614
:104C000099E7C6F12001B34032FA01F724FA01F91D
:104C10001F43B44030FA01F348464FEA174843EACD
:104C2000040101914146B2400092FFF71DFA41464E
:104C3000BCB282464846FFF745FB019804FB0AF3E5
:104C40004FEA104B4BEA014B5B4505D91BEB070BB9
:104C50000AF1FF3AC0F09380C3EB0B0B4146584674
:104C6000FFF702FA414681465846FFF72BFB0198B1
:104C700004FB09F41FFA80FC4CEA01439C4203D96F
:104C8000DB1909F1FF3974D3009F49EA0A4A1C1B5A
:104C90001FFA8AFEB8B23A0C4FEA1A4700FB0EFC24
:104CA00000FB07F302FB0E3102FB07F201EB1C4194
:104CB0008B4288BF02F5803202EB114E744512D34D
:104CC0004FEA01411FFA8CF214BF0023012301EBCC
:104CD000020C15FA06F666452CBF002603F0010605
:104CE000002E3FF428AF0AF1FF3A002623E79F4049
:104CF000C3F1200134FA01F614FA03F24FEA174B1C
:104D000025FA01FA3046594605FA03F84AEA020A3A
:104D1000FFF7AAF95946BDB281463046FFF7D2FAED
:104D20004FEA1A4C05FB09F34CEA0144A34203D9AC
:104D3000E41909F1FF3928D3E41A59462046FFF750
:104D400093F9594606462046FFF7BCFA1FFA8AF443
:104D500005FB06F344EA0144A34206D9013EE419E7
:104D600003D2A34201D9013EE419E41A46EA0946F6
:104D70000CE79C4284BF09F1FF39DB1984E75B45EE
:104D800084BF0AF1FF3ABB4466E7A34284BF09F13E
:104D9000FF39E419D0E700BF00000000C84D000053
:104DA0005503000069030000ED040000F104000059
:104DB0002D03000087030000D7020000F10200006D
:104DC000CB02000000000000004E0000D44D0000A7
:104DD0005C4E00004E31305F5F63787861626976C7
:104DE0003131375F5F636C6173735F747970655FD6
:104DF000696E666F4500000000000000284E00004C
:104E0000B9040000CD040000ED040000F10400002E
:104E10002D03000087030000CD030000F103000014
:104E20008104000000000000004E0000344E00002D
:104E3000C84D00004E31305F5F63787861626976FB
:104E40003132305F5F73695F636C6173735F747974
:104E500070655F696E666F4500000000A04D000040
:104E6000644E0000537439747970655F696E666FC3
:104E70000000000000000000000000005C4E000088
:104E8000E1040000F9040000ED040000F10400005A
:104E90004B050000F5040000430000002000001056
:104EA0003030303030303030303030303030303002
:104EB000494E4600696E66004E414E006E616E00BE
:104EC0003031323334353637383941424344454640
:104ED00000303132333435363738396162636465D6
:104EE00066003000202020202020202020202020AC
:104EF00020202020002020202020202020202828C2
:104F00002828282020202020202020202020202089
:104F100020202020208810101010101010101010C9
:104F200010101010100404040404040404040410F9
:104F30001010101010104141414141410101010187
:104F40000101010101010101010101010101010151
:104F5000101010101010424242424242020202025D
:104F60000202020202020202020202020202020221
:104F700010101010200000000000000000000000D1
:104F80000000000000000000000000000000000021
:104F90000000000000000000000000000000000011
:104FA0000000000000000000000000000000000001
:104FB00000000000000000000000000000000000F1
:104FC00000000000000000000000000000000000E1
:104FD00000000000000000000000000000000000D1
:104FE00000000000000000000000000000000000C1
:104FF0000000000000496E66696E697479004E61B8
:105000004E00000000000000000000000000000052
:105010000000000000000000000000000000000090
:105020000000000000000000000000000000000080
:105030000000000000000000000000000000000070
:105040000000000000000000000000000000000060
:105050000000000000000000000000000000000050
:1050600000000000504F534958002E00050000007A
:10507000190000007D000000000000000000F03F6B
:105080000000000000002440000000000000594023
:105090000000000000408F40000000000088C34076
:1050A00000000000006AF8400000000080842E41EB
:1050B00000000000D01263410000000084D7974137
:1050C0000000000065CDCD41000000205FA002423D
:1050D000000000E876483742000000A2941A6D42B2
:1050E000000040E59C30A2420000901EC4BCD642A5
:1050F00000003426F56B0C430080E03779C3414350
:1051000000A0D8855734764300C84E676DC1AB43C5
:10511000003D9160E458E143408CB5781DAF1544E3
:1051200050EFE2D6E41A4B4492D54D06CFF08044BE
:10513000F64AE1C7022DB544B49DD9794378EA44D3
:105140000080E03779C34143176E05B5B5B8934683
:10515000F5F93FE9034F384D321D30F94877825A4F
:105160003CBF737FDD4F1575F8B500BFF8BC08BCB8
:105170009E467047450D0000D900000071020000F6
:10518000F8B500BFF8BC08BC9E467047C5000000DB
:0851900000487047845800003C
:1051980070B50D46114600F073F90B4904460160DD
:1051A800681C04BF204670BD284625F01F012561F4
:1051B800616100F08FFA2069012100F01F0001FAF7
:0C51C80000F0A061204670BD04590000FA
:0451D40000F084B9AA
:1051D800F8B5054608781446202803D111F8010FC0
:1051E8002028FBD008782C2818BF3F2807D111F8B1
:1051F800010F202803D111F8010F2028FBD0084601
:10520800009109780026272904D16946401C00F03E
:105218004EF803E000221146FCF7BCFADFF824C080
:10522800DCF80410DCF8002005EB610311F0010F35
:105238001CBF19688A58014618469047002C18BFA9
:085248002670F8BD7458000047
:1052500010B50B491446CA68896800EB620012F069
:10526000010F1CBF026851588847002C08BF10BDB1
:1052700002462046BDE810400249FCF7C5B90000CF
:085280007458000014590000ED
:0452880000F076B804
:0E528C008269406900290CBFC26182617047CF
:0E529A00416949698069084018BF01207047CA
:0E52A80010B500F019F9BDE81040FBF785B80D
:1052B60038B502460078541C0D465C2847D114F8D0
:1052C600010B0021722808BF0D2040D010DC612898
:1052D60008BF07203BD0622808BF082037D06628C1
:1052E60008BF0C2033D06E2808BF0A202FD019E043
:1052F600742808BF09202AD0762808BF0B2026D09C
:1053060078280FD120788DF8000062788DF801207A
:105316008DF80210A41C102200216846FCF73BFA07
:10532600C0B214E0A0F130020A2A10D28DF80000B3
:1053360020788DF8010062788DF802208DF8031030
:10534600A41C082200216846FCF725FAC0B22C608E
:0253560038BD60
:1053580010B50446007B002808BF10BDA068FBF705
:0E5368002FF8206841682046BDE81040084735
:0853780000487047A458000032
:105380002DE9F041074600680E46C16890461D466B
:10539000384688470446002E1CBF307800281ED1AE
:1053A000D5B12026206870B102461AA12846FCF724
:1053B0002BF9054454F8080F28B1284606702068D8
:1053C0006D1C0028F0D1606830B105F8016B616890
:1053D000384688470446E5E70120BDE8F0812068AB
:1053E00078B13146FCF734F938B963682A4641464A
:1053F000384698470120BDE8F08154F8080F00288E
:10540000EFD16168081C08BFBDE8F08138468847C5
:085410000446E4E725730000E7
:1054180070B50A480468002C08BF70BD254664684A
:10542800287B38B1A868FAF7CBFF1DB12868416816
:1054380028468847002CF1D170BD000004000010F8
:10544800002908BF704770B50B480D460468002C4A
:1054580008BF70BD2026207B50B108A12846A2684D
:10546800FCF7CEF805446068002818BF05F8016B02
:105478006468002CEFD170BD040000102573000093
:10548800064A0260002202738160002904BF42605C
:10549800704703490A684260086070474059000035
:0454A80004000010EC
:1054AC000A490160816879B1094A1168814204BFD7
:1054BC004168116008D04A68824203D01146526894
:1054CC008242FBD142684A60FAF774BF405900002F
:0454DC0004000010B8
:1054E0000B4901608168002908BF7047094A1168AB
:1054F000814202BF4168116070474A68824203D00E
:10550000114652688242FBD142684A6070470000EF
:085510004059000004000010E6
:1055180010B5084914464A68096800EB620012F0A1
:10552800010F1CBF026851588847002C1CBF00207F
:08553800207010BD9C5800001A
:105540001B482021C0F8A011D0F8A01111F0400F85
:10555000FAD00221C0F804110121C0F80C110B226D
:10556000C0F88420C0F88010AA22C0F88C205523EF
:10557000C0F88C30D0F8881011F0806FFAD0032179
:10558000C0F88010C0F88C20C0F88C300521C0F81D
:1055900008110021C0F8A811C0F8AC11054AC0F8E4
:1055A000C420C0F8C81143F23A01016070470000FE
:0855B00000C00F40DE87280453
:1055B800EFF30980704780F309887047EFF308809C
:1055C800704780F30888704740BA7047C0BA704780
:1055D80010B5044600F0A2F8002C1CBFBDE810402E
:0655E80000F0BEB8FEE772
:1055F000421C08BF7047A0F10050A0F51C20030911
:105600000007C20E074800EB830003684FF0030C4D
:105610000CFA02FC23EA0C0303600368914019436F
:085620000160704700C0024068
:10562800421C08BF704730B4A0F10050A0F51C2000
:10563800144C420904EB8202956E00F01F0CC1F372
:10564800800303FA0CFC25EA0C059566956E45EA7D
:105658000C0CC2F868C0002B1CBF30BC7047030993
:105668000007C20E04EB8300036C4FF0030C0CFA26
:1056780002FC23EA0C030364036C914019430164A0
:0856880030BC704700C0024075
:1056900070B5FBF7C1F808A253681268FBF710F960
:1056A000FBF720FB054600F043F8044600F040F805
:1056B000001BA842FAD370BD0000000080842E4178
:1056C00070B54FF47A7100FB01F500F031F8044633
:0C56D00000F02EF8001BA842FAD370BDB9
:1056DC0070B50446401C08BF70BD24F01F0504F0D3
:1056EC001F00012101FA00F600212046FFF77AFF86
:1056FC0002212046FFF792FF28683043286070BDD6
:10570C0020F01F0200F01F00012303FA00F0002913
:08571C000CBFD06190617047E1
:0C57240084B069461820ABBE04B070478A
:1057300070B50A4C0A4D206858B9284600F05AF84E
:105740000849284600F04CF8284600F08DF8012062
:1057500020602846BDE8704000F084B81C000010AE
:085760000040094040420F0027
:105768002DE9F0411B4C2046FFF7B4FFA51C284645
:10577800FFF7B0FFE61C3046FFF7ACFF671D384661
:10578800FFF7A8FF01212046FFF7BCFF00212846AC
:10579800FFF7B8FF00213046FFF7B4FF0121384674
:1057A800FFF7B0FF9620FFF787FF00212046FFF79D
:1057B800A9FF01212846FFF7A5FF01213046FFF781
:1057C800A1FF00213846FFF79DFF9620FFF774FFE1
:0857D800D8E7000032C00920EF
:1057E000034A12689208B2FBF1F1491EC16070478A
:0457F000180000108D
:1057F400184AB0F1402F04BFD2F8C41041F002019E
:1058040018D0A0F18041B1F5004104BFD2F8C41012
:1058140041F004010ED0B1F5082F04BFD2F8C41032
:1058240041F4800106D0B1F50C2F05D1D2F8C41093
:1058340041F40001C2F8C410022141600021016753
:105844000549064A09688908B1FBF2F1491EC1609D
:105854007047000000C00F401800001040420F00C5
:0458640080687047A1
:0C58680081680029FCD1012141607047DB
:105874008D520000000000009B5200000000000058
:10588400CC580000D9510000D258000051520000F9
:10589400000000008952000059530000000000007D
:1058A400E25800001955000000000000000000004C
:1058B400E958000019540000EF5800004954000052
:0858C4000000000000000000DC
:1058CC007772697465007265616400446967697414
:1058DC00616C4F75740064656C65746500636C6510
:1058EC006172006F626A6563747300426173650074
:1058FC000000000018590000D5510000A95200000A
:08590C008153000091510000DD
:0359140025690002
:0C591800004E000024590000505900000F
:105924004E346D62656431304469676974616C4FEB
:045934007574450041
:105938000000000050590000E1540000AD54000080
:085948008153000079530000B7
:08595000A04D000058590000B1
:0D5958004E346D6265643442617365450034
:08596800C8EDFF7F0100000003
:1059700000000000000000000C000010F7580000BC
:10598000B45800000000000000D8B8050000000076
:1059900000000000045000002450000044500000AB
:1059A00000000000000000000000000000000000F7
:1059B000984E000000000000000000000000000001
:1059C00000000000000000000000000000000000D7
:1059D00000000000000000000000000000000000C7
:1059E00000000000000000000000000000000000B7
:1059F00000000000000000000000000000000000A7
:105A00000000000000000000000000000000000096
:105A10000000000000000000000000000000000086
:105A20000000000000000000000000000000000076
:105A30000000000000000000000000000000000066
:105A40000000000000000000000000000000000056
:105A50000000000000000000000000000000000046
:105A60000000000000000000000000000000000036
:105A70000000000000000000000000000000000026
:105A800020000010000000000000000014010010C1
:105A9000140100101C0100101C0100102401001052
