:1000000000800010BD100000C5100000C7100000E7
:10001000C9100000CB100000CD100000000000004F
:10002000000000000000000000000000CF100000F1
:10003000D110000000000000D3100000D510000017
:10004000D7100000D7100000D7100000D710000014
:10005000D7100000D7100000D7100000D710000004
:10006000D7100000D7100000D7100000D7100000F4
:10007000D7100000D7100000D7100000D7100000E4
:10008000D7100000D7100000D7100000D7100000D4
:10009000D7100000D7100000D7100000D7100000C4
:1000A000D7100000D7100000D7100000D7100000B4
:1000B000D7100000D7100000D7100000D7100000A4
:1000C000D710000039483A4970B5884223D0394CDE
:1000D000A14220D2024652F8046B0B46CD4343F8AE
:1000E000046B6519A342C5F3800514D23DB11668AF
:1000F00000F108021E6001F10803A3420BD2104672
:1001000050F8045B194641F8045B5668021D5E60B6
:100110000B1DA342F3D328482849884224D0284CF9
:10012000A14221D2024652F8046B0B46CD4343F85C
:10013000046B04EB050CA342CCF3800514D23DB153
:10014000156800F108021D6001F10803A3420BD2FB
:10015000104650F8045B194641F8045B5668021DCE
:100160005E600B1DA342F3D3164A1748824216D293
:1001700000211346D64343F8041B84198342C4F379
:1001800080040CD224B1196002F10803834206D224
:100190001A4642F8041B5960131D8342F8D305F038
:1001A0008BFE00F007FA11F0F9FD00BF7447010063
:1001B00000000010CC050010404D0100140A001092
:1001C000140A0010CC050010140A00101B4820214E
:1001D000C0F8A011D0F8A01111F0400FFAD0022100
:1001E000C0F804110121C0F80C110B22C0F88420C2
:1001F000C0F88010AA22C0F88C205523C0F88C309B
:10020000D0F8881011F0806FFAD00321C0F8801068
:10021000C0F88C20C0F88C300521C0F808110021EE
:10022000C0F8A811C0F8AC11054AC0F8C420C0F845
:10023000C81143F23A0101607047000000C00F404E
:10024000DE8728040000000000000000000000001D
:10025000000000000000000000000000000000009E
:10026000000000000000000000000000000000008E
:10027000000000000000000000000000000000007E
:10028000000000000000000000000000000000006E
:10029000000000000000000000000000000000005E
:1002A000000000000000000000000000000000004E
:1002B000000000000000000000000000000000003E
:1002C000000000000000000000000000000000002E
:1002D000000000000000000000000000000000001E
:1002E000000000000000000000000000000000000E
:1002F00000000000000000000000000000000000FE
:1003000040F2CC53C1F200031A780AB901201870E8
:10031000704700BF40F2CC50C1F2000008B503683E
:100320002BB140F20003C0F2000303B1984708BDAF
:1003300008B50021074810F085FF0421064810F099
:1003400081FF0648042110F07DFF054B01221A6051
:1003500008BD00BFA0F50000A8F50000B0F5000042
:10036000D8050010024B16221A604FF0FF3070477C
:100370001009001008B511F011FD00BF01207047F1
:1003800070B5094D06462C684CB111F051FBA3190C
:10039000834207D8296820468E192E6070BD034C11
:1003A0002C60F2E704F05EFED4050010180A00107D
:1003B00001F0020311F4806F18BF43F0040311F041
:1003C000080F18BF43F00803194610F03BBF00BFE9
:1003D00010F00EBF022801DC0120704710F01EBF94
:1003E00002282DE9F0476EDD404F3B68002B61D1BC
:1003F0003F4D404C25F0010C65460CF1280615F8E0
:1004000001ABC3F34F0883EA0A0313F0010F1CBFCB
:1004100088EA04081FFA88F84FEA5A0988EA090AA4
:100420004FEA58031AF0010F1CBF63409BB24FEA1A
:10043000590883EA08095B0819F0010F1CBF6340E3
:100440009BB24FEA580883EA08095B0819F0010FCC
:100450001CBF63409BB24FEA580883EA08095B0857
:1004600019F0010F1CBF63409BB24FEA580883EAA2
:1004700008095B0819F0010F1CBF63409BB24FEAEB
:10048000580883EA08095B0819F0010F1CBF634094
:100490009BB283EA58085B0818F0010F1CBF634049
:1004A0009BB2B542ABD142F23F04A34212D1DCF879
:1004B00028303B60033853F8200038B103681B69CB
:1004C0009847BDE8F0870020BDE8F0874FF0FF3087
:1004D000BDE8F087084909480C686B220121E368F0
:1004E00005F0DAFC012011F059FC00BFD005001026
:1004F0000914010001A0FFFF28010010B8F5000059
:1005000010B50B4C82B0236814460BB9022808DDE5
:100510002246002310F058FF20F00040201A02B0BD
:1005200010BD01900091FFF703FF00990198EFE7DC
:10053000D805001010B50C4C82B0236814460BB9D6
:10054000022809DD0023224610F074FF0028A8BF0E
:10055000C0EB040002B010BD01900091FFF7E8FE6F
:1005600000990198EEE700BFD80500104FF4005342
:100570004B600020704700BF0B4A0C4910B5044681
:100580000260C0F8641200F5197010F0C1FD084B4C
:1005900004F51170C4F8443210F0BAFD204612F090
:1005A00001F8204610BD00BFA0F80000A8440100DB
:1005B0004C46010010B566488AB005F0D1FF654889
:1005C00005F0CEFF644805F0CBFF6448644904F0B1
:1005D00097FF0446002862D0624805F0C1FF20461C
:1005E000614904F097FF0028C0F2A6805F4805F03B
:1005F000B7FF204604F0C4FD002840F092805C481C
:1006000005F0AEFF55485B4904F07AFF0446002828
:100610007CD0594805F0A4FF2046584902AA05F0AD
:10062000D9F8B0F1FF3F66D002A9554805F048FF60
:10063000544805F095FF204604F0A2FD00284FD154
:10064000514805F08DFF454810F050FF00283CD17F
:100650004E4805F085FF4E4810F01AFF04464D48FD
:1006600005F07EFF002C25D04B4805F079FF02E015
:100670004A4805F025FF204610F034FF01460028C7
:10068000F6D14748019105F06BFF204610F0FCFEC3
:10069000444805F065FF019908460AB010BD42487C
:1006A00042490368424AD868232304F033FF0120FB
:1006B00011F074FB3C4A3F4914685B233C4AE068F4
:1006C00004F028FF012011F069FB37483A4903681C
:1006D000374AD868522304F01DFF012011F05EFB59
:1006E000314A364914684923314AE06804F012FF60
:1006F000012011F053FB2C48314903682C4AD8687B
:10070000412304F007FF012011F048FB264A274946
:1007100014683A23264AE06804F0FCFE012011F038
:100720003DFB214825490368214AD868312304F05C
:10073000F1FE012011F032FB1B4A224914682A23E2
:100740001B4AE06804F0E6FE012011F027FB00BF21
:1007500024F6000040F600005CF6000078F6000089
:1007600084F60000ACF60000C0F60000ECF60000D5
:100770002CF7000048F700004CF7000060F700007D
:1007800084F70000A4F70000C4F70000F4F70000AD
:1007900008F800000CF8000030F8000054F80000E1
:1007A0005CF8000070F800002801001088F60000D6
:1007B000A0F6000014F80000D8F7000010F70000C1
:1007C00068F70000D0F600000C4A0D4910B5044649
:1007D0000260C0F8641200F5197010F099FC094B22
:1007E00004F51170C4F8443210F092FC204611F068
:1007F000D9FE204600F0F4FC204610BDA0F8000011
:10080000A84401004C46010030B50A4D83B00A4CA3
:1008100000950A4D0A490B4A20460B4B019500F002
:1008200071F80A490A4A204603B0BDE8304000F09A
:1008300057BC00BF06C00920DC05001084F800008A
:1008400009C0092008C0092007C009207905000057
:10085000000000104FF0FF30704700BF00207047CD
:1008600000207047D0F84002704700BF4B1C9B1A15
:10087000002B2DE9F001074641DDA0EBE20C9CF8CE
:100880000F0002F00701084101215C1E994204EAB1
:10089000010400EA01002FD074B1511CA7EBE10C58
:1008A0009CF80F4001F007010C41022104F0010403
:1008B000994240EA44001FD08E184C1CA7EBE60872
:1008C000A51898F80F80A7EBE50C06F007069CF832
:1008D0000FC048FA06F605F007054CFA05FC06F0CD
:1008E000010616FA01F10CF00105A5400843611C50
:1008F000994240EA0500DFD1BDE8F00170470020D1
:10090000FAE700BF2DE9F04182B00E46099904468E
:1009100090461F4611F0E2FD0C483B462060002542
:100920003146424604F51170009510F03FFE2A460C
:1009300004F51970089910F001FAD4F87832D4F857
:100940007C2220469A6102B0BDE8F081A0F8000048
:10095000F8B5D0F878320546D0F87C0205F5117468
:100960001646D86141F04001204610F0EBFD3116EB
:10097000204610F0E7FD3114204610F0E3FD31125F
:10098000204610F0DFFD3146204610F0DBFD20460A
:10099000952110F0D7FD41F2883707E010F0D2FD25
:1009A00010F0800F06460DD0013F16D0FF212046E3
:1009B00010F0C8FD0646FF2116F0800F204607F113
:1009C000FF37EBD1D5F87812D5F87C2220468A6122
:1009D000FF2110F0B7FD3046F8BDD5F87C62D5F8A0
:1009E000783220469E61FF214FF0FF3610F0AAFDBD
:1009F0003046F8BD38B5054641F288340AE028464D
:100A0000FFF7A6FF284629210022FFF7A1FF80B1AA
:100A1000013C10D0372100222846FFF799FF2921F9
:100A200000222846FFF794FF013C372100220028CE
:100A3000E5D1012038BD054905480B681E2201217A
:100A4000DB6805F029FA204638BD00BF28010010F8
:100A5000E0F8000070B5D0F878320546D0F87C0296
:100A600005F511741646D86141F04001204610F09A
:100A700069FD3116204610F065FD3114204610F056
:100A800061FD3112204610F05DFD3146204610F028
:100A900059FD2046952110F055FD41F2883607E0BA
:100AA00010F050FD10F0800F03460DD0013E0DD028
:100AB000FF21204610F046FD0346FF2113F0800F72
:100AC000204606F1FF36EBD1184670BDD5F87812F6
:100AD000D5F87C2220468A61FF2110F033FD4FF0CB
:100AE000FF33184670BD00BFF8B5D0F87C22D0F8AF
:100AF000783200F51175DA617A210746284610F040
:100B000021FD0021284610F01DFD0021284610F08F
:100B100019FD0021284610F015FD0021284610F08F
:100B200011FD2846952110F00DFD41F2883607E0B1
:100B300010F008FD10F0800F04460DD0013E26D0C5
:100B4000FF21284610F0FEFC0446FF2114F0800F20
:100B5000284606F1FF36EBD1FF21284610F0F2FCC3
:100B6000FF21284610F0EEFCFF21284610F0EAFC99
:100B7000FF21284610F0E6FCD7F87C12D7F878223F
:100B800028469161FF2110F0DDFC2046F8BDD7F822
:100B90007C42D7F8783228469C61FF214FF0FF3421
:100BA00010F0D0FC2046F8BD38B5054641F2883437
:100BB0000AE02846FFF7CCFE284629210022FFF74D
:100BC000C7FE80B1013C13D0372100222846FFF731
:100BD000BFFE292100222846FFF7BAFE013C37213B
:100BE00000220028E5D12846FFF77EFF022038BD0D
:100BF00004491E220B6804480121DB6805F04CF90A
:100C0000204638BD2801001000F90000F0B5D0F8EA
:100C10007832D0F87C2200F5117583B0DA61482172
:100C20000746284610F08EFC0021284610F08AFC6A
:100C30000021284610F086FC0121284610F082FC95
:100C4000AA21284610F07EFC2846872110F07AFC65
:100C5000244E00240BE010F075FCC0B2013410F0FB
:100C6000800F8DF800000FD00134B4422DD0FF2149
:100C7000284610F067FC5FFA80FCFF211CF0800F13
:100C800028468DF800C0E6D1FF21284610F05AFC16
:100C9000FF21284610F056FCFF21284610F052FC98
:100CA000FF21284610F04EFCD7F87832D7F87C2286
:100CB00002A90C1904F8080CFF219A61284610F0CB
:100CC00041FC9DF8000003B0F0BDD7F87832D7F8AA
:100CD0007C2228469A61FF2110F034FC4FF0FF304F
:100CE000F1E700BF404B4C0070B500F511750446AC
:100CF0003A49284610F052FCD4F87832D4F87C22D5
:100D0000FF219A61284610F01DFCFF21284610F0B3
:100D100019FCFF21284610F015FCFF21284610F091
:100D200011FCFF21284610F00DFCFF21284610F091
:100D300009FCFF21284610F005FCFF21284610F091
:100D400001FCFF21284610F0FDFBFF21284610F092
:100D5000F9FBFF21284610F0F5FBFF21284610F093
:100D6000F1FBFF21284610F0EDFBFF21284610F093
:100D7000E9FBFF21284610F0E5FB2846FF2110F093
:100D8000E1FB002120460A46FFF7E2FD0128054667
:100D900009D0134A012110683722C368114805F0B1
:100DA0007BF8002070BD2046FFF730FF012810D0EF
:100DB000052809D00A4937220B680B482946DB6809
:100DC00005F06AF8002070BD2046BDE87040FFF7CE
:100DD00011BE2046BDE87040FFF7E6BEA0860100C8
:100DE0002801001020F9000058F900002DE9F8430F
:100DF0000546D0F87832D0F87C020C469046D8618F
:100E000005F51176FF21304610F09CFBFE28F9D144
:100E1000B8F1000F24DDFF21304610F093FB0127CD
:100E200008F1FF39474509F00109207018D0B9F1E0
:100E3000000F07D0FF21304610F084FB0227474502
:100E400060700DD0FF21304610F07CFBFF21E05593
:100E5000304610F077FB791C023747456054F1D1DA
:100E6000FF21304610F06EFBFF21304610F06AFB88
:100E7000D5F87832D5F87C2230469A61FF2110F0FF
:100E800061FB0020BDE8F88370B552020D461121C8
:100E90000646FFF75DFD044608B1012070BD3046EF
:100EA00029464FF40072FFF7A1FF204670BD00BF36
:100EB0002DE9F843D0F878320646D0F87C0206F5E2
:100EC00011749146D8610D462046FE2110F03AFB80
:100ED000B9F1000F22DD01272046297809F1FF38FA
:100EE00010F030FB4F4508EA070817D0B8F1000FA3
:100EF00006D020466978022710F024FB4F450DD01C
:100F0000E95D07F10108204610F01CFB023720467E
:100F100015F8081010F016FB4F45F1D1FF212046BF
:100F200010F010FBFF21204610F00CFBFF212046A3
:100F300010F008FB00F01F01052911D12046FF2108
:100F400010F000FB0028F9D0D6F87C12D6F87822F1
:100F500020469161FF2110F0F5FA0020BDE8F883EA
:100F6000D6F87832D6F87C2220469A61FF2110F01C
:100F7000E9FA0120BDE8F88370B552020D46182148
:100F80000646FFF7E5FC044608B1012070BD304677
:100F900029464FF40072FFF78BFF204670BD00BF5B
:100FA0002DE9F041092184B000220546FFF752FDEA
:100FB0000446002833D1284669461022FFF716FF61
:100FC0000546002835D17F217E226846FFF74EFC7A
:100FD000492106463E226846FFF748FC31212F2270
:100FE00007466846FFF742FC532180465022684678
:100FF000FFF73CFC002E26D1012212FA00F308F183
:1010000002018A4007FB033C02FB0CF00028BCBF36
:1010100000F5FE700330401204B0BDE8F0810F49C6
:101020000F480B6824220121DB6804F035FF002003
:10103000F2E70A4A0B48136801212522DB6804F015
:101040002BFF2046E8E7054907480B6840220121AD
:10105000DB6804F021FF2846DEE700BF280100100E
:1010600090F90000B8F90000E0F9000038B5044636
:10107000FFF73AFE2046FFF793FF1021C4F8400225
:101080004FF400722046FFF763FC054630B904F5C3
:101090001170074910F082FA284638BD0549064804
:1010A0000B681D220121DB6804F0F6FE012038BD2B
:1010B00040420F002801001024FA00000648804733
:1010C00006480047FEE7FEE7FEE7FEE7FEE7FEE72D
:1010D000FEE7FEE7FEE7FEE7CD010000C5000000E9
:1010E00003460846194603F0E9BF0098904214BF32
:1010F00001200620704738B514461D4600F0B5F9AA
:1011000028B1012008232C60EB60023B2B7138BD15
:101110002DE9F0419846069F0446089B1546099E16
:101120009F420CD1079900F0A0F940B1757103E01E
:10113000012337603571B3710020BDE8F08120468E
:10114000414600F092F90028F2D1F5E7F8B50546DE
:101150000C4616461F4600F088F940B9032F07D801
:1011600023682046294632465B699847F8BD01202E
:10117000F8BD0000034B10B50446036000F05AF9B7
:10118000204610BD58FA000010B50446FFF7F2FFE4
:10119000204600F025F8204610BD00228160026044
:1011A0000271C2607047F0B5064685B00F466846CA
:1011B00010211446FFF7F1FF3368304639462268A4
:1011C0009D696B46A8479DF8043003F00603062B83
:1011D00003D1009B0120236000E0002005B0F0BD9A
:1011E00008B104F003BF7047FFF7FABF00F0060034
:1011F000A0F10603584240EB0300704740187047C7
:101200000022816002600271427182717047F7B5FD
:101210000E1E089C07DB1046FFF7F0FF844214BF48
:101220000120062008E016F1020F04D005680094A2
:101230002C6AA04700E00120FEBD2DE9F0471D46C5
:10124000036888B088461646A3F10807044653F899
:10125000081CFFF7D3FFD7F8049005AF1021824692
:101260003846FFF7CDFFD9F800304846CDF800A04A
:10127000CDF804802946029406220397DF6933469D
:10128000B847059F3FB39DF81A904846FFF7AEFF59
:1012900008BB9DF819A09DF818000AEA0000FFF7A6
:1012A000A5FFC0B90AF0050ABAF1040F12D0B9F1CE
:1012B000000F08D1304629463A4643460094FFF7CE
:1012C000A6FF8DF81A009DF81A00FFF78FFF08B1EE
:1012D000059F00E00746384608B0BDE8F0870000EB
:1012E00010B5002814BF0446012405E0054B1B6817
:1012F0000BB903F0B7FE9847204604F06FFE0028B4
:10130000F4D010BDBC080010FFF7EABF08B51B22DF
:101310000249022007F08AFB00F056FBAEFA0000FB
:10132000F8B504460F4616461D46FFF7E4FE38B9E9
:10133000A0683946324603689C692B46A047F8BD31
:101340000120F8BD2DE9F04F85B00C461946054641
:1013500016461F46DDF83890DDF840A0DDF84480E1
:1013600000F083F88346B0B1002CC8F8009088F8EC
:10137000046009DB4C44A24514BF4FF0010A4FF052
:10138000060A88F806A011E014F1020F0ED101231D
:1013900088F806300AE0D1450CD128460F9900F0B4
:1013A00064F838B188F80560584600E0002005B0C0
:1013B000BDE8F08FA86821460F9A03680192324673
:1013C000CDF80090CDF808A0CDF80C80DD693B4643
:1013D000A847ECE72DE9F3410446DDF820800D46EF
:1013E00017461E46904506D1194600F03EF810B14A
:1013F0000620BDE8FC81A06829463A460368CDF87E
:1014000000801C6A3346A047F3E70000034B10B589
:1014100004460360FFF7AEFE204610BDD8FA000078
:1014200010B50446FFF7F2FF2046FFF7D9FE20462D
:1014300010BD0000014B0360704700BF58FB000067
:1014400000207047002070470020704710B5044608
:10145000FFF7F0FF2046FFF7C3FE204610BD4068AF
:1014600003782A2B08BF01307047814238B50D46FA
:1014700011D0FFF7F4FF037804462A2B0DD028463D
:10148000FFF7EDFF0146204605F07DFBD0F101009E
:1014900038BF002038BD012038BD002038BDFFF71F
:1014A000E4BF032894BF00200120704700F0010032
:1014B00070474018704709B103689A581146FFF702
:1014C000F8BF0000034B10B504460360FFF752FE5F
:1014D000204610BDB0FB000010B50446FFF7F2FF38
:1014E0002046FFF77DFE204610BD406800F0010059
:1014F00070474068C0F34000704740680012704772
:101500002DE9F74F8B460C990546924699468A423B
:101510003BD11946FFF7A9FF002832D135E0013C45
:10152000A61C05EBC6063046FFF7E3FF18B33046AE
:10153000FFF7E3FF07463046FFF7D7FF064610B137
:101540001BF1030F17D03A4631465046FFF7B3FF61
:101550000C99024658F8080C0368009159461F6A16
:101560004B46B8470746FFF79CFF20B156B147F0FE
:101570000107FFB206E0A8F10808002CCFD101272F
:1015800000E006273846BDE8FE8FEC6804F102084B
:1015900005EBC808F1E72DE9F04F89B00546924602
:1015A00003911C46FFF7A7FD002840F08D80D4F87A
:1015B0000890D5F80C8019F0100F08F1020618BF3A
:1015C000D5F8089005EBC60676E0494608F1FF38E5
:1015D00004A8FFF7E2FD08F1020305EBC303019342
:1015E0001846FFF78AFF019B07461846FFF77DFF65
:1015F000019B83461846FFF77CFF029010B919F053
:10160000010F58D0BAF1000F06D03A46504659465D
:10161000FFF751FF024600E0524656F8080C0399C6
:1016200003689F6904ABB847002844D0079B082B88
:1016300005D1BBF1000F02D056F8083C07939DF886
:1016400014703846FFF72DFF28B1029B1BB927F015
:1016500002078DF81470E168C9B904AB0FCB84E8B8
:101660000F0027793846FFF71CFF00282CD017F011
:10167000020F03D0AB6813F0010F06E03846FFF706
:1016800015FF08B3AB6813F0020F14D11CE02368F8
:10169000049A934203D000232360023309E0BBB9CC
:1016A0000798082804D0082902D0FFF7DEFE78B991
:1016B0000223237108E0083EB8F1000F85D120799C
:1016C000003818BF012000E0012009B0BDE8F08F0C
:1016D00023799DF8142042EA03032371EBE72DE9F7
:1016E000F04F91B0074689461D9C07930692A36868
:1016F0001A9A13F0100F1CBF8368A3601C9B9A42B8
:1017000040F03E811B99FFF7B0FE002800F03881C1
:10171000069A62712EE11A9BB9F1000F069A2360B6
:1017200022710ADB18464946FFF7C3FE1C9B834221
:1017300014BF01200620A0711CE119F1020F40F036
:1017400019810123A37115E1B9F1000F04DB1C9885
:10175000C9F10001FFF7ADFE4FF00008012208902B
:10176000CDF82C80099201E0CDF824A0D7F80CA088
:101770000AF1020307EBC3030A93F0E00AF1FF3A10
:10178000A1680AF102050DA8FFF73AFD07EBC505B0
:101790002846FFF7B2FE83462846FFF7A6FE01461D
:1017A00018B1069B43F0010600E0069E5A461A98BF
:1017B000FFF781FE089A83463AB19042099A94BF96
:1017C00000230123934200F0C5802846FFF791FED5
:1017D00048B919F1020F04D1A36813F0030F00F008
:1017E000BB8006F0FD060A9B49461B9A53F8080C7D
:1017F000036801921C9ACDF800B002920DAA0392E0
:101800003246DD69079BA8479DF83A5063799DF8F9
:101810003920062D42EA0303637101D0022D06D15F
:101820000D9BA57123609DF838302371A5E0D4F895
:1018300000B0B8F1000F10D1BBF1000F0DD10D9A1F
:101840009DF8381022602171002A7ED0002B7CD0B8
:10185000BB6813F0010F78D18FE0BBF1000F0BD004
:101860000D9A934506D123799DF8382042EA030367
:1018700023716BE032B928B90D9A002A66D0B8F10D
:10188000000F63D01846A6790593FFF70AFE059B63
:1018900000287DD01846FFF709FE18B1A36813F0A1
:1018A000020F75D1002E08BF0126002D08BF0125AB
:1018B0001EE02846FFF7F5FD00286CD02846FFF70C
:1018C000F5FD18B1BB6813F0020F64D101267DB994
:1018D0003046FFF7E6FD002867D03046FFF7E6FD0B
:1018E00028B1BB6813F0020F5FD1013500E001257C
:1018F00086EA0500C0B2FFF7D4FD8346A0B12846B2
:10190000FFF7CFFD38B10D9B2E464FF00008236046
:101910009DF83830237116F0020FA6712AD1304697
:10192000FFF7C4FD90B928E006EA05054FF001086D
:10193000E8B2FFF7B6FD20B10223C4F800B0A371EE
:101940001AE0206084F8068000E080466379042B6A
:1019500002D111E001230B930A9A083A0A92BAF1D4
:10196000000F7FF40BAF0B9B33B1099A002A7FF471
:10197000FBAE01E0002000E0404611B0BDE8F08F72
:1019800038460799FFF771FD00287FF4C4AEDBE607
:10199000002E9CD18DE71C9B494607985A46009320
:1019A0001B9BFFF734FC064691E71C9A49460798B3
:1019B0001B9B00920D9AFFF72AFC054698E708B595
:1019C000804703F04FFB000008B5024B1868FFF793
:1019D000F6FF00BF340000101D4B73B51E781D4C80
:1019E00016B123681C482DE001221A7002F08EFB0C
:1019F00030B3FFF734FD02AB31464FF0FF3243F80E
:101A0000042D3246054602F011FB2368D9680646CC
:101A1000124803F0CBFD019B13B92368304601E067
:101A200023682846D96803F0C1FD23680C48D968AB
:101A300003F0BCFD019B43B9304604F0D7FA04E043
:101A400023680848D96803F0B1FD03F00BFB00BF21
:101A5000C008001028010010D8FB0000F6FB0000B1
:101A600027FC00002AFC00004269034681698A4283
:101A700006DA01690C2000FB021001325A6170473E
:101A80000020704770B51E464B1E0C461546402B75
:101A90002FD8DFE803F0212121212E2E2E2E242401
:101AA00021242424242424242424242E27272727E3
:101AB00027272124242424242E242726212E2127CD
:101AC000272E2E24212121212121212124212E2EC6
:101AD0002424242E2E2E24007DB11EB90BE00DB936
:101AE0000BE066B1FFF7C0FF50B10470456086603F
:101AF00070BD002070BD304670BD284670BD3046B8
:101B000070BD38B50C461546FFF7AEFF48B12CB195
:101B100035B1002344600370856038BD204638BD70
:101B2000284638BD10B50C4631B1FFF79DFF20B1F6
:101B300023234460037010BD084610BD38B50C4621
:101B40001546FFF791FF18B11623446003708560B6
:101B500038BD70B504460D461646C36822E0E268FB
:101B60000132722BE26005D1002E0CBF17211A2121
:101B7000236B06E0562B236B05D1002E0CBF1821DA
:101B80001B21093304E0002E0CBF19211C21063350
:101B90000022236320461346FFF774FF286048B1F4
:101BA000E368051D1B78562BD9D0722BD7D04B2B51
:101BB00001D1D4E70546284670BD51B1036A426A97
:101BC000934208DAC26942F823100133036201200C
:101BD00070470846704700207047C36870B50446D8
:101BE0001A78532A6FD15A1CC2605B781BB101323C
:101BF0005F2BC2602ED0A3F13002D2B2092A01D8E5
:101C0000002206E0A3F14102D2B2192AF8D92CE051
:101C10000A46A3F13001C9B2092905D8242101FBE4
:101C20000233A3F1300109E0A3F14101C9B219293E
:101C300049D8242101FB0233A3F13701914242D359
:101C4000E2681378002BE3D001325F2BE260DFD132
:101C5000013100E00021236A994236D2A36A0133A0
:101C6000A362E36953F8210070BDA26812F0080F67
:101C700009D151B1E2681678433EF6B2012E8CBF0D
:101C80000026012602E0012600E00E46002210494F
:101C90008D18895C994213D1696921B12046AA69DE
:101CA000FFF74CFFE06216B1E9682A6901E0696854
:101CB000AA68236B20469B182363BDE870403DE76C
:101CC0001C32C42AE3D1002070BD002070BD00BFCB
:101CD00058FC0000D0F8041138B50446431800251C
:101CE000D4F810211D71D0F80C3104309847D4F885
:101CF0002431C4F804510133C4F8243138BD38B557
:101D00000446D0F804310D46FF2B01D1FFF7E2FF66
:101D1000D4F8043184F80851E2180133C4F80431CE
:101D2000157138BDF8B505460C461746002604E087
:101D3000A15D2846FFF7E3FF0136BE42F8D1F8BDAA
:101D400006E003782B2B09D1002903DD80680139D7
:101D50000028F6D121B920B14068704700207047B3
:101D60000020704770B5044608460D4604F01EFF7B
:101D7000294602462046BDE87040D3E710B588B03A
:101D800004460A4601A8044904F068FE204601A959
:101D9000FFF7E8FF08B010BDFD090100C36870B58A
:101DA0000446C3B98568002D08BF022500E06D0018
:101DB0008D42FCD32068294604F0DAFB064640B980
:101DC000206804F013F9012326606660A660E360D2
:101DD00070BD2060A56070BDF8B50D46516807461E
:101DE0009368144601314919994202D91046FFF708
:101DF000D5FFE6686EB963682A4620683946C01880
:101E000004F01CFB226863685219D65463685D199C
:101E10006560F8BD036810B51A786E2A04D15A1CA3
:101E2000012102605A7800E000210023A2F1300471
:101E3000E4B2092C03D901B15B42184610BD0A2453
:101E400004FB03230268541C0460303B5278EDE726
:101E500038B5044629B9C368187810B30146013370
:101E6000E360682902D104F10C000DE0762915D158
:101E700004F10C052846FFF7CDFFE3681A785F2AC6
:101E80000CD128460133E360FFF7C4FFE3681A78FA
:101E90005F2A05D101330120E36038BD002038BD41
:101EA000002038BDC36810B504461B785F2B06D0F0
:101EB0006E2B0CD00C30FFF7ADFF013000E000209E
:101EC000E3681A785F2A05D10133E36010BD4FF053
:101ED000FF3010BD4FF0FF3010BD38B50446C36869
:101EE0001A78542A10D10133C360FFF7DBFF051EB7
:101EF0000CDBA36A20460133A362FFF7B5FD30B1C6
:101F000005234560037038BD002038BD002038BD72
:101F100008B5C3681A785F2A07D1013340F80C3F2F
:101F2000FFF778FFC043C00F08BD012008BD70B5A2
:101F300004460C30FFF76EFF061E34DDE56863686B
:101F40005B1BB3422CDBA268AB19E36012F0040FF9
:101F500004D0AA5D242A01D10133E360092E19DDE2
:101F600028461249082204F05BFA98B92B7A05F149
:101F700008022E2B03D05F2B01D0242B0AD15378DB
:101F80004E2B07D1236B20460949152216339E1B81
:101F9000266302E0204629463246FFF7B2FD00E004
:101FA0000020E06270BD002070BD00BFEC020100A7
:101FB000F5020100C3682DE9F04104461A780D4688
:101FC000472A02D0542A40F03781226B02F11401D3
:101FD00021631978542905D1581CE060597829B932
:101FE0000E467DE1472940F025819EE001305329CE
:101FF000E06037D00DD8462900F0898003D8432906
:1020000040F0188167E0492925D04A2940F0128123
:1020100084E0632949D005D8542912D0562940F0CC
:10202000098105E0682924D0762940F003812EE05B
:102030000F322046226300F038FB09210246204679
:1020400007E00A322046226300F02FFB0A210246F5
:102050002046002340E1204600F027FB0C210246E9
:102060002046F6E7204600F020FB0D2102462046E0
:10207000EFE72046FFF7ECFE002800F0D9800021B2
:102080002046FFF797FF0F2102462046E1E7204652
:10209000FFF7DEFE002800F0CB8000212046FFF78E
:1020A00089FF102102462046D3E720460021FFF792
:1020B000CFFE002800F0BC8020460021FFF7C8FEBC
:1020C000002800F0B58000212046FFF773FF1121A2
:1020D00002462046BDE7204600F0E7FA054604F137
:1020E0000C00FFF797FE0028C0F2A480E3681A787E
:1020F0005F2A40F09F8001332046E36000F0D5FA6C
:10210000236B0B210533236302462046E3E0204680
:1021100000F0CBFA0E21024620469AE7204600F056
:10212000C4FA12210246204693E75A1CE2605E7808
:10213000002E00F0D5809A1C522EE2600FD002D8FB
:10214000412E77D112E0562E02D0722E72D115E0B8
:10215000204600F078F913210246204679E7204610
:1021600000F071F914210246204672E70021204652
:10217000FFF720FF1521024620466AE704F10C0014
:10218000FFF748FE012855DDE5682E78002E00F0A7
:10219000A78001355F2EE5604CD1461E4FF0000848
:1021A00000E098462F78002F3ED0242F1CD16B786A
:1021B000532B04D05F2B04D0242B3BD102E02F27DC
:1021C00000E02E272046FFF74FFC034610B13922CE
:1021D00047600270E5680235E5603BB3023E13E0FC
:1021E0000137B74201DB04E00027EB5D0BB1242B84
:1021F000F6D1294620463A46FFF783FCE568ED19FB
:10220000E5600346A0B1F61BB8F1000F06D02046EA
:1022100038214246FFF736FC034648B1002EC0DCA9
:10222000204637211A4614E73E4659E01E4657E03D
:10223000064655E0002653E000F005F90646C0B119
:10224000BDB1A36813F0010F13D100E076683378B5
:10225000A3F11A02D2B2022AF8D9022B40D1B368F4
:1022600000E05B681A781A3AD2B2022AF9D9B36050
:1022700036E0E3681B78002E32D0002B30D0452B9F
:102280002ED031460B78042B04D01CD31A3B022BE2
:1022900019D814E0496879B10B78082B05D8072BB9
:1022A00009D2013B012B02D803E02E2B03D00021E1
:1022B00002E08968EFE7012181F0010104E049684B
:1022C0000029DFD100E00021204600F05EFC032160
:1022D0003246054620462B46BDE8F041FFF7D2BB0B
:1022E0003046BDE8F081C3681A785F2A0AD101330D
:1022F000C360C3681A785A2A02D10133C36059E611
:10230000002070470029FBD1F3E7C36870B504468D
:102310001A784C2A3DD15A1CC2605B785F2B01D0E1
:102320005A2B04D120460021FFF7DDFF2AE000F000
:10233000BCF9054600282ED00378232B06D143682C
:102340001A7C1AB1226B5B68D31A2363E3681A788C
:102350006E2A03D101333626E36000E03526E168BA
:1023600002E0D0B10132E260E26810784528F8D18D
:10237000521A2046FFF7C5FB31462A46034620463F
:10238000FFF780FBE3681A78452A05D10133E36043
:1023900070BD002070BD70BD002070BDC36873B5F6
:1023A00004461A78C66A492A48D15A1CC2605B782A
:1023B000452B09D10132C26000222B21134602B005
:1023C000BDE87040FFF75EBB02AD002345F8043D59
:1023D000E26813784C2B11D0582B02D0492B15D121
:1023E00010E001322046E26000F015FDE368197844
:1023F0004529024622D10133E3600BE02046FFF776
:1024000084FF06E02046FFF7C9FF02E0204600F007
:102410004CF90246A2B120462B210023FFF732FBE4
:10242000286070B1E3681A78452A02D000F10805E7
:10243000CEE70133E662E360019802E0002000E0AD
:10244000104602B070BDC3682DE9F34104461A7806
:102450004C3A0E2A00F20581DFE812F0D7000301A2
:102460000F000301030103010301DA000301D70098
:1024700003010301030103018700013301A9C360C4
:102480000122FFF766FB0646002800F003814FF0AB
:10249000000800E0B846E3681D78002D52D0A5F191
:1024A0003002D2B2092A0DD9A5F16102D2B2192A9D
:1024B00008D9A5F14302D1B2122907D8774952B2FF
:1024C000914003D5204600F0E1FB16E0532D04D1E6
:1024D00020460121FFF781FB0FE0492D08D1B8F11B
:1024E000000F33D02046FFF759FF0421074615E0BF
:1024F000542D07D12046FFF7F0FC0746B8F1000F36
:102500000BD111E0452D21D04D2D1DD1B8F1000F7B
:102510001CD001334746E360BCE701213B4620461F
:102520004246FFF7AFFA0746532DB3D0E3681B7856
:10253000452BAFD020463946FFF73FFB0028A9D1F5
:10254000804603E0A84601E04FF00008C6F800808E
:10255000B8F1000F07D0E3681A78452A53D1013348
:10256000019EE36096E0464694E001330021C3609B
:10257000FFF720FDE3681A78452A074643D15A1C25
:10258000E2605B78732B10D101322046E260FFF7E6
:10259000BFFC00287DD042490E222046FFF7B1FA49
:1025A00002213A46034620466EE0642B08D10132F0
:1025B0002046E260FFF776FCB0F1000802DA22E084
:1025C0004FF0FF382046FFF73EFF054648B103783D
:1025D0003E2B06D0402B04D02046FFF799FC002864
:1025E00057D0B8F1FF3F09D02046FFF73DFA20B1A0
:1025F0003F23C0F80880037045600546204602214D
:102600003A462B4640E0002644E000F03FFB40E025
:102610005A78742A05D000210125FFF7DEFA064614
:1026200014E002331F49C3600322FFF76AFA05462C
:10263000204600F02BFB2A460121002503462046B8
:10264000FFF720FA236B033323630646E3681B7806
:10265000492B1FD18DB920463146FFF7AEFA60B93C
:1026600015E000F013FBE3681B78492B064611D1F7
:1026700020463146FFF7A1FA58B12046FFF78EFEFB
:102680000421324603462046FFF7FCF901E02E46BE
:1026900000E006463046BDE8FC8100BF002040C097
:1026A0000B0301001A030100CDE6F7B50446C2682A
:1026B0001378562B03D0722B01D04B2B10D1204610
:1026C00001A90022FFF745FA0546002800F019820B
:1026D0002046FFF7EAFF2860002800F0118212E28E
:1026E000A3F130014A2900F20982DFE811F07700F6
:1026F0007700770077007700770077007700770022
:102700007700070207020702070207020702070213
:102710007B00070225014901070265002E0107021F
:102720000702070207020702A80077000A01130147
:1027300007021C01DF00CD003B0107020702070270
:1027400007027700070207020702070207020702D3
:102750004B004B004B004B004B004B004B004B0021
:102760004B004B0007024B004B004B004B00070295
:10277000070207024B004B005C004B004B004B0074
:102780004B004B00934A1421204601FB0321FFF725
:10279000C9F9226B436801905B68D3182363E3682F
:1027A0000133E360A8E101322046E260FFF7BFFB9E
:1027B000242102462046D0E0531CE3605278592A77
:1027C00001D10133E3600121204600F0DEF9E36826
:1027D0001A78452A31D10133E360C1E02046FFF782
:1027E00063FFBDE0511CE16053785F2B17D0303B95
:1027F000DBB2092B0CD8E3685A1CE2605B78303BF3
:10280000DBB2092BF7D92046521AFFF77AF902E01A
:10281000204600F000FB0546002834D000E00025EB
:10282000E3681A785F2A08D101332046E360FFF796
:102830003CFF26210346204655E0002090E001326F
:102840002046E2606D46FFF730FF694601220646EA
:102850002046FFF77EF90746A8B12046FFF725FF7F
:10286000386000287CD0AF4208D00378252B05D0F3
:1028700020460099FFF7A1F9002871D020462721B2
:102880003246009B6AE06BE02046FFF726FBE368D8
:10289000019001461B78492B40F035812046FFF717
:1028A0008CF9002800F02C81019D16E05378A3F1EB
:1028B0003002D2B2092A05D95F2B03D0413BDBB2EB
:1028C000192B12D800212046FFF787F9E368019001
:1028D00005461B78492B40F00F812046FFF75EFD2F
:1028E0000421034620462A4638E02046FFF7DCFE56
:1028F0000190002800F007810378162B40F0038137
:10290000FAE001322046E260FFF7CFFE20210246C6
:10291000204622E001322046E260FFF7C6FE1E217B
:102920000246204619E001322046E260FFF7BDFE74
:102930001F210246204610E001322046E260FFF7E8
:10294000B4FE21210246204607E001322046E26023
:10295000FFF7ABFE2221024620460023FFF792F844
:102960000190D0E001322046E260FFF7E0FA0190EA
:102970002046FFF79AFE1D21019B02462046EDE707
:10298000531CE3605578002D00F0BB805A1C682D65
:10299000E26049D00ED8642D40D005D8462D54D0E1
:1029A000542D40F0AB8017E0652D3AD0662D40F0F5
:1029B000A58030E0732D3AD005D8692D3AD0702D1E
:1029C00040F09C801FE0742D06D0762D40F096805C
:1029D00069E000BF88F50000204600F01CFA3B21AA
:1029E000002302462046FFF74DF80190002800F032
:1029F0008380E26813781BB10132452BE2607BD003
:102A00000023019378E02046FFF74FFE4121002389
:102A1000024620466BE020463E490DE020463E49F6
:102A20000AE020463D4907E020463D4904E02046B3
:102A30003C4901E03C492046FFF774F8226B0190C5
:102A400043685B68D318236356E02046FFF70CF811
:102A5000282301900370E3681B78303BDBB2092B1D
:102A60008CBF0023012303811BB104F10C00FFF78D
:102A7000D1F92046019DFFF718FE019B68605D6853
:102A8000002D3ED004F10C00FFF7C4F9E268137882
:102A90000BB10132E260A3F17302534243EB020334
:102AA000019A538128E05B785F2B06D101322046E2
:102AB000E26000F0B0F905460BE02046FEF7D4FFD7
:102AC0000546B8B13A23037004F10C00FFF7A2F9F0
:102AD00068607DB1E3681A785F2A0BD10133204624
:102AE000E360FFF7E2FD29212A4603462046FEF770
:102AF000C9FF00E000200190019D02E0002500E0F8
:102B000005462846FEBD20460199FFF756F80028E5
:102B1000F2D1F5E724FF000038FF00004CFF000071
:102B200060FF000074FF000088FF000037B5044616
:102B300002AD002345F8043DE3681B7883B1452BC3
:102B40000ED02046FFF7B1FD0246E0B120462A2113
:102B50000023FEF797FF2860A0B100F10805EBE71E
:102B6000019A82B1936873B95168087823280AD111
:102B70004968087C092806D1206B4968411A2163FD
:102B8000536000E0024610463EBDC36870B504467F
:102B90001A784A2A02D10133C36000E029B12046E5
:102BA000FFF783FD054668B100E00D462046FFF7BC
:102BB000BDFF034638B1204625212A46BDE87040B6
:102BC000FEF760BF70BD70BDC3682DE9F0410446DB
:102BD000197809B10133C360E368187808B101338B
:102BE000E360762917D1A0F13006F3B2092B21D882
:102BF0002046FFF79CF905462046FEF735FF0028E2
:102C00003FD02DB12D23466003708560BDE8F08173
:102C10002846BDE8F08163290CD176280AD12046E8
:102C2000FFF743FD2E21002302462046BDE8F04178
:102C3000FEF728BF34220023D61ADFF84CC006EB7B
:102C4000D6760CF5517503EB66063701ED1967442E
:102C5000D7F8447397F800C061450BD17F78B8422C
:102C600008D12046FEF700FF58B12C2345600370C1
:102C7000BDE8F08101D3731C00E032469342DBD102
:102C80000020BDE8F08100BF58FC0000C3682DE9BA
:102C9000F04105461A78A2F13001C9B2092903D8DA
:102CA000BDE8F041FFF743B9A2F16101C9B21929AA
:102CB00010D8FFF789FF0446002800F0A9800378A8
:102CC0002C2B40F0A58043682A6B9B68D3180733F0
:102CD0002B639DE0A2F14301C9B2012946D8C36A22
:102CE0003BB11A780AB1162A03D1026B9B68D3183C
:102CF0000363EB681A78432A03D0442A40F08780A4
:102D000017E05A78322A07D0332A03D0312A7ED1ED
:102D1000012702E0032700E0022702332846EB6088
:102D2000EE6AFEF7A1FE0446002871D0E6B1072343
:102D300016E05A78312A07D0322A03D0302A66D1D9
:102D4000012702E0032700E0022702332846EB6058
:102D5000EE6AFEF789FE0446002859D026B1082302
:102D600003700771866053E0344651E04C2A0AD163
:102D70000133C360FFF7DBF80446002848D028463B
:102D8000FFF7C6F83FE0552A41D159785A1C6C2903
:102D900002D074293BD120E0C2605B786C2B36D125
:102DA0000132C260FFF7C2FE0646A0B1EB681A7896
:102DB000452A2CD101332846EB60FFF773F8071E34
:102DC00025DB2846FEF750FE0446C0B13E23466090
:102DD0000370876013E004461AE0C2605B78742BCE
:102DE00015D10132C260FFF75DF8061E0FDB2846E1
:102DF000FEF73AFE044610B14023466003702846B1
:102E00002146FEF7DAFE002808BF002400E0002477
:102E10002046BDE8F081C3682DE9F04104461A78E8
:102E20004C2A03D1BDE8F041FFF76FBA542A03D111
:102E3000BDE8F041FFF751B8732A2CD159787229B7
:102E40001ED10233C360FFF730FC05462046FFF772
:102E50001DFFE3681B78492B064604D0204601215C
:102E60002A463346DDE02046FFF798FA0421324631
:102E700003462046FEF706FE012103462046CFE02A
:102E800070291FD10233C360FFF7C5FF4121002322
:102E900002462046C5E0662A14D15978702911D11E
:102EA0000233C360FEF7FEFF061EC0F2BE8020465E
:102EB000FEF7DAFD0546002800F0B88006234660DC
:102EC0000370B3E0A2F13001C9B2092906D96F2A13
:102ED00017D15A786E2A14D10233E3602046FFF7E7
:102EE000D5FE0546002800F0A180E3681B78492B39
:102EF00040F09C802046FFF751FA0421034620460B
:102F00008EE02046FFF760FE0546002800F08E8028
:102F100006782C2E0ED14368216B9A6818688A189F
:102F20004449023A226303F02EFE48B92046FFF7D7
:102F3000BCFB1EE02D2E06D02E2E0DD02C2E74D1D3
:102F40006B68DB6800E04368022B16D0032B4DD082
:102F5000012B6AD12E2E09D1E3681A785F2A05D198
:102F600001332046E36000F06DF802E02046FFF7F1
:102F700052FF03462F21204652E06B6820461F680F
:102F8000FFF749FF2C490646384603F0FCFD18B907
:102F9000204600F057F81EE03846284903F0F3FDBC
:102FA00020B13846264903F0EEFD88B92046FFF7E8
:102FB0006DFEE3681B78492B07460DD12046FFF7CD
:102FC000EDF904213A4603462046FEF75BFD02E098
:102FD0002046FFF720FF074631213B462046324678
:102FE000FEF750FD30210346204619E02046FFF74A
:102FF00012FF06462046FFF70EFF07462046FFF762
:103000000AFF34213A4603462046FEF73BFD3321B2
:10301000324603462046FEF735FD32210346204660
:103020002A46BDE8F041FEF72DBD00252846BDE843
:10303000F08100BFDD0401001E0301002103010037
:1030400024030100C36837B50022019204461978B1
:10305000452901D001AD08E001332A21C3601346A0
:1030600003B0BDE83040FEF70DBD2046FFF7D3FEAC
:10307000024688B120462A210023FEF703FD28607E
:1030800050B1E3681A78452A02D000F10805ECE750
:1030900001330198E360FFE703B030BD0123036013
:1030A0007047003818BF0120704710B5D0F81441A0
:1030B0002CB900F58E70FFF7F1FF204610BD636854
:1030C00009689868BDE81040FEF73ABE38B5054675
:1030D0000C46002C2DD02378162B2CD00CD8062B88
:1030E00029D004D8002B26D0052B1BD110E0072BAC
:1030F0001DD0082B16D11AE02D2B18D003D8232B66
:1031000019D02C2B02E0392B15D0412B0AD112E01B
:103110002846211DFFF7C9FF70B103782B2B18BF7C
:10312000002038BD28466168FFF7D0FF20B9A468A9
:10313000CFE7204638BD002038BD73B50D4609687D
:1031400004460B78042B02D000F034F831E0D0F8BC
:1031500014210023D0F81861C0F8183102AB019196
:1031600043F8082DC0F81431496800F023F8009B9B
:10317000C4F8143194F808313C2B03D120462021A7
:10318000FEF7BDFD3C212046FEF7B9FD2B68204629
:10319000996800F00FF894F808313E2B03D12046CF
:1031A0002021FEF7ACFD20463E21FEF7A8FDC4F825
:1031B00018617CBD2DE9F047044692B00D4619B95F
:1031C00000F58E7000F0ABBCD0F81C01FFF769FF72
:1031D000002840F0A6842B78412B00F29E84DFE883
:1031E00013F042008B008B0099001D015D017104FA
:1031F00033047B01800183018601910194019701D1
:103200009A019D01A001A301A601A901AC01AF0192
:10321000B301B301B301C501C501C501C501C501B4
:10322000C501C501C501C501F7017B0402023A02CF
:103230009302AE029302CA02CA02F4020A030F0307
:10324000180330039C047E039C049C04A103A10387
:103250002C042F04360427043904740477048004F2
:103260009C048E044404236813F0040F00F068816A
:103270006E68AD6875193BE0AB1B032B33DD33780B
:103280005F2B30D173785F2B2DD1B378552B2AD19A
:10329000F21C002119E012F8013BA3F130005FFAA3
:1032A00080FEBEF1090F01D803460CE0A3F14100F6
:1032B000C0B2052801D8373B05E0A3F16100C0B2D8
:1032C000052806D8573B03EB0111AA421746E2D363
:1032D00009E05F2B07D1FF2905D82046C9B2FEF7C8
:1032E0000EFD3E4603E020463178FEF708FD01362C
:1032F000AE42C1D300F015BC20466968FFF75AFF03
:10330000236813F0040F02D12046A04975E220463D
:103310002E21E3E0D4F818A100266B46C4F818610A
:103320006F681AE0042E00F0F883D4F8182100A981
:10333000D4F814815F601A6001EB0612C4F81821FA
:1033400000229A6001363A78C3F80C801033A2F15B
:103350001A01C9B2022903D87F68002FE2D1DCE349
:10336000042A06D112AB119743F8088DC4F8143122
:1033700033E0022A31D1D7F808C000AA02EB061EBA
:103380009CF800303F2B08BFDCF804C01FE0032E80
:103390000EF1100E00F2C183AEF12003AEF1100960
:1033A0000FCB89E80F00731E00A94EF81CCC01EB6F
:1033B00003134EF8148C4EF8103C01EB0613C4F8BE
:1033C000183100234EF8183C0136DCF804C09CF894
:1033D00000301A3BDBB2022BD9D9A9682046FFF78F
:1033E000E9FE3B7800AA042B02EB061504BF109BF4
:1033F000C4F814310DE055F8083C013E43B92046AD
:103400002021FEF77CFC204655F80C1C00F0A4FBA4
:10341000103D002EEFD1C4F818A182E30023D4F8A8
:103420001871C4F8183123686E6813F0040F12D0B5
:10343000337883B9B268062A0DD17068544903F015
:10344000BDFB40B92046A968FFF7B4FE20465149AC
:10345000FEF788FC1FE020463146FFF7ABFE94F8EC
:1034600008313C2B03D120462021FEF748FC3C21AB
:103470002046FEF744FC2046A968FFF79BFE94F81F
:1034800008313E2B03D120462021FEF738FC204690
:103490003E21FEF734FCC4F8187142E3291D204692
:1034A000FFF703FE0146002800F0378303782B2B3B
:1034B00007D1D4F82011FEF743FC0146002800F0A4
:1034C0002C83D4F8145120462B68C4F81431FFF72C
:1034D00071FEC4F8145124E320467E21FEF70FFC50
:1034E000B2E220462C49F5E220462C49F2E2204681
:1034F0002B49FEF737FC20466968FFF75BFE204644
:1035000028497AE120462849E4E220462749E1E2B9
:1035100020462749DEE220462649DBE220462649AE
:10352000D8E220462549D5E220462549D2E2204668
:103530002449CFE220462449CCE220462349C9E26F
:1035400020466968AA6853E1D4F818210CE0916814
:1035500049B951680978A1F11700C0B2022805D80D
:10356000994200F0B9821268002AF0D1D4F81821EB
:1035700012AB0195204643F8482DC4F818310023BA
:103580000293D4F8143169680393CCE01505010067
:103590002703010076070100440301002E03010008
:1035A00037030100500301005503010063030100CC
:1035B00076030100870301008B0301009D030100D6
:1035C000B8030100C8030100DC030100F50301009A
:1035D0002368204613F0040F6B6807BF19685A6808
:1035E0009968DA6804E1236813F0200F05D02046BB
:1035F0002946D4F8182100F0CBFB6B68FBB1D4F856
:10360000182112AB2046019543F8482DC4F8183113
:1036100000230293D4F8143169680393FFF7CAFDBD
:10362000009BC4F81831029B002B40F07A8223687B
:1036300013F0200F03D120462021FEF760FB236802
:1036400013F0200F40F06D8220462946D4F818214F
:1036500000F09EFB65E2D4F8187112AB01950126CB
:10366000BE4643F8487DC4F8183100230293D4F8CD
:10367000143103931FE0DEF80830D3B9032E00F2B3
:103680004C824FEA061912AB03EB09089EE80F00C3
:10369000A8F1480C8CE80F0000A9D4F8183148F8BC
:1036A000483C01EB0903C4F818310123F618CEF8A1
:1036B0000830DEF800E0BEF1000F06D0DEF804307E
:1036C0001B78173BDBB2022BD5D92046A968FFF740
:1036D00071FD029BC4F81871002B40F02282771E06
:1036E00000AA02EB0717043704E020463969013EBF
:1036F00000F032FA103F012EF7D12046291DD4F8F0
:10370000182100F00BFB0CE2D4F8182112AB204674
:10371000019543F8482DC4F818310023A968029395
:10372000D4F814310393FFF745FD029B1BB92046E3
:10373000294600F011FA009BC4F81831F1E1B5F9FF
:103740000A301BB120469149FEF70CFB6968904B8B
:103750004A689A4206D02046FFF72CFD20462021D9
:10376000FEF7CDFAB5F9083013B12046894987E153
:103770002046894984E1696811B12046FFF71AFDA6
:10378000AB68002B00F0CD81D4F80431FD2B02D9B9
:103790002046FEF79FFA20468049FEF7E3FA2046CE
:1037A000A968D4F82471D4F80461FFF703FDD4F8B4
:1037B0002431BB4240F0B581D4F80431B34240F02B
:1037C000B081023BC4F80431ABE120467449FEF7F6
:1037D000C9FA6B685B681B78613BDBB2192B03D8B5
:1037E00020462021FEF78BFA6B68204659689A68BC
:1037F000FEF798FA95E16B492046FEF7B3FA23E10C
:1038000020466849FEF7AEFA2046291DFFF795FCD1
:1038100087E169680B782E2B03D0204600F01AFB55
:103820000CE020462821FEF76AFA69682046043138
:10383000FFF783FC20462921FEF761FA2046A9689C
:103840006DE0AB681B78312B40F067816B681A78AC
:103850002C2A0BD15B689A68012A07D15B681B7818
:103860003E2B03D120462821FEF749FAAB682046BB
:10387000596800F0F9FA6E684B4973681F6838465A
:1038800003F081F968B920465B21FEF738FAAB688E
:1038900020469968FFF78EFC20465D21FEF72FFA3F
:1038A0000DE03846414903F06EF918B12046314623
:1038B00000F0D0FAAB682046996800F0D5FA6B6842
:1038C0001A782C2A40F02D815B689A68012A40F012
:1038D00028815B681B783E2B40F02381C2E0AB68F7
:1038E0001A78332A40F019819A681278342A40F005
:1038F00014815968204600F0B7FA2046696800F044
:10390000A9FAAB6820469B68596800F0ADFA2046DA
:103910002749FEF727FAAB6820469B68996800F0B4
:10392000A3FAFEE06A68117823295ED15268167CFA
:10393000002E5BD0062E02D9072E57D140E0AA6890
:103940001278002A52D1362B03D120462D21FEF7C2
:10395000D6F92046A968023EFFF72CFC042E00F29F
:10396000E080DFE806F00306090C0F002046752111
:10397000D0E020466C21CDE020460E4980E0204674
:103980000D497DE020460D497AE000BF07040100A3
:10399000BCFD00000D040100140401001B04010023
:1039A0001E04010027040100310401001E03010070
:1039B00034040100380401003C0401003B04010010
:1039C000AA68117891B9916801290FD1352B0DD1D1
:1039D00053681B78302B02D0312B07D102E02046F0
:1039E00051494DE0204651494AE000262821204611
:1039F000FEF785F920466968FFF7DCFB29212046A0
:103A0000FEF77DF92B78362B03D120462D21FEF7CA
:103A100076F9082E03D120465B21FEF770F9204687
:103A2000A968FFF7C7FB082E7BD120465D2171E016
:103A300020466968FEF7A2F973E020463C4949E058
:103A400020466968FFF7B6FB2046A96846E0204695
:103A500029795FE020463749FEF784F920466968F6
:103A6000FFF7A8FB2046292154E020466968FFF7AC
:103A70002DFB60B92046696800F0F6F92E49204612
:103A8000FEF770F94DE08068013608B906E00026BF
:103A900003782B2B02D14368002BF4D16F680025EB
:103AA0000DE0C4F8205120463946FFF783FB731E12
:103AB0009D4203DA20462149FEF754F90135B5420B
:103AC000EFDB2EE020461E491BE020461D4901E0A9
:103AD0001D492046FEF746F969682046FFF76AFB54
:103AE0001FE020461949FEF73DF920466968FFF7B7
:103AF00061FB17492046FEF735F9A96804E015492E
:103B00002046FEF72FF9696820460131FEF736F9A5
:103B100020467D21FEF7F3F803E004F58E70FFF7F1
:103B2000BDFA12B0BDE8F0873F0401004504010072
:103B30004A04010059040100640401001B0401004F
:103B4000680401006F0401008D040100AA04010053
:103B5000B3040100B60401000B7870B5033B0446C2
:103B60000D46262B4FD8DFE803F03F4E4E4E4E4E0B
:103B70004E4E4E4E4E4E4E4E4E4E4E4E4E4E1416D7
:103B80001B14161B1D23292B2D2F4E4E4E4E314E2E
:103B900041001F4900E01F49BDE87040FEF7E2B850
:103BA0001D49F9E72021FEF7AAF82046A9682AE076
:103BB000036813F0040F2AD12A2120E026211EE0F9
:103BC0001649E9E71649E7E71649E5E790F80831AD
:103BD000282B02D02021FEF792F820466968FFF7D3
:103BE000E9FA20461049D7E749680CE00F49FEF78B
:103BF000B9F820466968FFF7DDFA20462921BDE8BB
:103C00007040FEF77CB8BDE87040FFF7D3BA70BDD6
:103C1000C5040100CF040100D9040100E004010043
:103C2000E3040100EC040100F7040100FB040100BF
:103C3000F8B504460D461746002D67D0D4F81C0190
:103C4000FFF72FFA002861D1AB68002B5CD12FB9A8
:103C50006B681B781A3BDBB2022B55D901236968CC
:103C6000AB60EB68D4F81461C4F814310B78252BE1
:103C700004D120462A6800F08BF83DE0262B05D1C0
:103C8000204604312A6800F049F835E0022B36D18D
:103C9000023BD4F818712046C4F818314968FFF780
:103CA00089FA2368C4F8187113F0040F04D1204670
:103CB0001749FEF757F803E020462E21FEF71FF8BC
:103CC0006B689D682B783F2B0DD120461149FEF77C
:103CD00049F8A96820460131FEF750F820460E4900
:103CE000FEF740F86D682B781A3BDBB2022BF9D94E
:103CF00020462946FFF75EFAC4F81461F8BD204655
:103D0000FFF72AFFC4F814612D6895E7F8BD00BFDE
:103D10001505010006050100140501002DE9F0411B
:103D200004460F469046BAB113469D6825B95B68B4
:103D30001B78262B23D103E01B68002BF5D101252E
:103D40000026204641460022FFF772FF1EB12046A2
:103D50002921FDF7D4FF1DB120462021FDF7CFFF1B
:103D60005B212046FDF7CBFF396811B12046FFF7F4
:103D700021FA20465D21BDE8F041FDF7C0BF204695
:103D800002490125FDF7EEFF2E46DAE76104010046
:103D90002DE9F0411346164604460F46002211E075
:103DA000996891B95A681278173AD0B2102807D892
:103DB000274852B2904046D44FF0E070904040D433
:103DC0001B680122002BEBD100E000231D4679681F
:103DD00001B102B18DB194F808211BB9282A07D08E
:103DE0002A2A05D0202A03D020462021FDF787FF6C
:103DF00020462821FDF783FF0125D4F818810022F1
:103E00002046C4F818213146FFF712FF1DB12046A5
:103E10002921FDF774FF28212046FDF770FFB968BE
:103E200011B12046FFF7C6F920462921FDF767FFAB
:103E3000204631460122FFF7FBFEC4F81881BDE899
:103E4000F0810B4600E0012301221546BFE700BFC9
:103E5000008030E20A782C2A04D14B6859689A68AD
:103E6000FDF760BFFFF7A6B90B7870B505460E46A3
:103E700033B1062B04D028210024FDF740FF00E0D9
:103E8000012428463146FFF795F92CB92846292107
:103E9000BDE87040FDF733BF70BD2DE9F043D9B0E8
:103EA000064600AF0D46037814465F2B02D14378D7
:103EB0005A2B1FD030465C49082202F07FFEF0B931
:103EC000337A2E2B03D05F2B01D0242B15D196F8FB
:103ED0000990B9F1440F02D0B9F1490F0FD1B37A6B
:103EE0005F2B0CD1B9F1490F14BF4FF003094FF00C
:103EF000020906E04FF0010903E0814601E04FF0BE
:103F0000000930464FF0000802F050FE0C22C7F8BE
:103F10002C61C7F83861C7F84081C7F84C81C7F8F1
:103F20005481C7F85881C7F85C813318C7F850012D
:103F3000C7F830311123C7F8343143008000C7F887
:103F400044310E3053430833B9F1010FADEB030D8B
:103F500020F007006B46ADEB000DC7F83C31C7F809
:103F600048D108D002D3B9F1030F0BD907F59670E9
:103F7000FEF79BFB04E007F596704946FEF7B3F9A0
:103F8000064622E00B36C7F838613046B9F1020F19
:103F900014BF4FF03D094FF03C0902F007FE3146D7
:103FA000024607F59670FDF7ACFD434649460246CA
:103FB00007F59670FDF766FDD7F83881064640464E
:103FC00002F0F4FD4044C7F83801D7F838311B78C7
:103FD00013BB1EB3381D31461122C7F808317A6071
:103FE00087F80C31C7F81831C7F81C31C7F82831E9
:103FF000C7F82031C7F81051C7F81441FFF7DAF8B5
:10400000381DFDF767FED7F82001FFF74AF8D0F119
:10401000010038BF002002E0002000E0304607F534
:10402000B277BD46BDE8F083EC0201002DE9FF4107
:104030000D4614461E4630B9002B4CD06FF00203DB
:10404000074633604AE039B132B9002B43D06FF0F4
:1040500002031746336041E022496A460023009379
:10406000019302930393FFF718FF074620B90098C6
:10407000B84601F0BBFF08E0039B13B9DDF80880E8
:1040800001E04FF00108009F57B936B3B8F1010FB6
:104090000CBF4FF0FF336FF00103002733601DE0CA
:1040A0000DB994B913E0384602F080FD23689842B8
:1040B00008D23946284602F071FD384601F096FFD5
:1040C0002F4604E0284601F091FFC4F800802EB18D
:1040D0000023336002E01F4600E03746384604B054
:1040E000BDE8F081D91D000008B540B151B1FFF71E
:1040F000D4FE002814BF00206FF0010008BD6FF04F
:10410000020008BD6FF0020008BD00BF08B500F056
:104110000BF8006830B190F82730012B04BF00681D
:104120007838006808BD000000487047C4080010D7
:10413000F8B50446384B0D4616460F4601EA030310
:104140004FEA235C6BB921F00047074356D00022A9
:10415000324B00F029FA324FBE4204460D4609DACE
:1041600038E040F2FF739C450CD102460B4600F04C
:1041700069F841E0284B0F4601EA03034FEA235C4C
:10418000ACF1360CB44440F2FE739C4510DCBCF13B
:10419000000F06DD27F0FE4727F4700747EA0C55AD
:1041A0002CE01CF1350F19DA4CF250339E420ADD37
:1041B00022462B4614A1D1E9000100F035F812A3E4
:1041C000D3E9002316E012A1D1E9000122462B46D3
:1041D00000F02AF80EA3D3E900230BE00CF1360C13
:1041E00027F0FE4727F470070E4B47EA0C55204690
:1041F0002946002200F0D8F904460D4620462946FB
:10420000F8BD00BFAFF300809C7500883CE4377EAA
:1042100059F3F8C21F6EA5010000F07F0000504363
:10422000B03CFFFF0000903C03F0004321F000424F
:1042300030B543EA020130BD81F0004102E000BF29
:1042400083F0004330B54FEA41044FEA430594EA56
:10425000050F08BF90EA020F1FBF54EA000C55EA91
:10426000020C7FEA645C7FEA655C00F0E2804FEA62
:104270005454D4EB5555B8BF6D420CDD2C4480EA44
:10428000020281EA030382EA000083EA010180EA74
:10429000020281EA0303362D88BF30BD11F0004FC2
:1042A0004FEA01314FF4801C4CEA113102D04042F8
:1042B00061EB410113F0004F4FEA03334CEA133333
:1042C00002D0524263EB430394EA050F00F0A7804B
:1042D000A4F10104D5F1200E0DDB02FA0EFC22FA46
:1042E00005F2801841F1000103FA0EF2801843FA3A
:1042F00005F359410EE0A5F120050EF1200E012A2B
:1043000003FA0EFC28BF4CF0020C43FA05F3C01868
:1043100051EBE37101F0004507D54FF0000EDCF1E1
:10432000000C7EEB00006EEB0101B1F5801F1BD38A
:10433000B1F5001F0CD349085FEA30004FEA3C0C8E
:1043400004F101044FEA445212F5800F80F09A8084
:10435000BCF1004F08BF5FEA500C50F1000041EB88
:10436000045141EA050130BD5FEA4C0C404141EB8C
:10437000010111F4801FA4F10104E9D191F0000FB3
:1043800004BF01460020B1FA81F308BF2033A3F136
:104390000B03B3F120020CDA0C3208DD02F1140C2D
:1043A000C2F10C0201FA0CF021FA02F10CE002F168
:1043B0001402D8BFC2F1200C01FA02F120FA0CFC61
:1043C000DCBF41EA0C019040E41AA2BF01EB0451AA
:1043D000294330BD6FEA04041F3C1CDA0C340EDCA8
:1043E00004F11404C4F1200220FA04F001FA02F3EB
:1043F00040EA030021FA04F345EA030130BDC4F1A9
:104400000C04C4F1200220FA02F001FA04F340EA9D
:104410000300294630BD21FA04F0294630BD94F04E
:10442000000F83F4801306BF81F480110134013D35
:104430004EE77FEA645C18BF7FEA655C29D094EAA6
:10444000050F08BF90EA020F05D054EA000C04BF24
:104450001946104630BD91EA030F1EBF002100200F
:1044600030BD5FEA545C05D14000494128BF41F0AE
:10447000004130BD14F580043CBF01F5801130BD12
:1044800001F0004545F0FE4141F470014FF000009D
:1044900030BD7FEA645C1ABF194610467FEA655C4E
:1044A0001CBF0B46024650EA013406BF52EA0335F0
:1044B00091EA030F41F4002130BD00BF90F0000FDE
:1044C00004BF0021704730B54FF4806404F132041A
:1044D0004FF000054FF0000150E700BF90F0000FD3
:1044E00004BF0021704730B54FF4806404F13204FA
:1044F00010F0004548BF40424FF000013EE700BFCA
:1045000042004FEAE2014FEA31014FEA02701FBF59
:1045100012F07F4393F07F4F81F06051704792F02B
:10452000000F14BF93F07F4F704730B54FF46074A5
:1045300001F0004521F0004120E700BF50EA0102F0
:1045400008BF704730B54FF000050AE050EA01029D
:1045500008BF704730B511F0004502D5404261EB0D
:1045600041014FF4806404F132045FEA915C3FF44E
:10457000DCAE4FF003025FEADC0C18BF03325FEAE7
:10458000DC0C18BF033202EBDC02C2F1200300FA9C
:1045900003FC20FA02F001FA03FE40EA0E0021FAC1
:1045A00002F11444C1E600BF70B54FF0FF0C4CF4AB
:1045B000E06C1CEA11541DBF1CEA135594EA0C0F61
:1045C00095EA0C0F00F0DEF82C4481EA030621EA9C
:1045D0004C5123EA4C5350EA013518BF52EA0335D7
:1045E00041F4801143F4801338D0A0FB02CE4FF089
:1045F0000005E1FB02E506F00042E0FB03E54FF0B9
:104600000006E1FB03569CF0000F18BF4EF0010EB0
:10461000A4F1FF04B6F5007F64F5407404D25FEAAC
:104620004E0E6D4146EB060642EAC62141EA55515F
:104630004FEAC52040EA5E504FEACE2EB4F1FD0CA1
:1046400088BFBCF5E06F1ED8BEF1004F08BF5FEA1F
:10465000500E50F1000041EB045170BD06F00046D1
:1046600046EA010140EA020081EA0301B4EB5C047E
:10467000C2BFD4EB0C0541EA045170BD41F4801176
:104680004FF0000E013C00F3AB8014F1360FDEBF9B
:10469000002001F0004170BDC4F10004203C35DA77
:1046A0000C341BDC04F11404C4F1200500FA05F3FA
:1046B00020FA04F001FA05F240EA020001F000429B
:1046C00021F0004110EBD37021FA04F642EB060111
:1046D0005EEA430E08BF20EAD37070BDC4F10C043B
:1046E000C4F1200500FA04F320FA05F001FA04F2FF
:1046F00040EA020001F0004110EBD37041F10001EB
:104700005EEA430E08BF20EAD37070BDC4F12005F5
:1047100000FA05F24EEA020E20FA04F301FA05F25D
:1047200043EA020321FA04F001F0004121FA04F205
:1047300020EA020000EBD3705EEA430E08BF20EAD5
:10474000D37070BD94F0000F0FD101F0004640000F
:1047500041EB010111F4801F08BF013CF7D041EA91
:10476000060195F0000F18BF704703F00046520095
:1047700043EB030313F4801F08BF013DF7D043EA66
:104780000603704794EA0C0F0CEA135518BF95EA1C
:104790000C0F0CD050EA410618BF52EA4306D1D1A3
:1047A00081EA030101F000414FF0000070BD50EAC2
:1047B000410606BF1046194652EA430619D094EA4C
:1047C0000C0F02D150EA013613D195EA0C0F05D136
:1047D00052EA03361CBF104619460AD181EA03018A
:1047E00001F0004141F0FE4141F470014FF0000042
:1047F00070BD41F0FE4141F4780170BD70B54FF0DD
:10480000FF0C4CF4E06C1CEA11541DBF1CEA13555C
:1048100094EA0C0F95EA0C0F00F0A7F8A4EB05043E
:1048200081EA030E52EA03354FEA013100F0888035
:104830004FEA03334FF0805545EA131343EA1263FE
:104840004FEA022245EA111545EA10654FEA0026B3
:104850000EF000419D4208BF964244F1FD0404F56C
:10486000407402D25B084FEA3202B61A65EB0305C8
:104870005B084FEA32024FF480104FF4002CB6EB85
:10488000020E75EB030E22BFB61A754640EA0C0005
:104890005B084FEA3202B6EB020E75EB030E22BF45
:1048A000B61A754640EA5C005B084FEA3202B6EB86
:1048B000020E75EB030E22BFB61A754640EA9C0045
:1048C0005B084FEA3202B6EB020E75EB030E22BF15
:1048D000B61A754640EADC0055EA060E18D04FEAD3
:1048E000051545EA16754FEA06164FEAC30343EA73
:1048F00052734FEAC2025FEA1C1CC0D111F4801F40
:104900000BD141EA00014FF000004FF0004CB6E738
:1049100011F4801F04BF01430020B4F1FD0C88BFD7
:10492000BCF5E06F3FF6AFAEB5EB030C04BFB6EBE2
:10493000020C5FEA500C50F1000041EB045170BDD5
:104940000EF0004E4EEA113114EB5C04C2BFD4EB02
:104950000C0541EA045170BD41F480114FF0000E86
:10496000013C90E645EA060E8DE60CEA135594EA02
:104970000C0F08BF95EA0C0F3FF43BAF94EA0C0F05
:104980000AD150EA01347FF434AF95EA0C0F7FF47A
:1049900025AF104619462CE795EA0C0F06D152EACE
:1049A00003353FF4FDAE1046194622E750EA4106B2
:1049B00018BF52EA43067FF4C5AE50EA41047FF4C3
:1049C0000DAF52EA43057FF4EBAE12E74FEA410226
:1049D00012F5001215D211D56FF47873B3EB625251
:1049E00012D94FEAC12343F0004343EA505311F078
:1049F000004F23FA02F018BF404270474FF000000A
:104A0000704750EA013005D111F0004008BF6FF047
:104A1000004070474FF00000704700BF4FEA41026E
:104A2000B2F1E04324BFB3F5001CDCF1FE5C0DD90C
:104A300001F0004C4FEAC0024CEA5070B2F1004F56
:104A400040EB830008BF20F00100704711F0804F59
:104A500021D113F13872BCBF01F00040704741F41E
:104A600080114FEA5252C2F11802C2F1200C10FA22
:104A70000CF320FA02F018BF40F001004FEAC12306
:104A80004FEAD32303FA0CFC40EA0C0023FA02F3AA
:104A90004FEA4303CCE77FEA625307D150EA013380
:104AA0001EBF4FF0FE4040F44000704701F0004050
:104AB00040F0FE4040F40000704700BF80F000402E
:104AC00002E000BF81F0004142001FBF5FEA4103E6
:104AD00092EA030F7FEA226C7FEA236C6AD04FEAE6
:104AE0001262D2EB1363C1BFD2184140484041402B
:104AF000B8BF5B42192B88BF704710F0004F40F4DD
:104B0000000020F07F4018BF404211F0004F41F4F8
:104B1000000121F07F4118BF494292EA030F3FD0C4
:104B2000A2F1010241FA03FC10EB0C00C3F12003D7
:104B300001FA03F100F0004302D5494260EB400066
:104B4000B0F5000F13D3B0F1807F06D340084FEAD1
:104B5000310102F10102FE2A51D2B1F1004F40EBC6
:104B6000C25008BF20F0010040EA0300704749002E
:104B700040EB000010F4000FA2F10102EDD1B0FAF9
:104B800080FCACF1080CB2EB0C0200FA0CF0AABFEE
:104B900000EBC25052421843BCBFD040184370478C
:104BA00092F0000F81F4000106BF80F40000013292
:104BB000013BB5E74FEA41037FEA226C18BF7FEA69
:104BC000236C21D092EA030F04D092F0000F08BFAB
:104BD0000846704790EA010F1CBF0020704712F092
:104BE0007F4F04D1400028BF40F00040704712F1D1
:104BF00000723CBF00F50000704700F0004343F036
:104C0000FE4040F4000070477FEA226216BF08466B
:104C10007FEA23630146420206BF5FEA412390EA2E
:104C2000010F40F4800070474FF0000304E000BF24
:104C300010F0004348BF40425FEA000C08BF7047D5
:104C400043F0964301464FF000001CE050EA010299
:104C500008BF70474FF000030AE000BF50EA0102AE
:104C600008BF704711F0004302D5404261EB41019B
:104C70005FEA010C02BF84460146002043F0B643C0
:104C800008BFA3F18053A3F50003BCFA8CF2083AE5
:104C9000A3EBC25310DB01FA02FC634400FA02FCEE
:104CA000C2F12002BCF1004F20FA02F243EB0200F5
:104CB00008BF20F00100704702F1200201FA02FC57
:104CC000C2F1200250EA4C0021FA02F243EB02004A
:104CD00008BF20EADC7070474FF0FF0C1CEAD0528E
:104CE0001EBF1CEAD15392EA0C0F93EA0C0F6FD04F
:104CF0001A4480EA010C400218BF5FEA41211ED02D
:104D00004FF0006343EA501043EA5111A0FB013118
:104D10000CF00040B1F5000F3EBF490041EAD371ED
:104D20005B0040EA010062F17F02FD2A1DD8B3F169
:104D3000004F40EBC25008BF20F00100704790F0D8
:104D4000000F0CF0004C08BF49024CEA502040EA2A
:104D500051207F3AC2BFD2F1FF0340EAC2507047F0
:104D600040F400004FF00003013A5DDC12F1190F2E
:104D7000DCBF00F000407047C2F10002410021FAA0
:104D800002F1C2F1200200FA02FC5FEA310040F1B8
:104D9000000053EA4C0308BF20EADC70704792F031
:104DA000000F00F0004C02BF400010F4000F013A69
:104DB000F9D040EA0C0093F0000F01F0004C02BF64
:104DC000490011F4000F013BF9D041EA0C018FE7D3
:104DD0000CEAD15392EA0C0F18BF93EA0C0F0AD0D9
:104DE00030F0004C18BF31F0004CD8D180EA0100FF
:104DF00000F00040704790F0000F17BF90F0004F98
:104E0000084691F0000F91F0004F14D092EA0C0F79
:104E100001D142020FD193EA0C0F03D14B0218BF0C
:104E2000084608D180EA010000F0004040F0FE4052
:104E300040F40000704740F0FE4040F440007047EE
:104E40004FF0FF0C1CEAD0521EBF1CEAD15392EA6D
:104E50000C0F93EA0C0F69D0A2EB030280EA010C5D
:104E600049024FEA402037D04FF0805343EA1111F6
:104E700043EA10130CF000408B4238BF5B0042F154
:104E80007D024FF4000C8B4224BF5B1A40EA0C00F9
:104E9000B3EB510F24BFA3EB510340EA5C00B3EB2B
:104EA000910F24BFA3EB910340EA9C00B3EBD10F19
:104EB00024BFA3EBD10340EADC001B0118BF5FEA6B
:104EC0001C1CE0D1FD2A3FF650AF8B4240EBC25094
:104ED00008BF20F0010070470CF0004C4CEA502055
:104EE0007F32C2BFD2F1FF0340EAC250704740F4A4
:104EF00000004FF00003013A37E792F0000F00F096
:104F0000004C02BF400010F4000F013AF9D040EA13
:104F10000C0093F0000F01F0004C02BF490011F4A7
:104F2000000F013BF9D041EA0C0195E70CEAD1539F
:104F300092EA0C0F08D142027FF47DAF93EA0C0F86
:104F40007FF470AF084676E793EA0C0F04D14B026A
:104F50003FF44CAF08466EE730F0004C18BF31F01C
:104F6000004CCAD130F000427FF45CAF31F0004316
:104F70007FF43CAF5FE700BF4FF0FF3C06E000BFAF
:104F80004FF0010C02E000BF4FF0010C4DF804CDD2
:104F90004FEA40024FEA41037FEA226C18BF7FEAE2
:104FA000236C11D001B052EA530C18BF90EA010FE4
:104FB00058BFB2EB030088BFC81738BF6FEAE17073
:104FC00018BF40F0010070477FEA226C02D15FEA0F
:104FD000402C05D17FEA236CE4D15FEA412CE1D07B
:104FE0005DF8040B704700BF844608466146FFE742
:104FF0000FB5FFF7C9FF002848BF10F1000F0FBD24
:105000004DF808EDFFF7F4FF0CBF012000205DF81C
:1050100008FB00BF4DF808EDFFF7EAFF34BF0120A1
:1050200000205DF808FB00BF4DF808EDFFF7E0FF3A
:1050300094BF012000205DF808FB00BF4DF808ED8B
:10504000FFF7D2FF94BF012000205DF808FB00BFEE
:105050004DF808EDFFF7C8FF34BF012000205DF8D0
:1050600008FB00BF08B5062001F0DCFC0120FBF7BF
:1050700081F9002200F002B801F0E0B90B461146B8
:105080001A4601F0FEB908B50346084611461A460D
:1050900005F0ACFC054B064A1B685968116099681D
:1050A000044A1160DA68044B1A6070472801001046
:1050B00004090010080900100C09001030B505465D
:1050C0000C461346022029462246BDE8304005F032
:1050D00011BC000070B505460C46002946D000F012
:1050E000CBF925B1AB6913B9284600F05BF9214B28
:1050F0009C4201D16C6808E01F4B9C4201D1AC6816
:1051000003E01E4B9C4208BFEC68B4F90C6056B338
:105110002846214600F03CF8236B06463BB1284662
:10512000216A984736EA200628BF4FF0FF36A38948
:1051300013F0800F03D02846216900F08BFA616BD1
:1051400041B104F14403994202D0284600F082FAAA
:1051500000236363A16C21B1284600F07BFA002391
:10516000A3640023A38100F088F900E00E463046D6
:1051700070BD00BF40090100600901008009010005
:10518000024B01461868FFF7A5BF00BF28010010B9
:105190002DE9F04105460E690C46002E00F0A7806F
:1051A00018B183690BB900F0FDF8524B9C4201D154
:1051B0006C6808E0504B9C4201D1AC6803E04F4B57
:1051C0009C4208BFEC68A289002A00F08D8013B2CF
:1051D00013F0080663D142F400636268A381002AD9
:1051E00003DC226C002A40F38280E66A002E7ED027
:1051F00000222F682A6013F4805201D0626D15E0FE
:1052000001232846216AB047B0F1FF3F02460DD185
:105210002B685BB11D2B01D0162B01D12F6061E0F3
:10522000A389064643F04003A38160E0A38913F0FD
:10523000040F05D06368D21A636B0BB1236CD21ACA
:105240000023E66A2846216AB047B0F1FF3F05D146
:105250002B681D2B39D82A4A9A4036D5A3890022BB
:10526000626023F4006322691B0422601B0CA3818B
:1052700013F4805F05D0B0F1FF3F01D12B6803B973
:105280006065616B2F60002930D004F144039942BE
:1052900002D0284600F0DEF90026666327E0266982
:1052A0002EB313F0030F2268266008BF6369C6EBB4
:1052B000020818BF0023A36011E0A76A2846216AEC
:1052C00032464346B847002806DCA3894FF0FF3634
:1052D00043F04003A3810AE03618C0EB0808B8F198
:1052E000000FEADC002602E0164600E00E463046DB
:1052F000BDE8F0814009010060090100800901005A
:1053000004020080014620B9044B0549186800F0EA
:1053100057BD044B1868FFF73BBF00BFA40901004D
:105320009151000028010010014900F027BD00BF85
:1053300081510000002310B5044603604360836080
:10534000818119464366C2810822036143618361FA
:105350005C3001F096F8054B24626362044BA36253
:10536000044BE362044B236310BD00BFF96A0000E5
:105370001F6B0000596B00007F6B000070B50E467C
:1053800068254D4305F10C0100F038FE044638B1A4
:105390000C30002166602A462160A06001F071F89F
:1053A000204670BD70B504468669002E25D1134B8A
:1053B0000125C0F8D86085618362C0F8DC60C0F860
:1053C000E06000F01DF86060204600F019F8A06071
:1053D000204600F015F804213246E0606068FFF7CF
:1053E000A9FFA06809212A46FFF7A4FFE06812215F
:1053F0000222BDE87040FFF79DBF70BD2953000039
:10540000F8B507461B4B1E68B36913B93046FFF762
:10541000C9FFD836B468736803E0B4F90C5085B19D
:105420006834013BF9D533682BB938460421FFF7BE
:10543000A5FF306008B13668ECE70C2304463B60FA
:1054400015E04FF0FF336566E38104F15C00012352
:105450002560A3812946A5600822656025616561F4
:10546000A56101F00EF86563A563A564E5642046B7
:10547000F8BD00BFA409010070477047F7B50F469B
:10548000114601AA064606F071F9054600282BD000
:105490003046FFF7B5FF044638B330463946019A27
:1054A0004FF4DB7300F0F8FF002807DAFFF7E4FFA2
:1054B0000023A3810024FFF7E0FF16E00C4BADB200
:1054C00015F4807FE081A58163620A4B2462A362A8
:1054D000094BE362094B236307D030462146002283
:1054E000022300F089F900E004462046FEBD00BF1B
:1054F000F96A00001F6B0000596B00007F6B000011
:105500000A460349034608681946FFF7B7BF00BFBC
:10551000280100100EB403B503AB0146054853F84B
:10552000042B0068019303F08FFABDE80C4003B030
:10553000704700BF2801001030B587B00446084608
:105540001546049101F032FB04AB01930123029351
:105550000390059024B1A36913B92046FFF722FFF9
:105560000F4B9D4201D1656808E00E4B9D4201D171
:10557000A56803E00C4B9D4208BFE568AB8913F4B6
:10558000005F06D143F40053AB816B6E23F40053EC
:105590006B662046294601AA00F0A6FA07B030BD86
:1055A0004009010060090100800901000A46034921
:1055B000034608681946FFF7BFBF00BF2801001067
:1055C000F8B50D46204E044600F063FFB3685F68EF
:1055D00027F0030707F16F035D1B25F07F05803D72
:1055E0007F2D1EDD0021204601F0DEF9B368DB19B6
:1055F000984216D16942204601F0D6F9B0F1FF3F3A
:1056000014D10021204601F0CFF9B368C21A0F2A45
:1056100007DD0E4942F001025A600968401A0C4940
:105620000860204600F036FF0020F8BDB3687F1BFD
:1056300047F0010720465F60054B1A68551B1D6047
:1056400000F028FF0120F8BD2C01001038050010E3
:10565000DC0800102DE9F04104460D46002900F059
:10566000AE8000F016FFA5F1080356485F6827F0EA
:105670000102D0F808C0991807F0010761454E688B
:1056800026F0030618D1B2183FB955F8081C5B1A6A
:1056900052189D68D968E9608D6042F0010183600D
:1056A0005960494B1B689A42C0F08480474B2046A2
:1056B0001968FFF785FF7DE04E6087B955F8085CF3
:1056C00000F1080C5B1B52199D68654509D0D3F8A1
:1056D0000CC0C5F80CC0CCF808503D4602E00025CF
:1056E00000E001258F197F6817F0010F0FD1921983
:1056F0004DB98E68364FBE4205D1F3600135B360B7
:10570000DE609E6003E0CE688968CE60B16042F0E2
:1057100001019A505960002D4CD1B2F5007F10D292
:10572000D2080135911015FA01F1456845EA0101E9
:10573000416000EBC200D86082689A60D3608360E9
:1057400038E0550A042D02D89509383516E0142D95
:1057500001D85B3512E0542D02D8150B6E350DE0E3
:10576000B5F5AA7F02D8D50B773507E040F2545142
:105770008D4202D8950C7C3500E07E2500EBC506F5
:10578000B168B1420CD10122AD1012FA05F54268A0
:1057900042EA05050A46456008E08968B14204D03E
:1057A000486820F003008242F7D3CA68DA60996043
:1057B000CB6093602046BDE8F04100F06BBEBDE8D1
:1057C000F08100BF2C01001034050010D808001033
:1057D000340100100EB403B503AB0146054853F87D
:1057E000042B0068019304F015FABDE80C4003B0E7
:1057F000704700BF280100102DE9F04F0C4691B012
:1058000092461E46054618B183690BB9FFF7CAFDDB
:10581000904B9C4201D16C6808E08F4B9C4201D1B7
:10582000AC6803E08D4B9C4208BFEC68FFF724FE98
:10583000A38903F48473B3F5847F03D128462146FA
:10584000FFF7A6FCD4F82C80B8F1000F01D11D237E
:1058500038E0012E04D0022E3AD0002E38D030E0AD
:1058600028462146FFF794FCA28912F4805202D008
:10587000D4F854900BE02846216A3346C047B0F173
:10588000FF3F814603D1FFF7F8FD484616E1A389A3
:1058900013F0040F08D06368C3EB0909636B5BB1B5
:1058A000236CC3EB090907E013F0080F04D0236849
:1058B00013B122699B1A9944CA444FF0010B002688
:1058C00009E016232B60FFF7D8FD4FF0FF30F5E01D
:1058D0004FF0000BD94623691BB92846214600F03A
:1058E0000FFBA28940F61A0302EA0303002B40F0E3
:1058F000B98012F4806F1DD1594B98450ED1B4F97F
:105900000E1000290ADB284601AA00F0DBF828B9AE
:10591000029B03F47043B3F5004F04D0A38943F412
:105920000063A3819EE04FF480632365A38943F461
:105930008063A3815EB12846B4F90E1001AA00F07D
:10594000C1F8002840F08E80059F574400E057467C
:10595000BBF1000F15D1A38913F4805F01D0606DF6
:1059600007E001232846216A5A46C047B0F1FF3FAD
:1059700078D06368C3EB0009636B13B1236CC3EB8E
:105980000909616B236939B1E26BD31A62689144EA
:10599000226CC3EB090904E02268D31A6268C3EBE6
:1059A00009094F4513441ADB09EB0302974216D24B
:1059B0002269C9EB0709C9EB030363604A4422600B
:1059C00041B104F14403994202D02846FFF742FE58
:1059D00000236363A38923F02003A38130E0236DB8
:1059E0002846216AC3F10009002307EA09094A464B
:1059F000C047B0F1FF3F35D022690023616B9B4661
:105A00006360226041B104F14403994202D0284608
:105A1000FFF720FEC4F834B0A389B7EB090723F0E1
:105A20002003A3810CD02846214600F031FFC8B9DD
:105A30006368BB4216D32268D219DF1B22606760FD
:105A40000021082204F15C0000F01BFDFFF715FDAA
:105A5000002033E0400901006009010080090100D5
:105A6000596B000028462146FFF792FB00287FF47F
:105A70002AAF2846216A52463346C047B0F1FF3F5D
:105A80003FF421AF616B41B104F14403994202D06C
:105A90002846FFF7DFFD00236363236900273946AB
:105AA0000822676004F15C002360A38923F4026389
:105AB000A38100F0E6FCFFF7E0FC384611B0BDE83A
:105AC000F08F00BF38B50546064C08461146002346
:105AD0002360FAF74BFDB0F1FF3F02D1236803B119
