:1000000000800010C5000000110100001301000075
:100010001501000017010000190100000000000098
:100020000000000000000000000000001D010000B2
:100030001F0100000000000021010000230100005A
:100040002501000025010000250100002501000018
:100050002501000025010000250100002501000008
:1000600025010000250100002501000025010000F8
:1000700025010000250100002501000025010000E8
:1000800025010000250100002501000025010000D8
:1000900025010000250100002501000025010000C8
:1000A00025010000250100002501000025010000B8
:1000B00025010000250100002501000025010000A8
:1000C000250100000B490C4A0C4B9A423EBF51F8E7
:1000D000040B42F8040BF8E700200949094A914251
:1000E0003CBF41F8040BFAE7074880470748004740
:1000F000FEE70000581E000000000010080000107D
:100100000800001098060010290100005115000099
:10011000FEE7FEE7FEE7FEE7FEE700BFFEE7FEE7DD
:10012000FEE7FEE7FEE70000364B2022C3F8A021E1
:10013000344BD3F8A02112F0400FF9D00322C3F8BA
:100140000421033AC3F8A821C3F8AC212E4A0120A8
:10015000C3F80C01AA21C3F884205522C3F88C10DF
:10016000C3F88C20C3F88000C3F88C10C3F88C202F
:10017000244BD3F8882012F0806FF9D00322C3F803
:100180008020A732C3F88C20553AC3F88C201D4B31
:10019000D3F8882012F0407FF9D02322C3F8A4209E
:1001A000552187320120C3F88C20C3F8AC20C3F856
:1001B000AC10C3F8A000C3F8AC20C3F8AC10114BCE
:1001C000D3F8A82012F4806FF9D00322C3F8A0203E
:1001D000A732C3F8AC20553AC3F8AC20094BD3F88A
:1001E000A82012F4407FF9D0084AC3F8C4200022A6
:1001F000C3F8C8211A6822F4704242F480421A609F
:10020000704700BF00C00F4063000500DE87280470
:1002100080F30988704700000A4B4FF0FF3101223C
:10022000C3F88010C3F88420C3F88011C3F8842178
:100230000023044A00219A180133202B82F800136E
:10024000F7D1704700E100E00B4B4FF020620B4903
:100250005A6000229A60D9601A615A61064B0020E8
:10026000D1180132202A0876F8D1213A58629A62D0
:10027000DA621A63704700BF00ED00E00000FA0583
:10028000014B9860704700BF00ED00E070B5427808
:10029000037884785B000F2A01D9103A01335200A9
:1002A0000321914014FA02F29B0003F1804303F50D
:1002B00030331D6825EA010141EA02021A604278E2
:1002C0000378C5785B000F2A01D9103A0133520038
:1002D0000324944015FA02F20F4951F8236026EAEC
:1002E000040444EA020241F82320027841780079AC
:1002F0000A4B012806D110FA01F153F8220040EA16
:10030000010106E0012010FA01F153F8220020EA71
:10031000010143F8221070BD40C0024068C0024095
:1003200004289ABF024B53F820000020704700BFFA
:10033000881C000038B50C461546FFF7F1FF40B1A8
:100340001DB103681C43046038BD036823EA04043C
:10035000046038BD08B5FFF7E3FF00B1406908BD90
:10036000012909D10A4A0B4BD2F8C41000EA030351
:100370000B43C2F8C430704749B9054A054BD2F85F
:10038000C41001EA030323EA0000C2F8C400704766
:1003900000C00F40DEF7EFEF074B984202D14FF459
:1003A000001004E0054B984204D14FF48060002116
:1003B000FFF7D6BF704700BF008008400000034031
:1003C000436801290CBF43F0020303F00D034360AF
:1003D000704703E011F8013B00F8013B013AF9D204
:1003E000704701E000F8011B013AFBD2704708B5E5
:1003F00060B1037853B1C3888B4209D1407801F0D2
:1004000064FA10F0010018BF032008BD092008BDE0
:10041000092008BD10B504460A46407804F13001B1
:10042000012301F057FA80BB94F82E3294F82F2262
:1004300043EA0222174B12B29A4228D194F868205C
:1004400094F86930120442EA036294F866301A4361
:1004500094F8673042EA03220F4B22F07F429A421F
:1004600016D094F8840094F88520000440EA0260D5
:1004700094F88220104394F8832040EA022020F070
:100480007F40C01A18BF012010BD032010BD0220FC
:1004900010BD00BF55AAFFFF464154002DE9F041B1
:1004A000036815461A78303A092A07D85C783A2C3E
:1004B00004D102330360002A40F06081BA4B1C680B
:1004C0000C60002C00F05D81237873B1607801F03E
:1004D000FCF910F0010F08D1002D00F0558110F04B
:1004E000040018BF0A20BDE8F08100202070607071
:1004F00001F0E6F910F0010F40F049811DB110F054
:10050000040F40F0478100212046FFF783FF0128B8
:1005100017D194F8F231002B00F0428194F8F86181
:1005200094F8F931360446EA036694F8F631204629
:100530001E4394F8F73146EA03263146FFF76AFF77
:1005400000E00026032800F02881002840F02881E0
:1005500094F83C2094F83B3043EA0223B3F5007F43
:1005600040F01E8194F8470094F8463053EA00208A
:100570000DD194F8560094F85730000440EA036017
:1005800094F85430184394F8553040EA032094F816
:100590004050E0616B1EDBB2012BE57000F2008180
:1005A00094F83D10A170002900F0FA804B1E0B4218
:1005B00040F0F68094F8422094F8413043EA022259
:1005C00012F00F0F228140F0EB8094F8447094F801
:1005D000433053EA07230DD194F8523094F8537006
:1005E0001B0443EA076394F850703B4394F851703E
:1005F00043EA072394F83FC094F83E7057EA0C2C66
:1006000000F0CE8005FB00F80CEB12174744BB420C
:10061000C0F0C680DB1BB3FBF1F3002B00F0C08001
:1006200040F6F5718B4206D94FF6F575AB428CBF9B
:100630000325022500E001250233BF1906EB0C015A
:10064000032DA361A762216213D1002A40F0A88084
:1006500094F85E2094F85F10120442EA016294F864
:100660005C109B000A4394F85D1042EA012262622A
:1006700010E0002A00F09480022D4FEA430218BFD8
:10068000D218414418BF03F0010361620CBF134646
:1006900003EB520303F5FE730333B0EB532FC0F0AB
:1006A0008D804FF0FF3323610133032DE3605AD176
:1006B000637194F8612094F86030607843EA022214
:1006C000B218626104F13001012301F003F900283E
:1006D00049D194F82E3294F82F2243EA0222334B68
:1006E00012B29A423FD194F8322094F83330120477
:1006F00042EA036294F830301A4394F8313042EA07
:1007000003222B4B9A422ED194F8162294F81732DA
:10071000120442EA036294F814321A4394F8153230
:1007200042EA0322234B9A421DD194F81E3294F8D8
:100730001F221B0443EA026394F81C22134394F81B
:100740001D2243EA0223E36094F81A3294F81B2234
:100750001B0443EA026394F81822134394F8192205
:1007600043EA02232361144A2570138800200133D1
:100770001380E380E0622071BDE8F0810B20BDE8CA
:10078000F0810C20BDE8F0812846BDE8F08103200F
:10079000BDE8F0810A20BDE8F0810120BDE8F081CC
:1007A0000D20BDE8F08100BF0C00001055AAFFFF2E
:1007B0005252614172724161080000100D20BDE883
:1007C000F08100BF2DE9F041C56A04468D420E4616
:1007D0002AD00379E3B100F13008414640782A4637
:1007E000012301F08EF810BBE269236A2071D3184F
:1007F0009D420DD2E77809E0E3696078ED18414643
:100800002A46012301F07DF8013FFFB2012FF3D802
:1008100086B1607804F130013246012301F05AF8C4
:1008200058B9E662BDE8F0810020BDE8F081012002
:10083000BDE8F0813046BDE8F0810120BDE8F081DF
:1008400070B500210446FFF7BDFF054600284FD1D3
:100850002378032B44D16379002B41D004F1300677
:10086000E062294630464FF40072FFF7BAFD552387
:1008700084F82E32DB1884F82F32583B84F830305D
:1008800084F831300F3384F8323084F8173223691A
:10089000412284F8332084F816221A0A84F8183288
:1008A00084F819221A0C1B0E84F81B32E36884F8B2
:1008B0001A221A0A722184F81C3284F81D221A0C9A
:1008C0001B0E84F8141284F8151284F81E2284F882
:1008D0001F32607831466269012301F012F86571B8
:1008E000002160780A4601F023F8003818BF012083
:1008F00070BD83690239023B994204D28278836ACF
:1009000002FB01307047002070470129F8B504460A
:100910000D465AD98369994257D20378022B29D0C0
:10092000032B38D0012B52D101EB5106016A01EBA8
:100930005621FFF747FF002849D1F305216ADB0D57
:100940000136E318204601EB562193F83070FFF78B
:1009500039FF00283BD1F605F60DA61996F83000B0
:1009600015F0010F47EA002001D00009F8BD00058D
:10097000000DF8BD016A01EB1521FFF723FF30BB25
:100980002D06ED0D6319641993F8303094F8310099
:1009900043EA0020F8BD016A01EBD511FFF712FF11
:1009A000C0B96D06ED0D05F13003E318D8789A78DB
:1009B00000065B7840EA0240641940EA032094F89C
:1009C0003030184320F07040F8BD0120F8BD4FF0E2
:1009D000FF30F8BD4FF0FF30F8BD70B50D46C18057
:1009E00081680446012939D003689A69914235D259
:1009F00071B91A78032A01D1596A49B90022E26013
:100A00001A89AA422AD95B6A03EB151323611AE0FB
:100A10009E7836010EE02068FFF777FFB0F1FF3FC8
:100A2000014619D0012819D923689B69984217D229
:100A3000AD1BADB2B542EED2E1602068FFF759FFC1
:100A400000EB15102061236805F00F0530336D01B0
:100A50005D196561002070BD012070BD022070BD70
:100A6000022070BD10B5C1880446FFF7B6FF50B92B
:100A700020682169FFF7A6FE28B96369E5221A708C
:100A80002368E43A1A7110BD0129F8B504460D46F1
:100A900016466ED9836999426DD20378022B3AD0FB
:100AA000032B47D0012B60D101EB5107016A01EB09
:100AB0005721FFF787FE002858D1FB05DB0D15F005
:100AC0000105F2B206D0E11891F8301001F00F01E3
:100AD00041EA0212E318216A83F83020013701232A
:100AE0002371204601EB5721FFF76CFE00283DD112
:100AF000FF05FF0D0DB1360909E0E31993F8303019
:100B0000360A23F00F0306F00F0643EA0606E7193C
:100B100087F830602AE0016A01EB1521FFF752FEE9
:100B200020BB2D06ED0D631983F83060360A83F87B
:100B300031601BE0016A01EBD511FFF743FEA8B954
:100B40006D06ED0D05F13003E318DA78651912062C
:100B500002F0704242EA0606320A85F830605A70A6
:100B6000320C360E9A70DE7000E0022001232371F1
:100B7000F8BD0220F8BD0220F8BDF8B505460E46C6
:100B800031B9C7686FB183699F4228BF012709E067
:100B9000FFF7BBFE012839D9AB6998423BD33746F2
:100BA00000E001273C46AB6901349C4202D3012F8F
:100BB0002ED9022428462146FFF7A7FE38B1B0F10E
:100BC000FF3F28D0012826D0BC42ECD120E02846A7
:100BD00021466FF07042FFF757FF88B92EB12846C3
:100BE00031462246FFF750FF50B92B69EC60B3F154
:100BF000FF3F0FD0013B2B6101236B712046F8BDF5
:100C0000012814BF01204FF0FF30F8BD0120F8BDCE
:100C10000020F8BD2046F8BD2DE9F041C688044605
:100C20000136B6B20F46002E6BD00369002B68D098
:100C300016F00F0F5AD1C16801330361006819B96A
:100C40000389B34252D85CE08378013B13EA161360
:100C50004CD1FFF75AFE0128054658D9B0F1FF3FA5
:100C600058D0206883699D423AD3002F49D0E1686B
:100C7000FFF783FF0546002846D0012847D0B0F192
:100C8000FF3F47D020680021FFF79CFD0746002862
:100C900040D12068394630304FF40072FFF7A1FB95
:100CA000D4F8008029464046FFF723FEC8F82C0000
:100CB0000FE04FF0010883F8048020680021FFF75F
:100CC00081FD002829D123684744DA6AFFB24244F3
:100CD000DA6223689A78BA42EBD8DA6AD71BDF6205
:100CE000E56020682946FFF704FE20612368E6805E
:100CF00006F00F06303376019E1966610020BDE8CC
:100D0000F0810420BDE8F0810720BDE8F0810220D9
:100D1000BDE8F0810120BDE8F0814046BDE8F081EA
:100D20002DE9F0410B7804462F2B0D4601D05C2BAA
:100D300000D101350026A6602B781F2B06D820464F
:100D40003146FFF74AFE6661BDE8F081A6692021C1
:100D500030460B22FFF745FB00210F4608200A46CC
:100D6000EB5D0137202B3ED92F2B3ED05C2B3CD0A6
:100D70002E2B01D081420AD3082840F092802E2BDE
:100D800040F08F8092000146D2B20330E8E713F0C2
:100D9000800F06D0DFF818C1803B1CF8033042F00A
:100DA0000302DFF810C11CF8018FB8F1000F02D068
:100DB0009845F8D175E0A3F1410C5FFA8CFCBCF1C9
:100DC000190F02D842F002020AE0A3F1610C5FFAA7
:100DD0008CFCBCF1190F03D8203B42F00102DBB2BE
:100DE00073540131BCE7042300E00023002958D0EC
:100DF0003178E52901D1E0393170082801D192001C
:100E0000D2B202F00301012902F00C0208BF43F044
:100E10001003042A08BF43F00803F37220460021A0
:100E2000FFF7DBFDE0B920682169FFF7CBFCB8B91B
:100E3000626913789BB1D37A13F0080F0AD1A169C4
:100E4000034601E00B2B0BD012F803C0CE5C01333C
:100E5000B445F7D020460021FFF7DEFEE2E704208C
:100E6000A369DB7A40B104281FD103F00403002BEF
:100E700008BF0520BDE8F08113F0040F15D16369A8
:100E8000DA7A12F0100F0FD0597D1A7DED1942EA6F
:100E90000122D97E9B7E43EA012343EA0243A360F9
:100EA00054E70620BDE8F0810520BDE8F08100BFD1
:100EB000AB1C00009B1C000070B500210546FFF72D
:100EC0008CFD0446E8B928682969FFF77BFC0446D5
:100ED000B8B96B691B78E52B15D0A3B12846012161
:100EE000FFF79AFEEDE76E69214630462022FFF7B4
:100EF00078FA0B223046A969FFF76BFA2B680122BA
:100F00001A71204670BD28682969FFF75BFC04460A
:100F10000028F6D1E7E710B50423044614E0206862
:100F2000FFF750FCD0B962691378B3B1E52B05D057
:100F30002E2B03D0D37A13F0080F0DD020460021BA
:100F4000FFF76AFE034648B921690029E7D1184630
:100F500013B100222261184610BD04200346F8E7B1
:100F6000012970B504460E4623D9836999421AD3E4
:100F70001FE020463146FFF7C8FC0546C0B10128F6
:100F800017D0B0F1FF3F16D0204631460022FFF7C0
:100F90007BFD88B92369B3F1FF3F03D0013323619F
:100FA000012363712E46A3699E42E2D3002070BDE7
:100FB00070BD022070BD012070BD000048B9064A16
:100FC000136803B1187009B100230B701160002081
:100FD00070470B20704700BF0C0000102DE9F04156
:100FE0008CB00023044602F01F050CA840F82C1D0D
:100FF000236002A905F01E02FFF750FA09AB08931F
:1010000018B902A80199FFF78BFE079E10B9002EB0
:1010100008BF062015F01C0F45D050B1042802D19E
:1010200002A8FFF749FF079E00286FD145F0080589
:1010300006E015F0040F6CD1F37A13F0110F6CD1A8
:1010400015F0080F3BD000F05DFA327D030A777D82
:10105000F373030CB0733374000E0023F17E42EA85
:101060000727B27EF37233777377B377F377B3766C
:10107000F37633757375707442EA01220298013376
:1010800052EA074703711AD03946D0F82C80FFF78F
:1010900067FF00283AD10298013FC7604146FFF739
:1010A00091FB60B132E0002830D1F37A13F0100FD9
:1010B00031D115F0020F02D013F0010F2DD1029B98
:1010C00015F0080FDA6A18BF45F02005A571E26136
:1010D0002662327D717DF07E42EA0121B27E42EAD3
:1010E000002242EA01422261B27FF17F120442EA09
:1010F0000162317F00200A43717F2360DB8842EA6E
:101100000122E260A060A0616062A3800CB0BDE833
:10111000F0810820FAE70420F8E70720F6E72DE938
:10112000F74F01931646019A044600238846136040
:101130000068A188FFF75BF90546002840F0A88009
:10114000A37913F0800F40F0A08013F0010F00F09E
:101150009E80E268A368C3EB02094E4538BFB146E2
:101160008EE0A368DA05D20D002A70D1206890F8CD
:1011700002B00BF1FF3B0BEA532B5FFA8BFBBBF189
:10118000000F0BD10BB9206902E06169FFF7BDFBCD
:1011900001280AD9B0F1FF3F52D06061D4F800A015
:1011A00061695046FFF7A5FB20B9A37963F07F037F
:1011B000A3716AE05FEA592700EB0B0623D09AF887
:1011C000023007EB0B029A4288BFCBEB0307FBB25E
:1011D0009AF801004146324600F07CFBA3790028D2
:1011E0002FD113F0400F0CD0A3699E1BBE4208D232
:1011F000760208EB060004F128014FF40072FFF7B5
:10120000E8F87F0232E0A37913F0400F0CD00123FD
:101210009AF8010004F12801A26900F072FBA37999
:1012200078B923F04003A371A369B3420ED02146DD
:1012300051F8283B32465878012300F04BFB28B187
:10124000A37963F07F03A371012521E0A661A36860
:1012500004F12801DB05DB0DC3F50077B94538BF84
:101260004F464046C9183A46FFF7B3F8A368019ABB
:10127000DB19A3601368B844DB191360C7EB0909D5
:10128000B9F1000F7FF46DAF02E0022500E0072501
:101290002846BDE8FE8F70B50446A1880068FFF7B8
:1012A000A6F8002848D1A37913F0200F44D013F0FA
:1012B000400F0DD0214651F8283BA26958780123F0
:1012C00000F01FFB002836D1A37923F04003A3715F
:1012D0002068E169FFF776FA00282DD1256AEB7ABC
:1012E00043F02003EB72E3682B77A3891B0A6B772B
:1012F000E389AB77E37BEB772369AB76238A1B0A21
:10130000EB76638A2B75638A1B0A6B7500F0FAF81B
:10131000030AA875EB75030C000E2B766876A3798B
:10132000012223F02003A37123681A712068BDE80D
:101330007040FFF785BA012070BD10B50446FFF775
:10134000AAFF00B9206010BD30B595B014AB43F8CA
:101350004C0D18460AA90122FFF7A0F8002842D137
:1013600011AB0AA801991093FFF7DAFC00283AD1D3
:101370000F9B3BB1D87A00F00100002814BF072072
:10138000002000E006205D7D1C7DD97E9A7E50BB4A
:10139000DB7A44EA052442EA012213F0100F42EA04
:1013A000044422D0012C11D903A80AA91C22FFF75A
:1013B00010F803A802210594FFF70FFB98B903A8C2
:1013C000FFF7A9FD20B104280FD00CE002200AE0AD
:1013D000072008E024B10A982146FFF7C1FD10B9A3
:1013E0000A98FFF72DFA15B030BD0AA8FFF73AFBAF
:1013F0000028EFD0F7E730B59BB01AAB43F8640D87
:101400000C4618460AA90122FFF748F8002875D1B2
:101410000A9B0AA80393019917AB1093FFF780FC6E
:1014200000286BD10F99002965D011A80B31152226
:10143000FEF7CFFF03A80AA91C22FEF7CAFF03A8E4
:101440002146FFF76DFC002857D0042856D103A889
:10145000FFF732FD002851D1089C132204F10D0042
:101460000DF14601FEF7B5FF9DF84430012243F02F
:101470002003E3720A9B1A71059B0C9A9A4232D0A0
:10148000E37A13F0100F2ED0237D617DE27E43EAD4
:101490000121A37E039D43EA022343EA014128463A
:1014A000FFF727FA014600282AD02846FFF78AF9D5
:1014B000039B18BB93F851202E2A14D11A78032AC3
:1014C000059A03D1596A8A4208BF0022110A83F89B
:1014D0006A20120C83F86420120A83F86520012226
:1014E00083F86B101A710AA8FFF7BCFA30B90A9892
:1014F000FFF7A6F902E0042000E008201BB030BD91
:101500000220FBE7004870475C64173F37B51D2396
:101510000025042468468DF801308DF800408DF8D0
:1015200002508DF803508DF80450FEF7AFFE2046B0
:101530004FF000512A46FEF7FDFE2046FEF70AFF57
:1015400000F00050431B584240EB03003EBD00003A
:10155000F0B5ADF5037DFEF75FFEFEF775FE3D4984
:101560004FF6FF02CB68002003EA02023A4B42EA40
:101570000303CB60FEF784FE00F025F9002862D15A
:10158000FFF7C4FF002853D13449FFF717FD344E4D
:101590003070002845D1334833490122FFF71EFD42
:1015A000307000283DD12F4BDD68002D39D02F4BF6
:1015B0001F692F4B5B6F0133DB1B9D4231D8044603
:1015C0004FF400738193E318AB4284BFC4EB05036F
:1015D0008193244801A9819A81ABFFF7A0FD307067
:1015E00068B9819A02E0FF238B540132B2F5007F83
:1015F00001A9F8D3E019819200F03CFA00E02C46F2
:1016000004F50074AC42DBD31648FFF796FE307049
:101610001848FFF799FE174930701348FFF7EBFEA3
:10162000307000F0C1FA00F077FA08B100F066FA05
:10163000084A114BD16801F4E06141EA0303D36029
:10164000BFF34F8FFEE700F059FA00200DF5037D40
:10165000F0BD00BF00ED00E00005FA0568020010D3
:10166000640200103C0000102B1D0000C01D000093
:10167000481D0000391D00000400FA0511F0030F99
:1016800070B504460E4601D0002509E089B2BDE8D8
:10169000704000F0C3BAFF2000F0B4FA6055013585
:1016A000B542F8DB70BD70B504460E46002503E078
:1016B000605D00F0A7FA0135B542F9DB70BD07B5F2
:1016C0000A0E8DF802200A0C40F040008DF803202D
:1016D0000A0AFF238DF801008DF804208DF805100B
:1016E0009522684608218DF800308DF806208DF887
:1016F0000730FFF7D8FF0EBD10B50824FF2000F01B
:1017000081FAFF2803D1013CE4B2002CF6D110BDD0
:1017100030B50021044685B00920FFF7D0FFFFF760
:10172000EBFFFE28FBD10025FF2000F06BFA0DF83F
:1017300005000135102DF7D1FF2000F063FAFF20DE
:1017400000F060FA9DF807109DF80820890001EB71
:1017500092119DF80520012302F00F0213FA02F204
:101760009DF8065092B205F00305AD02491901310A
:101770004A439DF809009DF80A1000F00300C909CA
:1017800001EB400102318B409BB2534300202360A8
:1017900005B030BD10B5FFF7AFFF000284B2FF20E7
:1017A00000F030FA44EA000080B210BD08B50D2008
:1017B0000021FFF784FFFFF7EDFF00280CBF012099
:1017C0004FF0FF3008BD10B500F0BAF94FF47A744D
:1017D00000200146FFF773FFFFF78EFF012802D1BB
:1017E0004FF4FA4402E0DCB1013CF1E701200021B2
:1017F000FFF765FFFFF780FF012802D154B1013CDC
:10180000F4E750B9FFF7D2FF0028ACBF00206FF01B
:10181000010010BD6FF0020010BD6FF0020010BD9E
:10182000FF2814BF6FF001004FF0FF3010BD10B55E
:101830000C4641021820FFF742FFFFF75DFFFE2034
:1018400000F0E0F94FF400712046FFF72CFFFF2075
:1018500000F0D8F9FF2000F0D5F9FF2000F0D2F910
:10186000FF2000F0CFF9FF28FAD1FF3810BD70B586
:101870000D4641021120FFF722FFFFF73DFF4FF613
:10188000FF760446FFF738FFFF2803D116B1013E6B
:10189000B6B2F7E774B9FE280FD14FF400712846AD
:1018A000FFF7ECFEFF2000F0ADF9FF2000F0AAF9F1
:1018B000204670BD4FF0FF3070BD4FF0FF3070BD5F
:1018C00008B9FFF780BF02207047002814BF02202C
:1018D00000207047F8B514461F4670B90E460546FD
:1018E00007E031462819FFF7C2FF06F5007630B948
:1018F0000135BD42F5DB0020F8BD0220F8BD012016
:10190000F8BDF8B514461F4670B90E46054607E007
:1019100031462819FFF78BFF06F5007630B90135FF
:10192000BD42F5DB0020F8BD0220F8BD0120F8BD66
:1019300010B5044690B9022904D003290AD0012920
:101940000DD103E04FF40073138008E01046FFF759
:10195000DFFE04E04FF40073136000E00224204631
:1019600010BD62B6704772B67047000008B50248F5
:101970000249034B984708BD2400001010000010D6
:10198000F11FFF1F2DE9F04104460D4616461F4684
:10199000FFF7E9FF064B33221A605D609E60DF604F
:1019A0001C61FFF7E3FFBDE8F041FFF7DABF00BFBE
:1019B000240000102DE9F04104460D4616461F464E
:1019C000FFF7D1FF064B38221A605D609E60DF6032
:1019D0001C61FFF7CBFFBDE8F041FFF7C2BF00BFBE
:1019E0002400001010B5054B34241C605860996029
:1019F000DA60BDE81040FFF7B9BF00BF2400001057
:101A000010B5054B32241C6058609960DA60BDE85F
:101A10001040FFF7ABBF00BF2400001070B50546B3
:101A20000E46FFF7A0FF114B042453F8042F9642F3
:101A300014D20F4B53F824309E4209D12046214640
:101A40002A46FFF7DDFF204621462A46FFF7CAFF58
:101A5000204621462A46FFF7D3FF02E001341E2C20
:101A6000E3D1BDE87040FFF77CBF00BF541D00000C
:101A7000C01D00002DE9F04180461C480023046889
:101A800004E01B4DCE5C6519EE5401339342F8D14E
:101A900004681C19B4F5007F046024D1154F4FF47D
:101AA0007A763868144DB0FBF6F04146FFF7B6FF82
:101AB0002B6803B1FEE738682346B0FBF6F04146D9
:101AC0000B4AFFF75FFF2B6803B1FEE73868234638
:101AD000B0FBF6F04146064AFFF76CFF2B6803B1F6
:101AE000FEE7024A13600020BDE8F08138000010D4
:101AF00098040010000000101000001008B5054BFD
:101B00004FF480409860FEF783FB44F204031B68A7
:101B1000984708BD00ED00E008B5074B35221A6074
:101B2000313A5A609A60FFF721FF044B1868003879
:101B300018BF012008BD00BF2400001010000010D5
:101B4000154BD3F8C42042F48062C3F8C420D3F804
:101B5000A82122F44012C3F8A821D3F8A82142F406
:101B60008012C3F8A8210D4B1A6842F430721A6033
:101B70001A6822F480721A60094B1A6822F47F22D4
:101B80001A601A6842F428221A60064B07221A606B
:101B9000053A5A60704700BF00C00F4000C00920DE
:101BA00000C002400000034013B500211448FEF7B6
:101BB00007FC1348FEF7F0FB032200238DF80320F7
:101BC0006846921802AC8DF801208DF802308DF82D
:101BD000043004F8083DFEF759FB072368468DF8EA
:101BE0000130FEF753FB082368468DF80130FEF7FD
:101BF0004DFB092368468DF80130FEF747FB1CBDFD
:101C000000000340044B9860034BDA6812F0100F99
:101C1000FAD19868C0B2704700000340194B70B504
:101C20001C684A08072994BF1146082144F00F0494
:101C30001C600B4605E0134C4FF6FF75013BA56099
:101C40009BB2002BF7D10F4CE56815F0040FFAD0CA
:101C5000A568561AB342B8BF4FF6FF76ADB2B8BF0B
:101C6000A6602C0A013304709CB29442457001D2E4
:101C70000230E8E7034B1A6822F00F0242F0070235
:101C80001A6070BD0000034000C0092020C0092078
:101C900040C0092060C0092080C00920222A2B2CC6
:101CA0003A3B3C3D3E3F5B5D7C7F0080818283848C
:101CB00085868788898A8B8C8D8E8F90919293945C
:101CC00095969798998A9B8C8D8E8FA0A1A2A3A49C
:101CD000A5A6A7A8A9AAABACADAEAFB0B1B2A3B44C
:101CE000B5B6B7B8A5AABBBCBDBCAFC0C1C2C3C462
:101CF000C5C6C7C8C9CACBCCCDCECFD0D1D2D3D41C
:101D0000D5D6D7D8D9DADBDCDDDEDFC0C1C2C3C4AB
:101D1000C5C6C7C8C9CACBCCCDCECFD0D1D2D3D4FB
:101D2000D5D6F7D8D9DADBDCDDDEFF2F6669726D38
:101D3000776172652E62696E002F6669726D7761D8
:101D400072652E62636B0000FF0F0000FF1F000032
:101D5000FF2F0000FF3F0000FF4F0000FF5F00006B
:101D6000FF6F0000FF7F0000FF8F0000FF9F00005B
:101D7000FFAF0000FFBF0000FFCF0000FFDF00004B
:101D8000FFEF0000FFFF0000FF7F0100FFFF0100E9
:101D9000FF7F0200FFFF0200FF7F0300FFFF030041
:101DA000FF7F0400FFFF0400FF7F0500FFFF050029
:101DB000FF7F0600FFFF0600FF7F0700FFFF070011
:101DC00000000000001000000020000000300000B3
:101DD00000400000005000000060000000700000A3
:101DE000008000000090000000A0000000B0000093
:101DF00000C0000000D0000000E0000000F0000083
:101E000000000100008001000000020000800200CC
:101E100000000300008003000000040000800400B4
:101E2000000005000080050000000600008006009C
:101E3000000007000080070000000000581E00009E
:0C1E4000000000100800000090060000E8
:081E4C0078E2FF7F01000000B5
:081E580000E1F50500000000A7
:04000003000000C534
:00000001FF
